:100000002CEF86F020EF4BF0046ED8CF05F0E0CF58
:1000100006F00001E9CF0CF0EACF07F0E1CF08F0DD
:10002000E2CF09F0D9CF0AF0DACF0BF0F3CF12F01C
:10003000F4CF13F0FACF14F0F5CF15F0F6CF16F099
:10004000F7CF17F0F8CF18F0FBCF19F000C00EF083
:1000500001C00FF002C010F003C011F09DA234EFF8
:1000600000F09EB27AEF05F0F2A83AEF00F0F2B29B
:1000700018EF07F0F0A640EF00F0F0B01CEF07F02B
:100080009DAA46EF00F09EBA25EF07F0A3AA4CEF19
:1000900000F0A4BA4FEF07F0F0AA52EF00F0F0B46E
:1000A0001FEF07F00EC000F00FC001F010C002F00B
:1000B00011C003F00CC0E9FF07C0EAFF078E08C0BB
:1000C000E1FF09C0E2FF0AC0D9FF0BC0DAFF12C08E
:1000D000F3FF13C0F4FF14C0FAFF15C0F5FF16C0FC
:1000E000F6FF17C0F7FF18C0F8FF19C0FBFF045058
:1000F00006C0E0FF05C0D8FF1000F76A0E0FF66ECD
:10010000010EF722000EF86E0900F55012000005EE
:10011000060D12181C22282C2C353C3C4545A0A06D
:10012000F0F0F0F0F0F0F0F0F0F0F0F0F0F0F76A4E
:10013000420FF66E010EF722000EF86E0900F55020
:1001400012007D7D7D6E645F55504D4B46413F3CB6
:10015000393735322F2D2B2A2826252321201E1C06
:100160001B1A191817161412100F0D0C0B0A07067C
:1001700005030200FEFDFBF9F6F3F1EFECE9E7E21F
:10018000D8CEF76A960FF66E010EF722000EF86EC3
:100190000900F55012001E1E1E1E1E1E1E1E1E1ED3
:1001A0001C1C1C1A181614121211100E0C0907062A
:1001B000050403020100000000000003080A0D11FD
:1001C00015191B1F242A2C3236393C4146505A64DB
:1001D0006E787D7F7F7F0A0D544D203820544D204E
:1001E00052455354415254210A0D00000A0D335810
:1001F00020544D2052455354415254210A0D0000C1
:100200005245414420504D2054494D45210D000098
:10021000544D5F424C45504D5F555345544D4752E8
:10022000203078303039383A2000544D5F54494DF1
:10023000455F52585F434F554E543A200000504D91
:100240005F54494D47525354415445203078303023
:1002500039393A20000054696D654D616E616765FA
:1002600072207061636B6574732072656365697673
:1002700065643A200000504D5F54494D4520307868
:10028000303039413A200000504D5F424C454143E7
:100290004F4E5F4F4F4254485245534820307830BC
:1002A0003041303A2000554E49582045504F434880
:1002B0002054494D453A20004D462049443A2000FB
:1002C0004E4F44452049443A200050414952494E3E
:1002D0004720434F44453A20000056454E444F5274
:1002E0002049443A20004D4F44454C204E554D4244
:1002F00045523A20000053455249414C204E554D3D
:100300004245523A20004D41432041444452455316
:10031000533A20006D776D2B6A736574616C6C3D88
:1003200000006D776D2B6A636C6F75646D756C740E
:100330006977726974653D6465766963655F657642
:10034000656E745F6C6F672C00002C646576696362
:10035000655F707573685F6576656E742C6E6F5F30
:10036000616C61726D002C6465766963655F7075A0
:1003700073685F6576656E742C62617474657279FA
:100380005F353070637400002C6465766963655F67
:10039000707573685F6576656E742C6261747465E0
:1003A00072795F323570637400002C64657669631E
:1003B000655F707573685F6576656E742C736D6FBD
:1003C0006B6500002C6465766963655F70757368A2
:1003D0005F6576656E742C736D6F6B6500002C64C1
:1003E00065766963655F707573685F6576656E7461
:1003F0002C736D6F6B6500002C6465766963655FB7
:10040000707573685F6576656E742C736D6F6B6560
:1004100000002C6465766963655F707573685F655D
:1004200076656E742C736D6F6B6500002C64657659
:100430006963655F707573685F6576656E742C635C
:100440006F002C6465766963655F707573685F65BE
:1004500076656E742C636F002C6465766963655FE6
:10046000707573685F6576656E742C636F002C64BD
:1004700065766963655F707573685F6576656E74D0
:100480002C636F002C6465766963655F70757368B3
:100490005F6576656E742C74657374002C64657684
:1004A0006963655F707573685F6576656E742C73DC
:1004B000696C656E636564002C6465766963655F6D
:1004C000707573685F6576656E742C6D616C6675AA
:1004D0006E6374696F6E00002C6465766963655F96
:1004E000707573685F6576656E742C62617474658F
:1004F00072795F6C6F7700002C6465766963655F65
:10050000707573685F6576656E742C6D616C667569
:100510006E6374696F6E00002C6465766963655F55
:10052000707573685F6576656E742C6D616C667549
:100530006E6374696F6E00002C6465766963655F35
:10054000707573685F6576656E742C656F6C0000FE
:100550002C6465766963655F6163636573735F745B
:100560006F6B656E2C002C6465766963655F636BE9
:1005700065792C006D776D2B6A67657474696D659C
:100580000D0048454150203078303034303A20005A
:10059000544D5F424C455F5354415455532030787D
:1005A000303035313A200000544D5F424C45504DBB
:1005B0005F535441545553203078303036313A200F
:1005C0000000544D5F424C455F4D414E55464944F5
:1005D000203078303035343A2000544D5F424C455D
:1005E000504D5F4944203078303036323A20000098
:1005F000544D5F424C45504D4E4F44455F49442059
:100600003078303036343A200000544D5F424C454B
:10061000504D5F4445465F4455524154494F4E202A
:100620003078303036363A2000006D776D2B6A73A3
:10063000657473657269616C6E756D6265723D009B
:100640006D776D2B6A73657463727970746F3D009A
:100650006D776D2B6A736574616363657373746F13
:100660006B656E3D00006D776D2B6A7365746D6F01
:1006700064656C3D444331300D006D776D2B6A67C6
:1006800065746D6F64656C0D00006D776D2B6A731A
:100690006574636F756E7472793D7573610D0000DA
:1006A0006D776D2B6A73657476656E646F723D004D
:1006B0006D776D2B6A67657476657273696F6E0D01
:1006C00000006D776D2B6A7365746677766572735B
:1006D000696F6E3D00006D776D2B6A6765747061A0
:1006E0006972696E67636F64650D00006D776D2BCD
:1006F0006A736574737369643D25730D00006D77CB
:100700006D2B6A7365747061737370687261736561
:100710003D25730D00006D776D2B6A7365746D61F7
:100720006E75616C70726F766973696F6E0D000023
:100730006D776D2B6A636C6F75646D756C7469771A
:10074000726974653D6465766963655F616363655D
:1007500073735F746F6B656E2C002C6465766963D0
:10076000655F636B65792C006D776D2B6A776C61C3
:100770006E73746174650D006D776D2B6A676574B7
:100780006D61630D00006D776D2B6A636C6F75642E
:10079000636F6E6E6563740D00006D776D2B6A6319
:1007A0006C6F75646D756C746977726974653D649E
:1007B00065766963655F726F6F6D2C756C74726FAF
:1007C0006E0D00006D776D2B6A67657470616972DC
:1007D000696E6773746174650D006D776D2B777347
:1007E0007472740D00006D776D2B6A776C616E7397
:1007F000746174650D0052532C0052432C25730D07
:100800000000524E2C444331302D000052462C251E
:10081000730D00000A4320254C580D006D776D2B99
:100820006A776C616E73746174650D006D776D2B02
:100830006A776C616E73746174650D006D776D2BF2
:100840006A776C616E73746174650D006D776D2BE2
:100850006A67657470616972696E67636F64650D5C
:100860000000414C4C5F53534944530D0000434F2B
:100870002C25690D0000466163746F727920536501
:100880007475700D0A006D776D2B77737472740D2B
:1008900000006D776D2B7368656C6C6F0D006D7764
:1008A0006D2B77737472740D00006D776D2B736808
:1008B000656C6C6F0D006D776D2B77737472740DB2
:1008C00000006D776D2B7368656C6C6F0D006D7734
:1008D0006D2B7368656C6C6F0D006D776D2B73738A
:1008E000746172740D004D617276656C6C20666186
:1008F000696C656420746F207374617274210D00DB
:10090000465F5445535453494C494E4345203D207E
:10091000747275653B0D0000544D5F424C45504D5F
:100920004E4F44455F49442077726974650D00005D
:10093000504D6573684B65792072656164206672FD
:100940006F6D20454550524F4D0D0000544D5F4294
:100950004C45504D5F49442077726974650D000025
:10096000504D6573684B65792077726974652074A2
:100970006F2063446174610D0000504D6573684BD6
:10098000657920726561642066726F6D20634461D1
:1009900074610D00504D6573684B657920777269FD
:1009A000746520746F20544D203078303030300D15
:1009B00000006D776D2B637365743D6E6574776FA2
:1009C000726B2C636F6E666967757265642C300D8F
:1009D00000006D776D2B637365743D6E6574776F82
:1009E000726B2C636F6E666967757265642C300D6F
:1009F00000006D776D2B6A72657365747061697242
:100A0000696E67730D006D776D2B6A626F6F746C22
:100A10006F61646572726573706F6E73653D676F49
:100A20000D006D776D2B6A626F6F746C6F6164651A
:100A300072726573706F6E73653D73746F700D00C5
:100A40006D776D2B77737472740D00006D776D2B5D
:100A50006A776C616E73746174650D000A0D424CA7
:100A6000452052455354415254210A0D00006D77E0
:100A70006D2B637365743D6E6574776F726B2C6359
:100A80006F6E666967757265642C300D00006D7756
:100A90006D2B6A726573657470616972696E6773D4
:100AA0000D006D776D2B7368656C6C6F0D006D7745
:100AB0006D2B637365743D6E6574776F726B2C6319
:100AC0006F6E666967757265642C300D00006D7716
:100AD0006D2B6A726573657470616972696E677394
:100AE0000D006D776D2B7368656C6C6F0D00434C5A
:100AF000524400009E5108081BE1010E9F5DFB0F50
:100B000011E2050F70EF06F00E0EBC6E0BD01B0E3F
:100B1000BC6E08D0360EBC6E05D0510EBC6E02D035
:100B20005F0EBC6E000E0509CA6E6C0ECB6ED0D087
:100B30009E5107081BE1010E9F5DFB0F11E2050F9F
:100B400085EF06F00D0EBC6E0BD01A0EBC6E08D0F1
:100B5000330EBC6E05D04D0EBC6E02D0590EBC6E6D
:100B6000000E0509CA6E660ECB6EB2D09E51060805
:100B70001BE1010E9F5DFB0F11E2050F9AEF06F0DE
:100B80000C0EBC6E0BD0180EBC6E08D0300EBC6EB6
:100B900005D0480EBC6E02D0540EBC6E000E050986
:100BA000CA6E600ECB6E94D09E5105081BE1010EFB
:100BB0009F5DFB0F11E2050FAFEF06F00B0EBC6E51
:100BC0000BD0170EBC6E08D02D0EBC6E05D0440E97
:100BD000BC6E02D04F0EBC6E000E0509CA6E5A0ED6
:100BE000CB6E76D09E5104081BE1010E9F5DFB0F7A
:100BF00011E2050FC4EF06F00B0EBC6E0BD0150E04
:100C0000BC6E08D02A0EBC6E05D03F0EBC6E02D062
:100C10004A0EBC6E000E0509CA6E540ECB6E58D03B
:100C20009E5103081BE1010E9F5DFB0F11E2050FB2
:100C3000D9EF06F00A0EBC6E0BD0140EBC6E08D0B5
:100C4000270EBC6E05D03B0EBC6E02D0440EBC6EAF
:100C5000000E0509CA6E4E0ECB6E3AD09E510208A8
:100C60001BE1010E9F5DFB0F11E2050FEEEF06F099
:100C7000090EBC6E0BD0120EBC6E08D0240EBC6EDA
:100C800005D0360EBC6E02D03F0EBC6E000E0509BC
:100C9000CA6E480ECB6E1CD09E2D1AD0010E9F5DE1
:100CA000FB0F11E2050F03EF07F0080EBC6E0BD02F
:100CB000100EBC6E08D0420EBC6E05D0310EBC6E5C
:100CC00002D03A0EBC6E000E0509CA6E420ECB6E03
:100CD0009E079E5302E1080E9E6F9E9252EF00F017
:100CE000E824F76AF736010FF66E0D0EF722000EB4
:100CF000F86EFB6E0A00F550FA6E0800F550F96EBA
:100D0000200B1A0B140B0E0B080BE824F76AF736AE
:100D10002B0FF66E0D0EF722000EF86EFB6E0A001A
:100D2000F550FA6E0800F550F96E5C0B560B500B3F
:100D30004A0B440BE824F76AF736550FF66E0D0E92
:100D4000F722000EF86EFB6E0A00F550FA6E0800EE
:100D5000F550F96E980B920B8C0B860B800BE824E8
:100D6000F76AF7367F0FF66E0D0EF722000EF86E5B
:100D7000FB6E0A00F550FA6E0800F550F96ED40BC0
:100D8000CE0BC80BC20BBC0BE824F76AF736A90FD1
:100D9000F66E0D0EF722000EF86EFB6E0A00F5508F
:100DA000FA6E0800F550F96E100C0A0C040CFE0BDC
:100DB000F80BE824F76AF736D30FF66E0D0EF7221C
:100DC000000EF86EFB6E0A00F550FA6E0800F55042
:100DD000F96E4C0C460C400C3A0C340CE824F76AC3
:100DE000F736FD0FF66E0D0EF722000EF86EFB6E55
:100DF0000A00F550FA6E0800F550F96E880C820C66
:100E00007C0C760C700CE824F76AF736270FF66E28
:100E10000E0EF722000EF86EFB6E0A00F550FA6E09
:100E20000800F550F96EC20CBC0CB60CB00CAA0C44
:100E3000FD8FF29252EF00F0F09052EF00F00B01B4
:100E40001483F094000152EF00F00400036AF4519F
:100E5000A40FE96E000E0320EA6E04009EAAFDD7DF
:100E6000AECFEFFFF4C0D4FDF42BF451500801E1F4
:100E7000F46BF551F45D02E1D4CDF4F09E9A52EF9B
:100E800000F0A4AAFED70F0122CF21F01DCF01F060
:100E900021A202D022992289000162EF07F00B0102
:100EA00014AB27D014AD25D00400036A0001F4511F
:100EB000A40FE96E000E0320EA6EEACFD8FDE9CF59
:100EC000D7FDDFD7D8CDEAFFD7CDE9FF01C0EFFFCF
:100ED0002150040B01E00CD0F4C0D4FDF42BF451EC
:100EE000500801E1F46BF551F45D02E1D4CDF4F06A
:100EF0000B01A49A000152EF00F0030E0F01236FC3
:100F0000246F4F0E256FC196C198C19A97948E9405
:100F10000B01149900011200F00EBB160F014E17C1
:100F2000D76AD66A810ED56ECF6ACE6ACD6AAA6AB2
:100F3000CC6A000ECA6E040ECB6E6D6A780E6B6EB4
:100F4000FF0E6C6E7A6A300E7B6E3C6B3D6F780ED6
:100F5000306FFF0E316F9D929E92B990BA90B99208
:100F6000BA92B99CBA9C579F0001C9EF08F04D9006
:100F70004F903A6A3B6A3C6A3D6A060E376E050E30
:100F80002A6E010E276E480E296E1E0E2B6E010E64
:100F9000266E3E6E480E286E180E2E6E336A326E26
:100FA00051860F0E346E2C6A386A55C064F064C0E6
:100FB00063F063C046F046C065F0020E626F180E23
:100FC0002F6E010E306E676B666B2D6A726B716BE4
:100FD00072C070F071C06FF070C074F06FC073F0C9
:100FE000020E6A6F7D6B7C6B7DC07FF07CC07EF0F3
:100FF0007FC076F07EC075F0F2CF37FDF29E636A57
:10100000360E626E7F9C7F9E7F8061500D0137BFE0
:10101000F28E090816E1F2CF38FDF29E636A370EB0
:10102000626E7F9C7F9E7F80615038BFF28E600829
:1010300008E1090E00017A6F600E796F4D8004D0CF
:101040000D0100017A6B796BF250006EF29E636ABB
:10105000110E626E616A7F9C7F9E7F840F01550E28
:101060007E6EAA0E7E6E7F827FB2FED77F94005086
:10107000F212F2CF00F0F29E636A120E626E616AA3
:101080007F9C7F9E7F84550E7E6EAA0E7E6E7F8231
:101090007FB2FED77F940050F212F2CF00F0F29EA2
:1010A000636A130E626E616A7F9C7F9E7F84550E19
:1010B0007E6EAA0E7E6E7F827FB2FED77F94005036
:1010C000F212F2CF00F0F29E636A140E626E616A51
:1010D0007F9C7F9E7F84550E7E6EAA0E7E6E7F82E1
:1010E0007FB2FED77F940050F2125C683F6A416A7B
:1010F000406A436A426A5096030E0001FA6FFB6B26
:10110000640E5D6E5DC0FCF0A39D4DB4A38DA39FE6
:10111000FD91FD93FD951200F09AF094FD9FF292DF
:10112000F2981200520ED36E9B6A646A040E0F018D
:101130002E6F2F6F546F030E236F246F4F0E256F8A
:10114000C196C198C19AC290010E896E1F0E926E0F
:10115000F18E8A6AEF0E936E8B6A940E946E539F93
:10116000020E8C6EA00E956E539D8D6A600E966E6B
:10117000B00E8E6E1A0E976E010E8F6E3C0E986E2C
:101180004D6A4E6A4F6A506A516A526A0001B5DE72
:10119000C3D69788030E0F01236F246FCF0E256FE0
:1011A000C196C198C19A0001E2DEB6DFF096F090D8
:1011B0000F011D51A39A8C98AB9EAB98AC9A229FBD
:1011C0002299219BC00EF212000163EF8BF0020EF8
:1011D0000D01835F0CE30D0EEA6E830EE96EEF5096
:1011E00006E003D000D000D00400EF2EFBD70001B2
:1011F0001200D36A800E9B6E646A020E0D017C6F32
:10120000960E836F0001E3DF0D017C2FF9D7500E9E
:10121000D36E9B6A646A00012BEF09F00D0EEA6E33
:10122000890EE96EEF5011E0010E016EBF0E006EE7
:101230000400002EFDD7012EF9D74A0E006E002EB5
:10124000FED700000400EF2EEFD712000B0114BDF3
:1012500004D00001CED70CD00B01020E0D017C6F23
:10126000960E896F0001DADF0D017C2FF9D700019E
:1012700012000400630E006E002EFED7000044EF43
:1012800009F08E8A8F90F5D71200D36A800E9B6E7C
:10129000646A020E006E002EFED7500ED36E9B6A5B
:1012A000646A58EF09F00B0114BD04D00001EDD7BA
:1012B00006D00B01010E0D01896F0001AFDF120096
:1012C0000400938E938C8D80EEDF1200080E016E69
:1012D00000008A9C939C00000D0183378A9ED8B041
:1012E000938ED8A0939E938C81ACFED7012E01D013
:1012F00002D00001EDD700008A9C939C0000938EE1
:1013000000000000938C81ACFED7016A000081BE12
:1013100001808A9C939C8A9E939E00011200938E6A
:101320000000938C00008A9E939E00008A9C939CF0
:10133000640E0D01836F0001C9DF3D0E0D01836F47
:101340000001C4DF0D0183690001C0DF939E00002E
:10135000938C81ACFED7000000D00000938E00007B
:10136000938E0000938C00008A9E939E00008A9CBE
:10137000939C660E0D01836F0001A8DF3D0E0D01E9
:10138000836F0001A3DF0D01836900019FDF939E3E
:101390000000938C81ACFED7000000D00000938E3B
:1013A000000012000D017F6B100E006E002EFED7A4
:1013B00000007F6B7E517F5D10E27DCD03F07C519C
:1013C0007C2BD8B47D2BE96E03C0EAFFEFCF83FD01
:1013D00000017CDF0D017F2BEDD70001120070DFD3
:1013E0009EDF938E0000938C00008A9E939E0000E7
:1013F0008A9C939C640E0D01836F000167DF020ECF
:10140000A16F1D0EA06FA1C07DFDA0C07CFD020ECE
:101410000D017E6F0001C6DF939E0000938C81ACAE
:10142000FED7000000D00000938E0000938E0000D5
:10143000938C00008A9E939E00008A9C939C640E6D
:101440000D01836F000142DF010EA16FFD0EA06F41
:10145000A1C07DFDA0C07CFD0A0E0D017E6F0001C4
:10146000A1DF939E0000938C81ACFED7000000D0DA
:101470000000938E0000938E0000938C00008A9EE3
:10148000939E00008A9C939C640E0D01836F000163
:101490001DDF010EA16FB10EA06FA1C07DFDA0C028
:1014A0007CFD100E0D017E6F00017CDF939E00001D
:1014B000938C81ACFED7000000D00000938E00001A
:1014C000938E0000938C00008A9E939E00008A9C5D
:1014D000939C640E0D01836F0001F8DE010EA16F75
:1014E000C10EA06FA1C07DFDA0C07CFD0A0E0D0144
:1014F0007E6F000157DF939E0000938C81ACFED776
:10150000000000D00000938E0000938E0000938CAA
:1015100000008A9E939E00008A9C939C660E0D019B
:10152000836F0001D3DE020EA16F1D0EA06FA1C05C
:101530007DFDA0C07CFD020E0D017E6F000132DF3B
:10154000939E0000938C81ACFED7000000D0000079
:10155000938E0000938E0000938C00008A9E939ED1
:1015600000008A9C939C660E0D01836F0001AEDE25
:10157000010EA16FFD0EA06FA1C07DFDA0C07CFD7E
:101580000A0E0D017E6F00010DDF939E0000938C0B
:1015900081ACFED7000000D00000938E0000938E37
:1015A0000000938C00008A9E939E00008A9C939C6E
:1015B000660E0D01836F000189DE010EA16FB10E71
:1015C000A06FA1C07DFDA0C07CFD100E0D017E6F3F
:1015D0000001E8DE939E0000938C81ACFED70000F2
:1015E00000D00000938E0000938E0000938C0000CA
:1015F0008A9E939E00008A9C939C660E0D01836FC9
:10160000000164DE010EA16FC10EA06FA1C07DFDBF
:10161000A0C07CFD0A0E0D017E6F0001C3DE939E0B
:101620000000938C81ACFED7000000D00000938EA8
:10163000000012000400A60E006E002EFED777EF09
:101640000BF00400020E006E002EFED700D0120038
:101650000D014A91546A536AC050C00B0409C06E10
:10166000C08EC2804935006E0036FC0E0016C25096
:10167000830B0010C26E000E016EC150F80B0110FA
:10168000C16E0001DEDF9E9CC2820D014A91C2A2A2
:101690004A814A91C2A24A814AA1FBD7C2B2FED76F
:1016A000C3CF53F0C4CF54F0000B006E5450F00B76
:1016B000036E0050031002E0546A536AC2909D9C6E
:1016C00000011200200E0D013F6F406F030E416FAD
:1016D000509E030E0F01236F010E246FC60E256F5F
:1016E000C196C188C19A8E9897980001A3D7110E10
:1016F0000D01496F0001ACDF5430036E5330026EB0
:101700000332023203320232033202320332023235
:1017100003320232030E031602C040FD0D0140CD1C
:101720003FFD9788030E0F01236F246FCE0E256FA8
:10173000C196C198C19A4F960D013F51050809E223
:101740003F513E0805E24F86240E406F40CD3FFDDD
:1017500005D04F86240E406F40CD3FFD4FA602D0EE
:10176000412FB6D7036A3F51000197EC00F0E8CF54
:101770003DFD036A0D0140510001C1EC00F0E8CFCE
:101780003EFD0D013DAF01D0508E3D513DAF03D028
:10179000000ED8803D554C6E596A5AC058F03DBF76
:1017A00012D03D5119080FE250BE0DD0036A3E51D0
:1017B000006EE8BE0306585C006E0350595800C026
:1017C00058F0596E0CD0036A3E51E8BE0306582407
:1017D000016E5950032201C058F003C059F059500E
:1017E000000802E2596A586800011200D36A800EAC
:1017F0009B6E646A006E002EFED700D0500ED36E32
:101800009B6A646A09EF0CF00B0114BD04D000015F
:10181000EDD706D00B01320E0D01896F0001FEDC01
:101820001200D36A800E9B6E646A190E006E002E41
:10183000FED70000500ED36E9B6A646A25EF0CF051
:101840000B0114BD04D00001ECD706D00B010A0E29
:101850000D01896F0001E2DC1200D36A800E9B6EDD
:10186000646A020E0D017C6FFA0E836F0001AFDC1B
:101870000D017C2FF9D7500ED36E9B6A646A00016C
:1018800047EF0CF00B0114BD04D00001E6D70CD0DB
:101890000B01020E0D017C6FFA0E896F0001BEDC98
:1018A0000D017C2FF9D700011200898C8C96EADF9C
:1018B0001200806B8E9EF18CF292F288FD9FA2EF57
:1018C0000CF004000D019D6B9C6B9D51130810E3FF
:1018D00003E19C5187080CE30001FDAF04D0FD9F9C
:1018E000010E016E08D00D019C2BD8B49D2BEDD7B5
:1018F000000E016E00011200C950A0CDC9FFC73013
:10190000FEE3C9CF00F012009FCDA0FDF5DF01502E
:1019100000C080F080C001F012000D01996B9B6B3C
:101920009051FF0A000109E07E0A07E0780A05E00D
:10193000020A03E00A0A01E004D0010E0D019B6FC8
:101940000001B7D7BEDF0D019F6B0001DDDF0D0188
:1019500096CD9DFD9551952BD8B4962B9C6F90CD2F
:101960009FFD0001D1DF9DCDEAFF9CCDE9FF01C0C5
:10197000EFFF0D01905199270001A3DF0D0196CDD6
:1019800003F09551952BD8B4962B9C6F03C09DFD09
:101990009B5305E0903D01D002D0DA0E04D09E6B3F
:1019A00092519F6F036A9E6F9F6F0001ADDF9DCDC7
:1019B000EAFF9CCDE9FF01C0EFFF0D019C6B925146
:1019C000992796CD9DFD9551952BD8B4962B9C6F5C
:1019D0009B5305E0903D01D002D0DA0E04D09F6BFE
:1019E0009FCD03F091519E6F9F6F00018DDF9DCDC4
:1019F000EAFF9CCDE9FF01C0EFFF0D019D6B9DCD7E
:101A000003F09151992796CD03F09551952BD8B4B9
:101A1000962B9C6F03C09DFD9B5305E0903D01D02C
:101A200002D0DA0E04D09E6B94519F6F036A9E6FB2
:101A30009F6F000169DF9DCDEAFF9CCDE9FF01C0EA
:101A4000EFFF0D019C6B9451992796CD9DFD95510B
:101A5000952BD8B4962B9C6F9B5305E0903D01D0FD
:101A600002D0DA0E04D09F6B9FCD03F093519E6F8E
:101A70009F6F000149DF9DCDEAFF9CCDE9FF01C0CA
:101A8000EFFF0D019D6B9DCD03F093519927000150
:101A900018DF0D019B5317E0996B9A6B9A5104085C
:101AA00012E3050E955D9C6F000E96599D6F9A513D
:101AB0009C25016E000E9D2101C0E9FFEA6EEF50EA
:101AC00099279A2BEBD798CD03F097CDE9FF03C068
:101AD000EAFF99CDEFFF010E016E000112000D012A
:101AE0008D6B8C5303E18B518D5D1DE28D518925EA
:101AF000016E000E8A21036E01C08EFD8F6F8D5125
:101B00008725E96E000E8821EA6EEFCFA0FD000167
:101B1000F3DE01508FCDEAFF8ECDE9FF00C0EFFF6D
:101B20000D018D2BDED70001DDEF0DF0190E0D013B
:101B30008E6F8E5302E08E07FCD78E8E0001FD9FC4
:101B4000F292F29812000D01846B800E906F7FCD9F
:101B500092FD7ECD91FD81CD94FD80CD93FD0A0E49
:101B6000966F8C0E956F0D0E986F840E976F000117
:101B7000D4DE0D01866B856B8651815D10E303E138
:101B80008051855D0CE282518525E96E8351862165
:101B9000EA6EEF508427852BD8B4862BEDD783CD02
:101BA00088FD82CD87FD0A0E8A6F910E896F81CDE7
:101BB0008CFD80CD8BFD000192D70D018451FF0A71
:101BC000876F9F6F0001A0DEB1DF010E016E120072
:101BD00088CD03F00D0187CDE9FF03C0EAFFECCF0C
:101BE00094FDED52EFCF93FD84CD90FD86CD92FD17
:101BF00085CD91FD0A0E966F8C0E956F0D0E986F28
:101C00008B0E976F000189DE0D018D6B8C6B88CD7B
:101C100003F087CDE9FF03C0EAFFECCF03F0ED52FC
:101C2000EFCF01F08D51035C2FE303E101508C5D98
:101C30002BE2910E8C25016E0A0E8D21036E01C0E0
:101C400090FD916F8C518925016E8D518A21036E13
:101C500001C0E9FFEA6EEFCF9FFD000155DE91CD97
:101C6000EAFF90CDE9FF01C0EFFF0D018C518925FE
:101C7000016E8D518A2101C0E9FFEA6EEF508B277A
:101C80008C2BD8B48D2BC3D78B51FF0A8E6F9F6FCF
:101C900000013ADE4BDF010E016E12007ECD7FFDAA
:101CA0000D01816B010E806F8C0E846F866B856BCE
:101CB0000D0E886F800E876F0D0E8A6F7F0E896FF5
:101CC000000186DF015012000B0114B901D01FD0B2
:101CD0000A01D46B200ED56F0A0ECF6FD40ECE6FD3
:101CE0000D017F69FA0E7E6F816B020E806FCFCA85
:101CF00083FDCECA82FD000126DF01C0CCFAA0DD43
:101D00000A0E0D017E6F0001C9DF9ADD0B01000193
:101D100012000900F55213E0F6CF82FDF7CF83FDE4
:101D2000F8CF84FDF550A4A8FED70F011C6F82CD1B
:101D3000F6FF83CDF7FF84CDF8FF0001EAD712004C
:101D4000D36A800E9B6E646A4D0E006E002EFED725
:101D5000500ED36E9B6A646AB3EF0EF00B0114BD94
:101D600004D00001EDD707D00B011E0E0D01896FC5
:101D700000010EEC09F012000D018951016A885D25
:101D800003E288CD00F00CD0006A080E8A6F883715
:101D900000368951005CD8B0006E01368A2FF7D723
:101DA00000011200CDCDD0FDCCCDD2FDCBCDD1FDEB
:101DB0000D01CF5303E1CE51000816E2D2CD03F05E
:101DC000D1CDE9FF03C0EAFFD051EF5C05E1D1CDF1
:101DD00001F0D2CD02F00BD0D12BD8B4D22BCE5102
:101DE000D8B4CF07CE07E5D7000E016E026E000112
:101DF00012000D01CD51CF19800BD16FCDAF05D0A1
:101E0000CC1FCD1FCC2BD8B4CD2BCFAF05D0CE1F40
:101E1000CF1FCE2BD8B4CF2BCC51CE03F3CF01F0B4
:101E2000F4CF00F0CF03F3500026CD51CE03F35092
:101E30000020026ED1AF05D0011E021E012AD8B4C7
:101E4000022A000179EF10F00D01A46BA36B300E94
:101E5000A66F310EA76F320EA86F330EA96F340E26
:101E6000AA6F350EAB6F360EAC6F370EAD6F380EF6
:101E7000AE6F390EAF6F610EB06F620EB16F630E51
:101E8000B26F640EB36F650EB46F660EB56F670EFA
:101E9000B66F680EB76F690EB86F6A0EB96F6B0ECA
:101EA000BA6F6C0EBB6F6D0EBC6F6E0EBD6F6F0E9A
:101EB000BE6F700EBF6F710EC06F730EC16F740E68
:101EC000C26F750EC36F760EC46F770EC56F780E36
:101ED000C66F790EC76F7A0EC86FC96B99CD9EFD1C
:101EE00098CD9DFD9ECD03F09DCDE9FF03C0EAFF97
:101EF000EF50200804E19D2BD8B49E2BF3D79ECD44
:101F000003F09DCDE9FF03C0EAFFEF502D0809E083
:101F10009ECD03F09DCDE9FF03C0EAFFEF502B08F3
:101F20000BE19ECD03F09D519D2BD8B49E2BE96E05
:101F300003C0EAFFEF5001D02B0EA56F9CBF08D065
:101F40009C2D01D005D09CBF05D09C51240802E2F5
:101F50000CD184D09C534CE09C5110081FE19ECDC5
:101F600003F09DCDE9FF03C0EAFFEF50300816E112
:101F7000010E9D25E96E000E9E21EA6EEF50780855
:101F800009E0010E9D25E96E000E9E21EA6EEF50DC
:101F9000580804E1020E9D27000E9E239C5108085C
:101FA0000DE19ECD03F09DCDE9FF03C0EAFFEF50A8
:101FB000300804E1010E9D27000E9E239C5102086B
:101FC00016E19ECD03F09DCDE9FF03C0EAFFEF507F
:101FD00030080DE1010E9D25E96E000E9E21EA6E8E
:101FE000EF50620804E1020E9D27000E9E2336D0BA
:101FF0009ECD03F09DCDE9FF03C0EAFFEF5030080E
:1020000003E00A0E9C6F2AD0010E9D25E96E000E9A
:102010009E21EA6EEF50780809E0010E9D25E96ED9
:10202000000E9E21EA6EEF50580807E1100E9C6FDB
:10203000020E9D27000E9E2311D0010E9D25E96EF4
:10204000000E9E21EA6EEF50620806E1020E9C6FC0
:102050009D27000E9E2302D0080E9C6F9ECDA0FDF2
:102060009DCD9FFD9ECD03F09DCDE9FF03C0EAFF0E
:10207000EF50300804E19D2BD8B49E2BF3D79ECDB2
:1020800003F09DCDE9FF03C0EAFFEFCFCAFDCA51BF
:10209000400806E2CA515A0803E3CA51200901D098
:1020A000CA51CA6F0D0ECC6FA60ECB6FCACDCDFD37
:1020B000CF6B9CCDCEFDCEBFCF07000173DE02C03B
:1020C000A2FD01C0A1FD0D01A15302E1A25347E011
:1020D000036A9C51006EE8BE0306CA6F03C0CBFDC5
:1020E000A4CDCDFDA3CDCCFD03C0CFFDCE6F0001AF
:1020F00080D6A60E0D01A15D006E0D0EA259036ED5
:1021000000500124A36F03500220A46F9D2BD8B46C
:102110009E2B9ECD03F09DCDE9FF03C0EAFFEFCFDC
:10212000CAFDCA51400806E2CA515A0803E3CA511F
:10213000200901D0CA51CA6F0D0ECC6FA60ECB6F0D
:10214000CACDCDFDCF6B9CCDCEFDCEBFCF0700015C
:1021500029DE02C0A2FD01C0A1FDB5D70D019D5130
:102160009F5D16E19E51A05D13E10D019A519B11F7
:102170000BE09BCD03F09ACDE9FF03C0EAFF99CDB8
:10218000ECFFED5298CDEFFF000E016E026E1AD0FB
:10219000A5512D0805E1A31FA41FA32BD8B4A42B80
:1021A0009A519B110BE09BCD03F09ACDE9FF03C040
:1021B000EAFF9ECDECFFED529DCDEFFFA3CD01F0E8
:1021C000A4CD02F0000116EF11F084CD97FD0D01B2
:1021D00085518425975D17E28451975D036A870FC7
:1021E000016E0D0E032297518225E96E000E8321A8
:1021F000EA6EEFCF9AFD03C0EAFF01C0E9FF9ACD76
:10220000EFFF972BE5D78451975D036A870FE96E3F
:102210000D0E0320EA6EEF6A0D0E996F870E986F10
:102220009B6B9A6B86CD9CFD00010ED6015012006F
:102230008B8C080E016E00D00000018E10D0019E24
:102240000D0182330001D8B08B9CD8A08B8C018CFF
:1022500006D0019C012EF4D700D000008B9C1C0EF0
:10226000E96EE92EFED70000040001BEE8D701BCEC
:10227000F0D712000900F55210E0F6CF7CFDF7CF41
:102280007DFDF8CF7EFDF5CF82FDD2DF7CCDF6FF60
:102290007DCDF7FF7ECDF8FFEDD712000C016C511C
:1022A000010A000105E0030A06E0010A07E009D07F
:1022B000010EF66F08D0020EF66F05D0030EF66F12
:1022C00002D0010EF66FF250006EF29E636A310E7C
:1022D000626EF6C061FF7F9C7F9E7F840F01550E6A
:1022E0007E6EAA0E7E6E7F827FB2FED77F940050F4
:1022F000F212000183EF26F0509C0C016C51000A91
:1023000000011BE0010A1CE0030A1DE0010A1EE0B7
:10231000070A1FE0010A20E0030A21E0010A22E087
:102320000F0A23E0010A24E0030A25E0010A26E05F
:10233000070A27E0010A28E02AD0340E696F29D065
:10234000230E696F26D0240E696F23D0250E696F86
:1023500020D0270E696F1DD0280E696F1AD02B0E62
:10236000696F17D02E0E696F14D02F0E696F11D0C0
:10237000310E696F0ED0320E696F0BD0330E696F5C
:1023800008D0350E696F05D0450E696F02D0340E46
:10239000696F6951340801E1508C4DEF1BF0D36A2D
:1023A000800E9B6E646A070E006E002EFED7000042
:1023B000500ED36E9B6A646AE3EF11F00B0114BDFB
:1023C00004D00001ECD707D00B01030E0D01896F7B
:1023D00000010EEC09F0F6EF11F0899CA3A504D0E2
:1023E00053EC09F08C8601D08C96E8D71200D36AA2
:1023F000800E9B6E646A640E0D01836F0001E7EC32
:1024000008F0500ED36E9B6A646A0CEF12F00B0159
:1024100014BD04D00001EBD707D00B01640E0D01F1
:10242000896F00010EEC09F012000D0180512008A7
:1024300007E0816F7C377D377E377F37812FFAD772
:102440008D868D94080E826F822FFED780CD81FD00
:102450008D967FAF8D987FBF8D887C377D377E3797
:102460007F378D86003601360236033684AA009007
:1024700084BA0080812FECD7080E826F822FFED79E
:102480008D8400011200A385A8DF959C8C8C030E1F
:102490000F01236F246FCE0E256FC196C198C19A8C
:1024A000929089908D868D840001B1DF0D017F6B44
:1024B0007E6B7D6B100E7C6F080E806F0001B5DFA8
:1024C000015000C080F004EC0CF08C8404EC0CF0A3
:1024D0008C9404EC0CF01200F651010A05E0030A9A
:1024E0000FE0010A19E025D0036A0D017D51010FAB
:1024F000E96E010E0320EA6EEFCF01F025D024D063
:10250000036A0D017D51510FE96E010E0320EA6E41
:10251000EFCF01F019D018D0036A0D017D51510F92
:10252000E96E010E0320EA6EEFCF01F00DD00CD062
:102530000001036A0D017D51010FE96E010E0320B8
:10254000EA6EEFCF01F000D0000112000D018D51B5
:10255000200807E08E6F89378A378B378C378E2FAC
:10256000FAD78D868D94080E8F6F8F2FFED78DCD65
:102570008EFD8D968CAF8D988CBF8D8889378A376C
:102580008B378C378D86003601360236033684AAA7
:10259000009084BA00808E2FECD7080E8F6F8F2F9B
:1025A000FED78D8400011200D36A800E9B6E646A90
:1025B000040E006E002EFED700D0500ED36E9B6A24
:1025C000646AE8EF12F00B0114BD04D00001ECD7EF
:1025D00007D00B01020E0D01896F00010EEC09F00E
:1025E00012000D018C6BB80E8B6F020E8A6F480EB5
:1025F000896F180E8D6F0001A9DF015000C080F0B7
:10260000E2DF0D018C6B8B6B460E8A6F896B100EAF
:102610008D6F00019BDF015000C080F0D4DF0D0101
:10262000866BA60E856F846B836B7E5183257F6FCF
:10263000000E8421806F000E8521816F000E86219F
:10264000826F82CD8CFD81CD8BFD80CD8AFD7FCDCB
:1026500089FD180E8D6F000179DF270E0D01886F3F
:10266000100E876F0400000153EC09F00D01875133
:10267000D8B48807870783AE03D087518811F2E169
:10268000885303E18751000802E24F9401D04F8440
:10269000000153EC09F012007CCD7DFD1DDF01C06F
:1026A0007DFD01C07EFD9DDF120004EC0CF00D01EC
:1026B0007F6B7E6B7D6B120E7C6F080E806F00014E
:1026C000B4DE015000C080F08D968D948980928098
:1026D00089808C9C0B0114BD04D0000155EC0CF0DA
:1026E0000B01030E0F01236F246FCF0E256FC196D0
:1026F000C198C19A0001A3951200FE0E0D01846FCE
:102700007FCD86FD7ECD85FD81CD88FD80CD87FD89
:1027100083CD8AFD82CD89FD0001E8EC0DF00150EA
:1027200012000D01826B82510F0817E38251040DD4
:10273000F350036A450FE96E0A0E0320EA6EEE526B
:102740007CCDECFF7DCDECFFED52ED52ED527ECD18
:10275000EFFF7FCDECFF822BE6D781CD8AFA80CDCB
:102760008BFA000112000D0181BF11D00F0E006E17
:10277000803900160A0E005C03E2300E002602D0FB
:102780008151002600C082FD000152DD0D010F0EB7
:1027900080170A0E805D02E2300E02D0819F8151C7
:1027A000802780CD82FD000143DD12007FCD80FDBA
:1027B000370E0D01816F0001D6DF200E0D01826FF3
:1027C000000136DD120060EC09F08FEC09F0938E09
:1027D0000000938C00008A9E939E00008A9C939C2C
:1027E000640E0D01836F000166EC09F0020EA16F0B
:1027F0001B0EA06FA1C07DFDA0C07CFD020E0D01CF
:102800007E6F0001D2EC09F0939E0000938C81ACA6
:10281000FED7000000D00000938E0000938E0000D1
:10282000938C00008A9E939E00008A9C939C640E69
:102830000D01836F000166EC09F0010EA16FA10E7E
:10284000A06FA1C07DFDA0C07CFD100E0D017E6FAC
:102850000001D2EC09F0939E0000938C81ACFED76E
:10286000000000D00000938E0000938E0000938C37
:1028700000008A9E939E00008A9C939C640E0D012A
:10288000836F000166EC09F04DB811D050B40FD041
:10289000010EA16FFD0EA06FA1C07DFDA0C07CFD4B
:1028A0000A0E0D017E6F0001D2EC09F00ED0020E6F
:1028B000A16F070EA06FA1C07DFDA0C07CFD0A0E18
:1028C0000D017E6F0001D2EC09F0939E0000938C05
:1028D00081ACFED7000000D00000938E0000938EE4
:1028E0000000938C00008A9E939E00008A9C939C1B
:1028F000660E0D01836F000166EC09F0020EA16FF8
:102900001B0EA06FA1C07DFDA0C07CFD020E0D01BD
:102910007E6F0001D2EC09F0939E0000938C81AC95
:10292000FED7000000D00000938E0000938E0000C0
:10293000938C00008A9E939E00008A9C939C660E56
:102940000D01836F000166EC09F0010EA16FA10E6D
:10295000A06FA1C07DFDA0C07CFD100E0D017E6F9B
:102960000001D2EC09F0939E0000938C81ACFED75D
:10297000000000D00000938E0000938E0000938C26
:1029800000008A9E939E00008A9C939C660E0D0117
:10299000836F000166EC09F04DB811D050B40FD030
:1029A000010EA16FFD0EA06FA1C07DFDA0C07CFD3A
:1029B0000A0E0D017E6F0001D2EC09F00ED0020E5E
:1029C000A16F070EA06FA1C07DFDA0C07CFD0A0E07
:1029D0000D017E6F0001D2EC09F0939E0000938CF4
:1029E00081ACFED7000000D00000938E00001200E2
:1029F0000D017F6B0A0E806F938E0000938C000098
:102A00008A9E939E00008A9C939C100E006E002E5E
:102A1000FED700007ECD83FD000166EC09F00D01BC
:102A20007F6B80517F5D11E27DCD03F07C517C2B6B
:102A3000D8B47D2BE96E03C0EAFFEFCF83FD000120
:102A400066EC09F00D017F2BECD7939E0000938C70
:102A500081ACFED7000000D00000938E0000000182
:102A60001200938E0000938C00008A9E939E0000BB
:102A70008A9C939C100E006E002EFED700007CCD29
:102A800083FD66EC09F0010E0D01836F000166EC19
:102A900009F0150E0D01836F000166EC09F0939E9D
:102AA0000000938C81ACFED7000000D00000938E14
:102AB000000012000D01806B200E816F938E0000CC
:102AC000938C00008A9E939E00008A9C939C100E1B
:102AD000006E002EFED700007CCD83FD000166EC69
:102AE00009F04F0E0D01836F000166EC09F07FCDF8
:102AF00083FD66EC09F00D01806B8151805D11E270
:102B00007ECD03F07D517D2BD8B47E2BE96E03C0C2
:102B1000EAFFEFCF83FD000166EC09F00D01802B89
:102B2000ECD7939E0000938C81ACFED7000000D0C0
:102B30000000938E000000011200938E0000938C21
:102B400000008A9E939E00008A9C939C100E006E4B
:102B5000002EFED700007CCD83FD66EC09F04C0E04
:102B60000D01836F000166EC09F07DCD83FD66ECFD
:102B700009F0939E0000938C81ACFED7000000D03A
:102B80000000938E000012001EDE010E0D017D6F0D
:102B9000CB0E7C6F640E7E6F00012ADF010E0D01EB
:102BA0007D6FCB0E7C6F660E7E6F000121DF640EA1
:102BB0000D017C6F000155DF640E0D017C6F060E68
:102BC0007E6F630E7D6F7F6B000174DF640E0D01FD
:102BD0007C6F010E7D6F0001B0DF660E0D017C6F12
:102BE00000013FDF660E0D017C6F060E7E6F830EC7
:102BF0007D6F7F6B00015EDF660E0D017C6F010E45
:102C00007D6F00019ADFA38181EF21F08D80938E8B
:102C10000000938C00008A9E939E00008A9C939CE7
:102C2000640E0D01836F000166EC09F0010E0D01C9
:102C3000836F000166EC09F02A0E0D01836F00011D
:102C400066EC09F0939E0000938C81ACFED70000E7
:102C500000D00000938E0000938E0000938C000043
:102C60008A9E939E00008A9C939C640E0D01836F44
:102C7000000166EC09F00D01836B000166EC09F0C0
:102C80006A0E0D01836F000166EC09F0939E00004F
:102C9000938C81ACFED7000000D00000938E000022
:102CA000938E0000938C00008A9E939E00008A9C65
:102CB000939C660E0D01836F000166EC09F0010E16
:102CC0000D01836F000166EC09F02A0E0D01836F80
:102CD000000166EC09F0939E0000938C81ACFED756
:102CE000000000D00000938E0000938E0000938CB3
:102CF00000008A9E939E00008A9C939C660E0D01A4
:102D0000836F000166EC09F00D01836B000166EC36
:102D100009F06A0E0D01836F000166EC09F0939EC5
:102D20000000938C81ACFED7000000D00000938E91
:102D300000001200D36A800E9B6E646A040E0D01BF
:102D40007C6FFA0E836F0001E7EC08F00D017C2F19
:102D5000F8D7500ED36E9B6A646A0001B5EF16F087
:102D60000B0114BD04D00001E5D70DD00B01040EFA
:102D70000D017C6FFA0E896F00010EEC09F00D0158
:102D80007C2FF8D700011200938E938C8D9053EC1A
:102D900009F01200F250006EF29E636A340E626E09
:102DA000616A7F9C7F9E7F840F01550E7E6EAA0E06
:102DB0007E6E7F827FB2FED77F940050F212F2CFF8
:102DC00000F0F29E636A350E626E616A7F9C7F9EA0
:102DD0007F84550E7E6EAA0E7E6E7F827FB2FED7F6
:102DE0007F940050F212F2CF00F0F29E030E636E59
:102DF000100E626E616A7F9C7F9E7F84550E7E6E90
:102E0000AA0E7E6E7F827FB2FED77F940050F212B0
:102E1000F2CF00F0F29E030E636E200E626E616AC6
:102E20007F9C7F9E7F84550E7E6EAA0E7E6E7F8273
:102E30007FB2FED77F940050F2120001D5EF21F04F
:102E4000C2DC010E0D017D6FCB0E7C6F640E7E6FB8
:102E50000001CEDD010E0D017D6FCB0E7C6F660E85
:102E60007E6F0001C5DD640E0D017C6F0001F9DD90
:102E7000640E0D017C6F060E7E6FA30E7D6F7F6B5F
:102E8000000118DE640E0D017C6F010E7D6F0001E4
:102E900054DE660E0D017C6F0001E3DD660E0D0150
:102EA0007C6F060E7E6FC30E7D6F7F6B000102DEAE
:102EB000660E0D017C6F010E7D6F00013EDEA38169
:102EC0001200D36A800E9B6E646A0C0E0D017C6F3B
:102ED000FA0E836F0001E7EC08F00D017C2FF8D7A4
:102EE000500ED36E9B6A646A00017CEF17F00B01F1
:102EF00014BD04D00001E5D70DD00B010C0E0D015F
:102F00007C6FFA0E896F00010EEC09F00D017C2F29
:102F1000F8D700011200D36A800E9B6E646A080E17
:102F20000D01826FFA0E836F0001E7EC08F00D01CE
:102F3000822FF8D7500ED36E9B6A646A0001A6EF09
:102F400017F00B0114BD04D00001E5D70DD00B0123
:102F5000080E0D01826FFA0E896F00010EEC09F068
:102F60000D01822FF8D700011200F250006EF29E80
:102F7000636A360E626E616A7F9C7F9E7F840F015A
:102F8000550E7E6EAA0E7E6E7F827FB2FED77F9434
:102F90000050F212F2CF00F0F29E636A370E626EBA
:102FA000616A7F9C7F9E7F84550E7E6EAA0E7E6E28
:102FB0007F827FB2FED77F940050F21200017A6BBD
:102FC000796B12008E849784030E0F01236F246F98
:102FD000CF0E256FC196C198C19A000107EC12F07F
:102FE000120081CD03F00D0180CDE9FF03C0EAFF9F
:102FF000ECCF94FDED52EFCF93FD90697FCD92FD24
:103000007ECD91FD0A0E966F8C0E956F0D0E986F0A
:10301000840E976F00018DEC0CF00D01866B856BB3
:1030200081CD03F080CDE9FF03C0EAFFECCF03F0D0
:10303000ED52EFCF01F08651035C27E303E101502D
:10304000855D23E285518225016E86518321036EC1
:1030500001C087FD886FDD0E9F6F000184EC0CF0CE
:1030600088CDEAFF87CDE9FF01C0EFFF0D01855153
:103070008225016E8651832101C0E9FFEA6EEF507F
:103080008427852BD8B4862BCBD7DD0E9F6F00010C
:1030900084EC0CF001C087FD0D018451FF0A015C36
:1030A00011E081CD03F080CDE9FF03C0EAFFEC6AB7
:1030B000ED52EF6A000196EC0DF0000E016E07D0A4
:1030C00006D00D01000196EC0DF0010E016E12000C
:1030D0000B0114B901D024D0080E0A01D46F030EDD
:1030E000D56F0A0ECF6FD40ECE6F0D017F69FA0E29
:1030F0007E6F816B020E806FCFCA83FDCECA82FDC8
:103100000001A3EC0DF001C0CCFA20EC0CF00A0E8B
:103110000D017E6F00014EEC0EF020EC0CF00B0167
:10312000000112000C016E6B010E6D6F0D0E0A0195
:10313000D16F7C0ED06F0D017F6B510E7E6F0C0E28
:10314000816F6D0E806FD1CA83FDD0CA82FD0001F0
:1031500048DF01C0CCFA0A01D0CAE9FFD1CAEAFFB0
:10316000EFCF6FFC0C016F51040803E06F510508AD
:1031700014E17EAD06D07E9D000164EC0EF00CD013
:103180000C014DBC02D04DAA05D0000164EC0EF03C
:1031900003D00C0100019CDF0C01000112007CCD6A
:1031A0007DFD0D017F6B010E7E6F8E0E846F866B31
:1031B000856B0D0E886F7E0E876F0D0E8A6F7D0EEC
:1031C000896F0001E8EC0DF0015012000B0114BDF5
:1031D00006D00C017B9B7F930B01149B37D00C0115
:1031E0007BB102D07BA303D00B0130D00C010001D6
:1031F00099DF0C016F51040803E06F51050803E1EA
:10320000000190DF0C016F5107081FE06F510608A5
:103210001CE06F51040819E06F51050816E00B0E11
:103220000D017C6F0001BBDF0B01149B0F011D51D1
:10323000A39A229F2299219B8C98000155EC0CF0B7
:103240000B01149D0C017B9B7F930B01000112006D
:103250000D01886B886B88510F0828E388518425FD
:10326000896F000E85218A6F88518625E96E000ED0
:103270008721EA6EEFCF8BFDF250006EF29E8ACD71
:1032800063FF89CD62FF8BCD61FF7F9C7F9E7F8432
:103290000F01550E7E6EAA0E7E6E7F827FB2FED724
:1032A0007F940050F2120D01882BD5D70001120037
:1032B0000C01DF2B0D016BCDE9FF6CCDEAFFEF5068
:1032C000320808E10C017C2D02D0030E7C6F86EFE2
:1032D00026F00D016BCDE9FF6CCDEAFFEF502D0814
:1032E00011E1010E6B25E96E000E6C21EA6EEF50C4
:1032F000310808E10C017C2D02D0020E7C6F86EFB4
:1033000026F00D016D510108D8B085EF26F06BCD88
:10331000E9FF6CCDEAFFEFCF6FFD010E6B25E96E83
:10332000000E6C21EA6EEFCF6EFD6E51006E6F5194
:10333000036E430E035C06E14F0E005C0001D8B43F
:1033400009D10D01420E035C06E1520E005C000142
:10335000D8B402D10D01470E035C06E14C0E005CAF
:103360000001D8B40ED10D01540E035C06E1530EDA
:10337000005C0001D8B407D10D01530E035C06E1D7
:10338000490E005C0001D8B426D10D014C0E035C3F
:1033900006E1410E005C0001D8B452D10D01530E7C
:1033A000035C06E14C0E005C0001D8B45FD10D0156
:1033B0004E0E035C06E1490E005C0001D8B49ED1BC
:1033C0000D014D0E035C06E14B0E005C0001D8B40C
:1033D0006DD20D01540E035C07E1490E005C000143
:1033E000D8B4F2EF1FF00D01430E035C07E14B0E62
:1033F000005C0001D8B40AEF21F00D01430E035C1C
:1034000007E1490E005C0001D8B40CEF21F00D017A
:10341000570E035C07E14E0E005C0001D8B428EFA4
:1034200021F00D01570E035C07E1530E005C000113
:10343000D8B44CEF21F00D01490E035C07E1440EB6
:10344000005C0001D8B47DEF21F00D01480E035C53
:1034500007E1500E005C0001D8B489EF21F00D01A6
:10346000500E035C07E14E0E005C0001D8B4DDEFA6
:1034700021F00D01520E035C07E1450E005C0001D6
:10348000D8B459EF23F00D01420E035C07E1420E60
:10349000005C0001D8B4A6EF23F00D01430E035CDD
:1034A00007E1430E005C0001D8B4C4EF23F00D0126
:1034B0004D0E035C07E1430E005C0001D8B4E5EF5C
:1034C00023F00D01430E035C07E1570E005C000181
:1034D000D8B4EDEF23F00D01530E035C07E1420E6B
:1034E000005C0001D8B42FEF24F00D014D0E035CF9
:1034F00007E1520E005C0001D8B45BEF24F00D012F
:10350000440E035C07E14D0E005C0001D8B47AEF75
:1035100024F00D01440E035C07E1500E005C000135
:10352000D8B466EF25F00D01530E035C07E1560E8B
:10353000005C0001D8B479EF25F00D014D0E035C5D
:1035400007E1440E005C0001D8B46EEF26F00D01D7
:1035500082EF26F083EF26F06CCD83FD6BCD82FDEC
:10356000030E0D01846F020E856F100E866F000131
:10357000E5EC10F001C070FD70CD7AFCA38183EF03
:1035800026F083EF26F06CCD83FD6BCD82FD030E1C
:103590000D01846F010E856F100E866F0001E5EC42
:1035A00010F001C070FD0D01702D12D04DBC10D077
:1035B0000C0166AF02D00D010BD04DAA02D00D0157
:1035C00007D066AD02D00D0103D04D86669B0D017C
:1035D000000183EF26F06CCD83FD6BCD82FD030EE1
:1035E0000D01846F010E856F100E866F0001E5ECF2
:1035F00010F001C070FD0D01702D1FD04DBC0CD01E
:103600000C0166AF02D00D0107D04DAA02D00D010A
:1036100003D066AD11D00D010C017F810001FD8D3D
:103620000C016699000EF66E090EF76E000EF86E2C
:1036300000013AEC11F00C010D01000183EF26F0BE
:103640006CCD83FD6BCD82FD030E0D01846F010EE9
:10365000856F100E866F0001E5EC10F001C070FD63
:1036600070CD6CFC4EEF11F083EF26F06CCD83FD36
:103670006BCD82FD030E0D01846F010E856F100E60
:10368000866F0001E5EC10F001C070FD70CD6CFCA0
:10369000A3A501D0A3877CEF11F041EC09F043EC26
:1036A00012F069C07CFD4CEC13F0470E0D017C6FED
:1036B00000014CEC13F0390E0D017C6F00014CEC55
:1036C00013F0F250006EF29E636A270E626E69C0BC
:1036D00061FF7F9C7F9E7F840F01550E7E6EAA0E38
:1036E0007E6E7F827FB2FED77F940050F21200017F
:1036F000A3B702D055EC13F083EF26F06CCD83FD19
:103700006BCD82FD030E0D01846F020E856F100ECE
:10371000866F0001E5EC10F001C072FDF250006E02
:10372000F29E636AE00E626E72CD61FF7F9C7F9EA7
:103730007F840F01550E7E6EAA0E7E6E7F827FB251
:10374000FED77F940050F2126CCD83FD6BCD82FDCD
:10375000050E0D01846F020E856F100E866F00013D
:10376000E5EC10F001C073FDF250006EF29E636A4A
:10377000E10E626E73CD61FF7F9C7F9E7F840F019F
:10378000550E7E6EAA0E7E6E7F827FB2FED77F942C
:103790000050F2120A01CECAE9FFCFCAEAFF020EB8
:1037A000EF6E010ECE25E96E000ECF21EA6EF2CF4C
:1037B0007EFDF29E636AE10E626E7F9C7F9E7F803B
:1037C00061500D017EBFF28EEF6ECECA01F0CFCAFE
:1037D00003F001C07CFD0D0103C07DFD7F6B640E15
:1037E0007E6F0C0E816F6D0E806F03C083FD01C074
:1037F00082FD00017DEC13F001C0CCFAF2CF7CFD1C
:10380000F29E636AE00E626E7F9C7F9E7F806150B5
:103810000D017CBFF28E726FF2CF7CFDF29E636A67
:10382000E10E626E7F9C7F9E7F8061507CBFF28E36
:10383000736F72CD8AF073CD89F0180EF66E090E93
:10384000F76E000EF86E00013AEC11F072CDD4FA6A
:1038500073CDD5FA0A0E0A01CF6FD40ECE6F0C01CC
:103860006E6B020E6D6F0D017F6B640E7E6F0C0E22
:10387000816F6D0E806FCFCA83FDCECA82FD0001BD
:103880007DEC13F001C0CCFA8AC07DFD89C07CFDBF
:103890008AC07FFD89C07EFD0A0E0D01806F020E79
:1038A000816F000191EC13F083EF26F06CCD83FD66
:1038B0006BCD82FD030E0D01846F020E856F100E1D
:1038C000866F0001E5EC10F001C070FDF250006E53
:1038D000F29E020E636E100E626E70CD61FF7F9CD1
:1038E0007F9E7F840F01550E7E6EAA0E7E6E7F82B4
:1038F0007FB2FED77F940050F2126CCD83FD6BCD6A
:1039000082FD050E0D01846F020E856F100E866F0D
:103910000001E5EC10F001C070FDF250006EF29E67
:10392000020E636E110E626E70CD61FF7F9C7F9EF2
:103930007F840F01550E7E6EAA0E7E6E7F827FB24F
:10394000FED77F940050F2126CCD83FD6BCD82FDCB
:10395000070E0D01846F020E856F100E866F000139
:10396000E5EC10F001C070FDF250006EF29E020E08
:10397000636E120E626E70CD61FF7F9C7F9E7F84AE
:103980000F01550E7E6EAA0E7E6E7F827FB2FED72D
:103990007F940050F2126CCD83FD6BCD82FD090E39
:1039A0000D01846F020E856F100E866F0001E5EC2D
:1039B00010F001C070FDF250006EF29E020E636EB8
:1039C000130E626E70CD61FF7F9C7F9E7F840F011E
:1039D000550E7E6EAA0E7E6E7F827FB2FED77F94DA
:1039E0000050F2126CCD83FD6BCD82FD0B0E0D01EC
:1039F000846F020E856F100E866F0001E5EC10F0EB
:103A000001C070FDF250006EF29E020E636E140E45
:103A1000626E70CD61FF7F9C7F9E7F840F01550E8B
:103A20007E6EAA0E7E6E7F827FB2FED77F9400509C
:103A3000F2126CCD83FD6BCD82FD0D0E0D01846FF6
:103A4000020E856F100E866F0001E5EC10F001C0CC
:103A500070FDF250006EF29E020E636E150E626EE5
:103A600070CD61FF7F9C7F9E7F840F01550E7E6E1F
:103A7000AA0E7E6E7F827FB2FED77F940050F21234
:103A80006CCD83FD6BCD82FD0F0E0D01846F020E98
:103A9000856F100E866F0001E5EC10F001C070FD1F
:103AA000F250006EF29E020E636E160E626E70CDC4
:103AB00061FF7F9C7F9E7F840F01550E7E6EAA0E54
:103AC0007E6E7F827FB2FED77F940050F2126CCD63
:103AD00083FD6BCD82FD110E0D01846F020E856F8B
:103AE000100E866F0001E5EC10F001C070FDF25081
:103AF000006EF29E020E636E170E626E70CD61FF55
:103B00007F9C7F9E7F840F01550E7E6EAA0E7E6E77
:103B10007F827FB2FED77F940050F2126CCD83FD7E
:103B20006BCD82FD130E0D01846F020E856F100E9A
:103B3000866F0001E5EC10F001C070FDF250006EE0
:103B4000F29E020E636E180E626E70CD61FF7F9C56
:103B50007F9E7F840F01550E7E6EAA0E7E6E7F8241
:103B60007FB2FED77F940050F2126CCD83FD6BCDF7
:103B700082FD150E0D01846F020E856F100E866F8B
:103B80000001E5EC10F001C070FDF250006EF29EF5
:103B9000020E636E190E626E70CD61FF7F9C7F9E78
:103BA0007F840F01550E7E6EAA0E7E6E7F827FB2DD
:103BB000FED77F940050F2126CCD83FD6BCD82FD59
:103BC000170E0D01846F020E856F100E866F0001B7
:103BD000E5EC10F001C070FDF250006EF29E020E96
:103BE000636E1A0E626E70CD61FF7F9C7F9E7F8434
:103BF0000F01550E7E6EAA0E7E6E7F827FB2FED7BB
:103C00007F940050F2126CCD83FD6BCD82FD190EB6
:103C10000D01846F020E856F100E866F0001E5ECBA
:103C200010F001C070FDF250006EF29E020E636E45
:103C30001B0E626E70CD61FF7F9C7F9E7F840F01A3
:103C4000550E7E6EAA0E7E6E7F827FB2FED77F9467
:103C50000050F2126CCD83FD6BCD82FD1B0E0D0169
:103C6000846F020E856F100E866F0001E5EC10F078
:103C700001C070FDF250006EF29E020E636E1C0ECB
:103C8000626E70CD61FF7F9C7F9E7F840F01550E19
:103C90007E6EAA0E7E6E7F827FB2FED77F9400502A
:103CA000F2126CCD83FD6BCD82FD1D0E0D01846F74
:103CB000020E856F100E866F0001E5EC10F001C05A
:103CC00070FDF250006EF29E020E636E1D0E626E6B
:103CD00070CD61FF7F9C7F9E7F840F01550E7E6EAD
:103CE000AA0E7E6E7F827FB2FED77F940050F212C2
:103CF0006CCD83FD6BCD82FD1F0E0D01846F020E16
:103D0000856F100E866F0001E5EC10F001C070FDAC
:103D1000F250006EF29E020E636E1E0E626E70CD49
:103D200061FF7F9C7F9E7F840F01550E7E6EAA0EE1
:103D30007E6E7F827FB2FED77F940050F2126CCDF0
:103D400083FD6BCD82FD210E0D01846F020E856F08
:103D5000100E866F0001E5EC10F001C070FDF2500E
:103D6000006EF29E020E636E1F0E626E70CD61FFDA
:103D70007F9C7F9E7F840F01550E7E6EAA0E7E6E05
:103D80007F827FB2FED77F940050F2120C017B95A8
:103D9000300EF66E090EF76E000EF86E00013AEC6A
:103DA00011F00D01716B71510F081DE3100E71259B
:103DB0007C6F020E7D6FD8B07D2BF2CF7EFDF29E20
:103DC0007DCD63FF7CCD62FF7F9C7F9E7F806150B5
:103DD0007EBFF28E7C6F7CCD7FFD0001D6EC13F0B0
:103DE0000D01712BE0D70D0E826F000118EC11F060
:103DF000F2CF7CFDF29E020E636E180E626E7F9C07
:103E00007F9E7F8061500D017CBFF28E7D6FF250EE
:103E1000006EF29E636AD00E626E7DCD61FF7F9C64
:103E20007F9E7F840F01550E7E6EAA0E7E6E7F826E
:103E30007FB2FED77F940050F212F2CF7CFDF29E4B
:103E4000020E636E170E626E7F9C7F9E7F806150B4
:103E50000D017CBFF28E7D6FF250006EF29E636AA0
:103E6000D10E626E7DCD61FF7F9C7F9E7F840F01AE
:103E7000550E7E6EAA0E7E6E7F827FB2FED77F9435
:103E80000050F2124C0EF66E090EF76E000EF86E30
:103E900000013AEC11F0F2CF7CFDF29E636AD00E85
:103EA000626E7F9C7F9E7F8061500D017CBFF28E91
:103EB0000A01D46FF2CF7CFDF29E636AD10E626E6E
:103EC0007F9C7F9E7F8061500D017CBFF28E0A0136
:103ED000D56F0A0ECF6FD40ECE6F0C016E6B020E33
:103EE0006D6F0D017F6B620E7E6F0C0E816F6D0E1C
:103EF000806FCFCA83FDCECA82FD00017DEC13F036
:103F000001C0CCFA600EF66E090EF76E000EF86E68
:103F10003AEC11F00D01716B71510F081EE3036A49
:103F20007151D40FE96E0A0E0320EA6E100E71254E
:103F30007E6F020E7F6FD8B07F2BF2CF80FDF29E96
:103F40007FCD63FF7ECD62FF7F9C7F9E7F8061502F
:103F500080BFF28EEF6E712BDFD77A0EF66E090EF0
:103F6000F76E000EF86E00013AEC11F00D01716B66
:103F700071510F080FE3036A7151D40FE96E0A0EF5
:103F80000320EA6EEFCF7FFD0001D6EC13F00D01A8
:103F9000712BEED70D0E826F000118EC11F0940E0C
:103FA000F66E090EF76E000EF86E3AEC11F00A0E7E
:103FB0000A01CF6FD40ECE6F0C016E6B100E6D6FB9
:103FC0000D017F6B7E6B0C0E816F6D0E806FCFCA03
:103FD00083FDCECA82FD00017DEC13F001C0CCFA56
:103FE00083EF26F06CCD83FD6BCD82FD030E0D01BA
:103FF000846F020E856F100E866F0001E5EC10F0E5
:1040000001C072FD72CD79FCF250006EF29E020E7C
:10401000636E400E626E79CC61FF7F9C7F9E7F84D1
:104020000F01550E7E6EAA0E7E6E7F827FB2FED786
:104030007F940050F2126CCD83FD6BCD82FD050E96
:104040000D01846F020E856F100E866F0001E5EC86
:1040500010F001C073FD73CD78FCF250006EF29E3B
:10406000020E636E410E626E78CC61FF7F9C7F9E74
:104070007F840F01550E7E6EAA0E7E6E7F827FB208
:10408000FED77F940050F2126CCD83FD6BCD82FD84
:10409000070E0D01846F020E856F100E866F0001F2
:1040A000E5EC10F001C074FD74CD77FCF250006EA9
:1040B000F29E020E636E420E626E77CC61FF7F9CB1
:1040C0007F9E7F840F01550E7E6EAA0E7E6E7F82CC
:1040D0007FB2FED77F940050F2126CCD83FD6BCD82
:1040E00082FD090E0D01846F020E856F100E866F22
:1040F0000001E5EC10F001C075FD75CD76FCF250C5
:10410000006EF29E020E636E430E626E76CC61FF0D
:104110007F9C7F9E7F840F01550E7E6EAA0E7E6E61
:104120007F827FB2FED77F940050F21279CC7BFD64
:1041300078CC7AFD77CC79FD76CC78FD0C017E9B2E
:104140000D017B51550823E2FF0A0DE17A51D30896
:104150001EE2FF0A08E17951DA0819E2FF0A03E1D9
:104160007851800814E27B518F0811E307E17A51FE
:1041700042080DE303E179511E0809E379CCD4FA32
:1041800078CCD5FA77CCD6FA76CCD7FA09D00C0110
:104190007E8B550E0A01D46FD56FD66FD76F0D0188
:1041A0000A0E0A01CF6FD40ECE6F0C016E6B040E97
:1041B0006D6F0D017F6B9A0E7E6F0C0E816F6D0E11
:1041C000806FCFCA83FDCECA82FD00017DEC13F063
:1041D00001C0CCFA1C0E0A01D46F200ED56F0A0E56
:1041E000CF6FD40ECE6F0C016E6B020E6D6F0D0192
:1041F0007F6BA00E7E6F0C0E816F6D0E806FCFCA2D
:1042000083FDCECA82FD00017DEC13F001C0CCFA23
:1042100083EF26F083EF26F06CCD83FD6BCD82FD1E
:10422000030E0D01846F010E856F100E866F000165
:10423000E5EC10F001C070FD0C01716B0D01702DEB
:1042400004D0080E0C01716F0D01000183EF26F000
:104250000C0166BF1ED04DBC1CD066BD1AD04DBA35
:1042600018D04DB616D066BB14D04DB412D00B0189
:1042700014850C017B830A0E0001F86FB20EF66EF6
:10428000090EF76E000EF86E89EC0EF042EC0CF0A1
:104290000C01000183EF26F06CCD83FD6BCD82FD18
:1042A000030E0D01846F010E856F100E866F0001E5
:1042B000E5EC10F001C070FD0D017051000A000125
:1042C00007E0010A08E0030A0AE0010A0CE010D046
:1042D0000C01726B0FD0010E0C01726F0BD0020E2D
:1042E0000C01726F07D0030E0C01726F03D0000136
:1042F0000C01726B000183EF26F041EC09F0C4EF72
:1043000015F006EC16F0B0EC16F0C4EC16F083EFE6
:1043100026F06CCD83FD6BCD82FD030E0D01846F05
:10432000010E856F100E866F0001E5EC10F001C0E4
:1043300070FD0D017051000A000103E0010A04E064
:1043400037D00C01736B36D0010E0C01736FF25035
:10435000006EF29E636A330E626EA70E616E7F9CE2
:104360007F9E7F840F01550E7E6EAA0E7E6E7F8229
:104370007FB2FED77F940050F212F2CF00F0F29E8F
:10438000030E636E626A080E616E7F9C7F9E7F845F
:10439000550E7E6EAA0E7E6E7F827FB2FED77F9410
:1043A0000050F2120001CAEF16F00C0103D0000118
:1043B0000C01736B000183EF26F06CCD83FD6BCD98
:1043C00082FD030E0D01846F010E856F100E866F46
:1043D0000001E5EC10F001C070FD0D017051000A04
:1043E000000103E0010A05E05FD1010E0C01736FCB
:1043F0005ED10C01736B000141EC09F020EC17F069
:1044000006EC16F077EC17F0C4EC16F0F250006EE4
:10441000F29E636AE00E626E020E616E7F9C7F9E6A
:104420007F840F01550E7E6EAA0E7E6E7F827FB254
:10443000FED77F940050F212F2CF00F0F29E636A32
:10444000E10E626E200E616E7F9C7F9E7F84550E12
:104450007E6EAA0E7E6E7F827FB2FED77F94005062
:10446000F212F2CF00F0F29E010E636EF00E626E59
:10447000300E616E7F9C7F9E7F84550E7E6EAA0EED
:104480007E6E7F827FB2FED77F940050F212F2CF11
:1044900000F0F29E010E636EF10E626E300E616EE0
:1044A0007F9C7F9E7F84550E7E6EAA0E7E6E7F82DD
:1044B0007FB2FED77F940050F212F2CF00F0F29E4E
:1044C000010E636EF20E626E300E616E7F9C7F9EF7
:1044D0007F84550E7E6EAA0E7E6E7F827FB2FED7DF
:1044E0007F940050F212F2CF00F0F29E010E636E44
:1044F000F30E626E300E616E7F9C7F9E7F84550E40
:104500007E6EAA0E7E6E7F827FB2FED77F940050B1
:10451000F212F2CF00F0F29E010E636EF40E626EA4
:10452000300E616E7F9C7F9E7F84550E7E6EAA0E3C
:104530007E6E7F827FB2FED77F940050F212F2CF60
:1045400000F0F29E010E636EF50E626E300E616E2B
:104550007F9C7F9E7F84550E7E6EAA0E7E6E7F822C
:104560007FB2FED77F940050F212F2CF00F0F29E9D
:10457000010E636EF60E626E300E616E7F9C7F9E42
:104580007F84550E7E6EAA0E7E6E7F827FB2FED72E
:104590007F940050F212F2CF00F0F29E010E636E93
:1045A000F70E626E300E616E7F9C7F9E7F84550E8B
:1045B0007E6EAA0E7E6E7F827FB2FED77F94005001
:1045C000F212F2CF00F0F29E010E636EF80E626EF0
:1045D000300E616E7F9C7F9E7F84550E7E6EAA0E8C
:1045E0007E6E7F827FB2FED77F940050F212F2CFB0
:1045F00000F0F29E010E636EF90E626E300E616E77
:104600007F9C7F9E7F84550E7E6EAA0E7E6E7F827B
:104610007FB2FED77F940050F212F2CF00F0F29EEC
:10462000636A330E626E616A7F9C7F9E7F84550E43
:104630007E6EAA0E7E6E7F827FB2FED77F94005080
:10464000F212D20EF66E090EF76E000EF86E000131
:1046500089EC0EF042EC0CF0F20EF66E090EF76EDD
:10466000000EF86E89EC0EF0A1EC17F0F250006E1F
:10467000F29E030E636E626A616A7F9C7F9E7F84F6
:104680000F01550E7E6EAA0E7E6E7F827FB2FED720
:104690007F940050F2120001B5EC17F07DEC07F0AA
:1046A000FF000C0104D00001010E0C01736F00012A
:1046B0002AD36CCD83FD6BCD82FD030E0D01846F7B
:1046C000020E856F100E866F0001E5EC10F001C040
:1046D00072FD6CCD83FD6BCD82FD050E0D01846FE7
:1046E000020E856F100E866F0001E5EC10F001C020
:1046F00073FD72CD77FD73CD76FD0D017651A50862
:1047000023E177515A0820E1F250006EF29E030E29
:10471000636E626A080E616E7F9C7F9E7F840F01CC
:10472000550E7E6EAA0E7E6E7F827FB2FED77F947C
:104730000050F212898E000153EC09F0B5EC17F02D
:104740007DEC07F0FF000D010001DDD26CCD83FD93
:104750006BCD82FD030E0D01846F010E856F100E6F
:10476000866F0001E5EC10F001C070FD0D01705185
:10477000000A000103E0010A03E004D08E8E03D09A
:104780008E9E01D08E8EBFD26CCD83FD6BCD82FD0F
:10479000030E0D01846F010E856F100E866F0001F0
:1047A000E5EC10F001C070FD0D017051000A000130
:1047B00003E0010A04E006D0E2EC17F005D07DEC3E
:1047C00007F002D0E2EC17F09ED20C017B837E89C9
:1047D0007B8B726B7F95000196D26CCD83FD6BCD88
:1047E00082FD030E0D01846F010E856F100E866F22
:1047F0000001E5EC10F001C070FD0D01702D05D039
:104800000C017B8F7E9106D00D01705304E10C01E9
:104810007E817B9F0D010C0167917B937E977F9535
:104820007BB119D0400E0A01D46F0A0ECF6FD40E9F
:10483000CE6F0D017F6B7E6B816B010E806FCFCAD7
:1048400083FDCECA82FD0001A3EC0DF001C0CCFABD
:1048500026EC09F00C010001E6EC18F054D20C0132
:1048600066BF1CD04DBC1AD066BD18D04DBA16D04C
:104870004DB614D066BB12D04DB410D07B83060E5B
:10488000F66E0A0EF76E000EF86E000189EC0EF05F
:1048900007EC12F00A0EF86F0DD00C017B93220E7C
:1048A000F66E0A0EF76E000EF86E000189EC0EF03F
:1048B00007EC12F028D20C017B93F250006EF29EAE
:1048C000030E636E626A080E616E7F9C7F9E7F841A
:1048D0000F01550E7E6EAA0E7E6E7F827FB2FED7CE
:1048E0007F940050F2120001B5EC17F07DEC07F058
:1048F000FF0009D26CCD83FD6BCD82FD030E0D014F
:10490000846F020E856F100E866F0001E5EC10F0CB
:1049100001C070FDF250006EF29E010E636E800EBB
:10492000626E70CD61FF7F9C7F9E7F840F01550E6C
:104930007E6EAA0E7E6E7F827FB2FED77F9400507D
:10494000F2126CCD83FD6BCD82FD050E0D01846FDF
:10495000020E856F100E866F0001E5EC10F001C0AD
:1049600070FDF250006EF29E010E636E810E626E5B
:1049700070CD61FF7F9C7F9E7F840F01550E7E6E00
:10498000AA0E7E6E7F827FB2FED77F940050F21215
:104990006CCD83FD6BCD82FD070E0D01846F020E81
:1049A000856F100E866F0001E5EC10F001C070FD00
:1049B000F250006EF29E010E636E820E626E70CD3A
:1049C00061FF7F9C7F9E7F840F01550E7E6EAA0E35
:1049D0007E6E7F827FB2FED77F940050F2126CCD44
:1049E00083FD6BCD82FD090E0D01846F020E856F74
:1049F000100E866F0001E5EC10F001C070FDF25062
:104A0000006EF29E010E636E830E626E70CD61FFCA
:104A10007F9C7F9E7F840F01550E7E6EAA0E7E6E58
:104A20007F827FB2FED77F940050F2126CCD83FD5F
:104A30006BCD82FD0B0E0D01846F020E856F100E83
:104A4000866F0001E5EC10F001C070FDF250006EC1
:104A5000F29E010E636E840E626E70CD61FF7F9CCC
:104A60007F9E7F840F01550E7E6EAA0E7E6E7F8222
:104A70007FB2FED77F940050F2126CCD83FD6BCDD8
:104A800082FD0D0E0D01846F020E856F100E866F74
:104A90000001E5EC10F001C070FDF250006EF29ED6
:104AA000010E636E850E626E70CD61FF7F9C7F9EEE
:104AB0007F840F01550E7E6EAA0E7E6E7F827FB2BE
:104AC000FED77F940050F21200011DD1030E0D019C
:104AD0006B257C6F000E6C217D6F010E856FF00ED3
:104AE000846F7DCD87FD7CCD86FD000128EC19F01B
:104AF0000AD16CCD83FD6BCD82FD030E0D01846F59
:104B0000010E856F100E866F0001E5EC10F001C0FC
:104B100070FD300E0D0170257C6FF250006EF29E1C
:104B2000020E636EC00E626E7CCD61FF7F9C7F9E25
:104B30007F840F01550E7E6EAA0E7E6E7F827FB23D
:104B4000FED77F940050F2126CCD83FD6BCD82FDB9
:104B5000040E0D01846F010E856F100E866F00012B
:104B6000E5EC10F001C070FD300E0D0170257C6F7A
:104B7000F250006EF29E020E636EC10E626E7CCD2C
:104B800061FF7F9C7F9E7F840F01550E7E6EAA0E73
:104B90007E6E7F827FB2FED77F940050F2126CCD82
:104BA00083FD6BCD82FD050E0D01846F010E856FB7
:104BB000100E866F0001E5EC10F001C070FD300EA4
:104BC0000D0170257C6FF250006EF29E020E636E36
:104BD000C20E626E7CCD61FF7F9C7F9E7F840F0141
:104BE000550E7E6EAA0E7E6E7F827FB2FED77F94B8
:104BF0000050F212F2CF7CFDF29E020E636EC00EE8
:104C0000626E7F9C7F9E7F8061500D017CBFF28E23
:104C10007D6FF250006EF29E020E636E9E0E626E0B
:104C20007DCD61FF7F9C7F9E7F840F01550E7E6E40
:104C3000AA0E7E6E7F827FB2FED77F940050F21262
:104C4000F2CF7CFDF29E020E636EC10E626E7F9CFF
:104C50007F9E7F8061500D017CBFF28E7D6FF25090
:104C6000006EF29E020E636E9F0E626E7DCD61FF3E
:104C70007F9C7F9E7F840F01550E7E6EAA0E7E6EF6
:104C80007F827FB2FED77F940050F212F2CF7CFD7C
:104C9000F29E020E636EC20E626E7F9C7F9E7F80CC
:104CA00061500D017CBFF28E7D6FF250006EF29E5E
:104CB000020E636EA00E626E7DCD61FF7F9C7F9EB3
:104CC0007F840F01550E7E6EAA0E7E6E7F827FB2AC
:104CD000FED77F940050F212000115D0030E0D0193
:104CE0006B257C6F000E6C217D6F030E856F400E6F
:104CF000846F7DCD87FD7CCD86FD000128EC19F009
:104D000002D00D01000100D00D010C0100011200C4
:104D1000016603D0026602D007D0022A00C0EEFF6F
:104D2000012EFCD7022EFAD712000D016A510D0890
:104D300021E1036A3051E00FE96E0C0E0320EA6EA8
:104D4000EF6A0C0E6C6FE00E6B6F30CD6DFD0001E5
:104D500058EC19F00D01306B0C0EEA6EE00EE96EA6
:104D6000006A026A500E016E0001D2DF0C017D6BF9
:104D70004AD00D016A5338E1305301E145D00C01AE
:104D80007D2B7D2D0DD00D013051302B036AE00FAE
:104D9000E96E0C0E0320EA6E2C0EEF6E24D00C018F
:104DA0000D0130073051302B036AE00FE96E0C0E15
:104DB0000320EA6EEF6A0C0E6C6FE00E6B6F30CD65
:104DC0006DFD000158EC19F00D01306B0C0EEA6E10
:104DD000E00EE96E006A026A500E016E000198DF73
:104DE0000C017D6B0D0110D030514F080DE3305197
:104DF000302B036AE00FE96E0C0E0320EA6E6ACDD9
:104E0000EFFF0C017D6B0D0100012AEF27F004007C
:104E10000B0114BD01D020D00001F551F45D1BE061
:104E2000036AF551A40FE96E000E0320EA6EEFCF7E
:104E300069FDAEEC0EF0010EF5250D016B6F886F6C
:104E4000500E896F0001BCEC0EF000C0F5F069CD8A
:104E50006AFD6BD7E2D70B01000112006951340AD9
:104E60001BE0170A1CE0070A1EE0010A20E0020A04
:104E700022E00F0A24E0030A26E0050A28E0010ADE
:104E80002AE01E0A2CE0030A2EE0010A30E0060A9E
:104E900032E0700A34E038D00C01846B37D0010E58
:104EA0000C01846F33D0020E0C01846F2FD0030EDF
:104EB0000C01846F2BD0040E0C01846F27D0050EDB
:104EC0000C01846F23D0060E0C01846F1FD0070ED7
:104ED0000C01846F1BD0080E0C01846F17D0090ED3
:104EE0000C01846F13D00A0E0C01846F0FD00B0ECF
:104EF0000C01846F0BD00C0E0C01846F07D00D0ECB
:104F00000C01846F03D000010C01846B00011200BE
:104F10000C01676B4DAC02D0678F01D0679F4DAA23
:104F200002D0678D01D0679D4DA602D0678B01D05E
:104F3000679B4DA802D0678901D067994DA402D024
:104F4000678701D067974FA002D0678501D067952A
:104F50004FAE02D0678301D06793000112000D01AC
:104F60006ABF12D00F0E006E693900160A0E005C7F
:104F700003E2300E002602D06A5100260050A4A899
:104F8000FED70F011C6F0D010F0E69170A0E695D28
:104F900002E2300E02D06A9F6A5169276951A4A8C3
:104FA000FED70F011C6F000112000B0114BD01D0D0
:104FB000C1D00001ADDF140EF66E030EF76E000EC9
:104FC000F86E89EC0EF053EC09F082CC68FD83CCCE
:104FD00067FD68CD69FD370E0D016A6F0001BFDF07
:104FE00067CD69FD370E0D016A6F0001B8DF2C0E29
:104FF000A4A8FED70F011C6F000153EC09F084CC6C
:1050000069FD370E0D016A6F0001A9DF2C0EA4A8FF
:10501000FED70F011C6F000153EC09F067CC69FD4E
:10502000370E0D016A6F00019ADF2C0EA4A8FED77F
:105030000F011C6F000153EC09F087CC69FD370E9E
:105040000D016A6F00018BDF2C0EA4A8FED70F01A3
:105050001C6F000153EC09F088CC69FD370E0D017F
:105060006A6F00017CDF2C0EA4A8FED70F011C6F15
:10507000000153EC09F076C069FD370E0D016A6F2F
:1050800000016DDF75C069FD370E0D016A6F00010B
:1050900066DF2C0EA4A8FED70F011C6F000153EC95
:1050A00009F07FC069FD370E0D016A6F000157DFFF
:1050B0007EC069FD370E0D016A6F000150DF2C0EB6
:1050C000A4A8FED70F011C6F000153EC09F090CC8F
:1050D00069FD370E0D016A6F000141DF2C0EA4A897
:1050E000FED70F011C6F000153EC09F07ACC69FD6B
:1050F000370E0D016A6F000132DF2C0EA4A8FED717
:105100000F011C6F000153EC09F0F6C069FD370E6A
:105110000D016A6F000123DF53EC09F00D0EA4A806
:10512000FED70F011C6F000153EC09F070DE07EC95
:1051300012F00B01000112000B0114BD01D022D0AE
:105140008AC065FD0D0189C066FD0D0165CD82FC3B
:1051500066CD83FC5DC087FC4CC088FC76C065FDD5
:105160000D0175C066FD0D0165CD8CFC66CD8DFC15
:105170007DC08EFC7CC08FFC4FC090FC00016EDEB9
:1051800014DF0B01000112000B0114B900D0000163
:1051900012000B01149B0F011D51A39A229F22990B
:1051A000219B8C98000155EC0CF00B01149D0C0117
:1051B0007B9B7F93000112000D01646B0B0114AD0A
:1051C00019D00C017BAB12D0860EF66E080EF76E6E
:1051D000000EF86E000189EC0EF00C017F830001D7
:1051E00053EC09F014DE07EC12F00C010001A4DF0F
:1051F00076D00B018C980001EDEC11F004EC0CF072
:105200000F011D51A39A0001F46BF56B98840F01F7
:105210002097190E1E6FA60E216F900E226F8C889C
:105220000001A1EC17F00F011D51A38A000153ECFE
:1052300009F00B01148B010E0C017C6F0D01645100
:10524000642B0E081DE30C017C510308D8A402D086
:105250000D0116D00B01148D010E0C017C6F920E06
:10526000F66E080EF76E000EF86E000189EC0EF077
:1052700053EC09F0CCDD07EC12F00C01DFD70D0187
:105280000C017C51030826E100017EDF61EC0CF08B
:105290000B0E0D017E6F00014EEC0EF053EC09F089
:1052A0000B01148D149F0C017BAB0BD09E0EF66E80
:1052B000080EF76E000EF86E000189EC0EF00C017E
:1052C0007F83000153EC09F0A2DD07EC12F034DF1C
:1052D00006D00C0100015DDF0B01148F00011200EC
:1052E0000B0114BDAAD0030E0F01236F246FCE0E45
:1052F000256FC196C188C19A8C96898C8A880001D5
:10530000A3B303D004EC0CF002D020EC0CF05C6AE8
:10531000100E0D01496F000128EC0BF08A9855EC36
:105320000CF05430036E5330026E033202320332FB
:105330000232033202320F0E031602C05CF05C50E0
:105340007C0803E2640E5D6E35D05C507C0A13E08D
:10535000070A14E0010A15E0030A16E0010A17E043
:105360000F0A18E0010A19E0030A1AE0010A1BE01B
:10537000070A1CE01ED04B0E5D6E1CD04B0E5D6EFE
:1053800019D04B0E5D6E16D0320E5D6E13D0320EFC
:105390005D6E10D0190E5D6E0DD0190E5D6E0AD0C7
:1053A0000A0E5D6E07D00A0E5D6E04D0050E5D6EAE
:1053B00001D05D6A5C50740812E34DB407D05B2ADB
:1053C0005B50010803E34E964E983AD0020E5B6E96
:1053D0004D845C50710802E34E864E980ED04DA469
:1053E00008D05C50780804E24D945B6A4E964E9863
:1053F00004D04D945B6A4E964E985D50FC5D07E17B
:10540000006A4DB4008CA3510018400B14E04DA06D
:1054100012D05DC0FCF0A39D4DB4A38D64EC0EF0E2
:10542000CBDEA1EC17F0A1EC17F0B0EC16F0E6EC37
:1054300018F068EC18F004D00B01000104EC0CF03B
:1054400012008B8C080E016E00D00000018E10D06F
:10545000019E0D0161330001D8B08B9CD8A08B8CCC
:10546000018C06D0019C012EF4D700D000008B9C4B
:10547000010E006EE96AE92EFED7002EFBD70D0E55
:10548000E96EE92EFED700D00000040001BEE0D78F
:1054900001BCE8D712000D0160BF11D00F0E006EE5
:1054A0005F3900160A0E005C03E2300E002602D0BF
:1054B0006051002600C061FD0001C3DF0D010F0E29
:1054C0005F170A0E5F5D02E2300E02D0609F6051EE
:1054D0005F275FCD61FD0001B4DF12005DCD5FFD90
:1054E000370E0D01606F0001D6DF200E0D01616FD8
:1054F0000001A7DF53EC09F012000900F55210E09B
:10550000F6CF5BFDF7CF5CFDF8CF5DFDF5CF61FD1C
:1055100098DF5BCDF6FF5CCDF7FF5DCDF8FFEDD7F3
:1055200012000D01866B866B86510F081CE38651B5
:105530008425E96E000E8521EA6E86518225896FE9
:10554000000E83218A6FF2CF8BFDF29E8ACD63FF1E
:1055500089CD62FF7F9C7F9E7F8061508BBFF28EE2
:10556000EF6E862BE1D786518425E96E000E8521EA
:10557000EA6EEF6A000112000900F6CF5CFDF7CF7A
:105580005DFDF8CF5EFDF5CF61FD5BDF5CCDF6FF25
:105590005DCDF7FF5ECDF8FF0D015B2F01D002D08E
:1055A0000001EAD700011200EF520FE0EACF5CFDE4
:1055B000E9CF5BFDEFCF61FD44DF5CCDEAFF5BCD62
:1055C000E9FFE92AD8B4EA2AEFD712000D013A6BB5
:1055D0000D0E616F000135DF0A0E0D01616F0001D4
:1055E00030DF7B0E0D01616F00012BDFF2CF5BFD21
:1055F000F29E636A626A7F9C7F9E7F8061500D018C
:105600005BBFF28E5C6F5CCD5DFD000167DFF2CFAA
:105610005BFDF29E636A010E626E7F9C7F9E7F80BF
:1056200061500D015BBFF28E5C6F5CCD5DFD0001D2
:1056300055DFF2CF5BFDF29E636A060E626E7F9CC1
:105640007F9E7F8061500D015BBFF28E5C6F5CCDF1
:105650005DFD000143DFF2CF5BFDF29E636A0C0E3D
:10566000626E7F9C7F9E7F8061500D015BBFF28EDA
:105670005C6F5CCD5DFD000131DFF2CF5BFDF29E22
:10568000636A0D0E626E7F9C7F9E7F8061500D016C
:105690005BBFF28E5C6F5CCD5DFD00011FDFF2CF62
:1056A0005BFDF29E636A0E0E626E7F9C7F9E7F8022
:1056B00061500D015BBFF28E5C6F5CCD5DFD000142
:1056C0000DDF060E0D015D6F000108DF120E0D01EA
:1056D0005D6F000103DF3C0E0D015D6F0001FEDE1A
:1056E000F00E0D015D6F0001F9DE5CC05DFDF6DEC0
:1056F0004CC05DFDF3DEF2CF5BFDF29E636A110EDE
:10570000626E7F9C7F9E7F8061500D015BBFF28E39
:105710005C6F5CCD5FFD370E606F0001BCDEF2CFC9
:105720005BFDF29E636A120E626E7F9C7F9E7F809D
:1057300061500D015BBFF28E5C6F5CCD5DFD0001C1
:10574000CDDEF2CF5BFDF29E636A250E626E7F9C1A
:105750007F9E7F8061500D015BBFF28E5C6F5CCDE0
:105760005FFD370E606F000196DEF2CF5BFDF29EAB
:10577000636A260E626E7F9C7F9E7F8061500D0162
:105780005BBFF28E5C6F5CCD5DFD0001A7DEF2CFEA
:105790005BFDF29E636A280E626E7F9C7F9E7F8017
:1057A00061500D015BBFF28E5C6F5CCD5DFD000151
:1057B00095DEF2CF5BFDF29E636A2B0E626E7F9CDC
:1057C0007F9E7F8061500D015BBFF28E5C6F5CCD70
:1057D0005DFD000183DEF2CF5BFDF29E636A2C0E5D
:1057E000626E7F9C7F9E7F8061500D015BBFF28E59
:1057F0005C6F5CCD5DFD000171DEF2CF5BFDF29E62
:10580000636A300E626E7F9C7F9E7F8061500D01C7
:105810005BBFF28E5C6F5CCD5DFD00015FDEF2CFA1
:105820005BFDF29E636AD00E626E7F9C7F9E7F80DE
:1058300061500D015BBFF28E5C6FF2CF5DFDF29E99
:10584000636AD10E626E7F9C7F9E7F8061505DBFD8
:10585000F28E5E6F5CCD5FFD370E606F00011BDE68
:105860005ECD5FFD370E0D01606F000114DE200E6E
:105870000D01616F0001E5DDF2CF5BFDF29E636A11
:105880002F0E626E7F9C7F9E7F8061500D015BBFFB
:10589000F28E5C6F5CCD5FFD370E606F0001FBDD4B
:1058A0007D0E0D01616F0001CCDD0D0E0D01616FEC
:1058B0000001C7DDF60EF66E070EF76E000EF86EED
:1058C0001CDE0D013A6B3A510F081EE3B00E3A256B
:1058D0005B6F010E5C6FD8B05C2BF2CF5DFDF29E6A
:1058E0005CCD63FF5BCD62FF7F9C7F9E7F806150BC
:1058F0005DBFF28E5B6F5BCD5FFD370E606F0001A9
:10590000CADD0D013A2BDFD70D0E616F000199DD65
:1059100007EC12F0010E0D01836FF00E826F0D0E79
:10592000856F3B0E846F0001FCDDFA0EF66E070EEC
:10593000F76E000EF86E030E0D015B6F00011CDEAA
:105940000D0EEA6E3B0EE96E2FDE0D0E0D01616F3E
:10595000000177DD020EF66E080EF76E000EF86E8F
:10596000CCDDF2CF5BFDF29E010E636E840E626EA3
:105970007F9C7F9E7F8061500D015BBFF28E5C6FCC
:105980005CCD5FFD370E606F000185DDF2CF5BFD02
:10599000F29E010E636E850E626E7F9C7F9E7F80FD
:1059A00061500D015BBFF28E5C6F5CCD5FFD370E09
:1059B000606F000170DD0D0E0D01616F000141DDB2
:1059C000020E0D01836F900E826F0D0E856F3B0EE0
:1059D000846F0001A6DD020E0D01836FA00E826FA1
:1059E0000D0E856F4B0E846F00019BDD0C0EF66E65
:1059F000080EF76E000EF86E030E0D015B6F0001CE
:105A0000BBDD0D0EEA6E3B0EE96ECEDD0D0E0D0117
:105A1000616F000116DD07EC12F01200D36A800EF0
:105A20009B6E646AC80E0D01836F0001E7EC08F0FD
:105A3000500ED36E9B6A646A23EF2DF00B0114BDE8
:105A400004D00001EBD707D00B01C80E0D01896F00
:105A500000010EEC09F012000900F55212E0F6CF39
:105A600082FDF7CF83FDF8CF84FDF55004009EA89A
:105A7000FDD7AD6E82CDF6FF83CDF7FF84CDF8FF65
:105A8000EBD71200060E04009EA8FDD7AD6E1200E3
:105A9000EF5211E0EACF83FDE9CF82FDEF50040021
:105AA0009EA8FDD7AD6E83CDEAFF82CDE9FFE92A3E
:105AB000D8B4EA2AEDD712000D0186BF11D00F0E1F
:105AC000006E853900160A0E005C03E2300E0026D7
:105AD00002D086510026005004009EA8FDD7AD6E6E
