:10000000FFEF89F09EEF4AF0046ED8CF05F0E0CF05
:1000100006F00001E9CF0CF0EACF07F0E1CF08F0DD
:10002000E2CF09F0D9CF0AF0DACF0BF0F3CF12F01C
:10003000F4CF13F0FACF14F0F5CF15F0F6CF16F099
:10004000F7CF17F0F8CF18F0FBCF19F000C00EF083
:1000500001C00FF002C010F003C011F0F2AA34EF9B
:1000600000F0F2B44AEF07F09DA23AEF00F09EB222
:1000700066EF05F0A0A240EF00F0A1B2B6EF07F0E6
:10008000F2A846EF00F0F2B204EF07F0F0A64CEF52
:1000900000F0F0B00AEF07F0F0A852EF00F0F0B275
:1000A0000DEF07F09DAA58EF00F09EBAD2EF07F0CF
:1000B000A3AA5EEF00F0A4BAFCEF07F0F0AA64EF89
:1000C00000F0F0B41AEF07F00EC000F00FC001F01E
:1000D00010C002F011C003F00CC0E9FF07C0EAFF36
:1000E000078E08C0E1FF09C0E2FF0AC0D9FF0BC0BC
:1000F000DAFF12C0F3FF13C0F4FF14C0FAFF15C0FB
:10010000F5FF16C0F6FF17C0F7FF18C0F8FF19C0BB
:10011000FBFF045006C0E0FF05C0D8FF1000F76ADF
:10012000320FF66E010EF722000EF86E0900F55040
:1001300012000005060D12181C22282C2C353C3C00
:100140004545A0A0F0F0F0F0F0F0F0F0F0F0F0F0A5
:10015000F0F0F76A660FF66E010EF722000EF86EE9
:100160000900F55012007D7D7D6E645F55504D4B4A
:1001700046413F3C393735322F2D2B2A282625235F
:1001800021201E1C1B1A191817161412100F0D0C03
:100190000B0A070605030200FEFDFBF9F6F3F1EF7B
:1001A000ECE9E7E2D8CEF76ABA0FF66E010EF72255
:1001B000000EF86E0900F55012001E1E1E1E1E1EB7
:1001C0001E1E1E1E1C1C1C1A181614121211100EB4
:1001D0000C090706050403020100000000000003EB
:1001E000080A0D1115191B1F242A2C3236393C41DF
:1001F00046505A646E787D7F7F7F0A0D544D2038BB
:1002000020544D2052455354415254210A0D0000B0
:100210000A0D335820544D20524553544152542115
:100220000A0D00005245414420504D2054494D458F
:10023000210D0000544D5F424C45504D5F555345D4
:10024000544D4752203078303039383A2000544DE0
:100250005F54494D455F52585F434F554E543A20C5
:100260000000504D5F54494D47525354415445206E
:100270003078303039393A20000054696D654D616D
:100280006E61676572207061636B6574732072655F
:100290006365697665643A200000504D5F54494DAE
:1002A00045203078303039413A200000504D5F42CF
:1002B0004C4541434F4E5F4F4F425448524553487F
:1002C000203078303041303A2000554E4958204592
:1002D000504F43482054494D453A20004D4620494F
:1002E000443A20004E4F44452049443A20005041B2
:1002F0004952494E4720434F44453A200000564555
:100300004E444F522049443A20004D4F44454C2022
:100310004E554D4245523A20000053455249414CFA
:10032000204E554D4245523A20004D414320414414
:1003300044524553533A20006D776D2B6A736574B0
:10034000616C6C3D00006D776D2B6A636C6F75643A
:100350006D756C746977726974653D6465766963FF
:10036000655F6576656E745F6C6F672C00002C644A
:1003700065766963655F707573685F6576656E74D1
:100380002C6E6F5F616C61726D002C6465766963C1
:10039000655F707573685F6576656E742C736D6FDD
:1003A0006B6500002C6465766963655F70757368C2
:1003B0005F6576656E742C736D6F6B6500002C64E1
:1003C00065766963655F707573685F6576656E7481
:1003D0002C736D6F6B6500002C6465766963655FD7
:1003E000707573685F6576656E742C736D6F6B6581
:1003F00000002C6465766963655F707573685F657E
:1004000076656E742C736D6F6B6500002C64657679
:100410006963655F707573685F6576656E742C637C
:100420006F002C6465766963655F707573685F65DE
:1004300076656E742C636F002C6465766963655F06
:10044000707573685F6576656E742C636F002C64DD
:1004500065766963655F707573685F6576656E74F0
:100460002C636F002C6465766963655F70757368D3
:100470005F6576656E742C74657374002C646576A4
:100480006963655F707573685F6576656E742C73FC
:10049000696C656E636564002C6465766963655F8D
:1004A000707573685F6576656E742C6D616C6675CA
:1004B0006E6374696F6E00002C6465766963655FB6
:1004C000707573685F6576656E742C656F6C00007F
:1004D0002C6465766963655F707573685F657665C2
:1004E0006E742C6D616C66756E6374696F6E00005E
:1004F0002C6465766963655F707573685F657665A2
:100500006E742C6D616C66756E6374696F6E00003D
:100510002C6465766963655F707573685F65766581
:100520006E742C656F6C00002C6465766963655F82
:100530006163636573735F746F6B656E2C002C640D
:1005400065766963655F636B65792C006D776D2BEC
:100550006A67657474696D650D00484541502030C7
:1005600078303034303A2000544D5F424C455F5370
:100570005441545553203078303035313A20000002
:10058000544D5F424C45504D5F5354415455532098
:100590003078303036313A200000544D5F424C45BF
:1005A0005F4D414E55464944203078303035343A1D
:1005B0002000544D5F424C45504D5F4944203078F7
:1005C000303036323A200000544D5F424C45504D99
:1005D0004E4F44455F4944203078303036343A201D
:1005E0000000544D5F424C45504D5F4445465F44CA
:1005F00055524154494F4E203078303036363A20EB
:1006000000006D776D2B6A73657473657269616C38
:100610006E756D6265723D006D776D2B6A736574E2
:1006200063727970746F3D006D776D2B6A736574BA
:10063000616363657373746F6B656E3D00006D7706
:100640006D2B6A7365746D6F64656C3D4143313029
:100650000D006D776D2B6A6765746D6F64656C0D49
:1006600000006D776D2B6A736574636F756E7472BD
:10067000793D7573610D00006D776D2B6A7365743C
:1006800076656E646F723D006D776D2B6A67657479
:1006900076657273696F6E0D00006D776D2B6A73EE
:1006A0006574667776657273696F6E3D00006D776D
:1006B0006D2B6A67657470616972696E67636F64D8
:1006C000650D00006D776D2B6A73657473736964D3
:1006D0003D25730D00006D776D2B6A736574706135
:1006E00073737068726173653D25730D00006D77DB
:1006F0006D2B6A7365746D616E75616C70726F7667
:100700006973696F6E0D00006D776D2B6A636C6F96
:1007100075646D756C746977726974653D6465762E
:100720006963655F6163636573735F746F6B656E47
:100730002C002C6465766963655F636B65792C00BA
:100740006D776D2B6A776C616E73746174650D00E3
:100750006D776D2B6A6765746D61630D00006D7751
:100760006D2B6A636C6F7564636F6E6E6563740D79
:1007700000006D776D2B6A636C6F75646D756C74BA
:100780006977726974653D6465766963655F726FE8
:100790006F6D2C756C74726F6E0D00006D776D2B24
:1007A0006A67657470616972696E67737461746594
:1007B0000D006D776D2B77737472740D00006D777B
:1007C0006D2B6A776C616E73746174650D005253A2
:1007D0002C0052432C25730D0000524E2C41433106
:1007E000302D000052462C25730D00000A432025B1
:1007F0004C580D006D776D2B6A776C616E73746168
:1008000074650D006D776D2B6A776C616E73746122
:1008100074650D006D776D2B6A776C616E73746112
:1008200074650D006D776D2B6A6765747061697210
:10083000696E67636F64650D0000414C4C5F5353F4
:100840004944530D0000434F2C25690D00004661BB
:1008500063746F72792053657475700D0A006D773B
:100860006D2B77737472740D00006D776D2B736848
:10087000656C6C6F0D006D776D2B77737472740DF2
:1008800000006D776D2B7368656C6C6F0D006D7774
:100890006D2B77737472740D00006D776D2B736818
:1008A000656C6C6F0D006D776D2B7368656C6C6F8C
:1008B0000D006D776D2B7373746172740D004D6153
:1008C0007276656C6C206661696C656420746F205B
:1008D0007374617274210D00465F5445535453493B
:1008E0004C494E4345203D20747275653B0D000018
:1008F000544D5F424C45504D4E4F44455F49442056
:1009000077726974650D0000504D6573684B6579A9
:1009100020726561642066726F6D20454550524FAC
:100920004D0D0000544D5F424C45504D5F494420F1
:1009300077726974650D0000504D6573684B657979
:1009400020777269746520746F2063446174610D4F
:100950000000504D6573684B6579207265616420B5
:1009600066726F6D2063446174610D00504D657354
:10097000684B657920777269746520746F20544DD7
:10098000203078303030300D00006D776D2B637380
:1009900065743D6E6574776F726B2C636F6E6669FC
:1009A00067757265642C300D00006D776D2B637375
:1009B00065743D6E6574776F726B2C636F6E6669DC
:1009C00067757265642C300D00006D776D2B6A724F
:1009D0006573657470616972696E67730D006D7718
:1009E0006D2B6A626F6F746C6F6164657272657390
:1009F000706F6E73653D676F0D006D776D2B6A626A
:100A00006F6F746C6F61646572726573706F6E7313
:100A1000653D73746F700D006D776D2B7773747215
:100A2000740D00006D776D2B6A776C616E73746165
:100A300074650D000A0D424C4520524553544152F5
:100A400054210A0D00006D776D2B637365743D6E44
:100A50006574776F726B2C636F6E6669677572650C
:100A6000642C300D00006D776D2B6A7265736574B0
:100A700070616972696E67730D006D776D2B7368B5
:100A8000656C6C6F0D006D776D2B637365743D6ED7
:100A90006574776F726B2C636F6E666967757265CC
:100AA000642C300D00006D776D2B6A726573657470
:100AB00070616972696E67730D006D776D2B736875
:100AC000656C6C6F0D00434C52440000A351080844
:100AD0001BE1010EA45DFB0F11E2050F5CEF06F0B8
:100AE0000E0EBC6E0BD01B0EBC6E08D0360EBC6E4C
:100AF00005D0510EBC6E02D05F0EBC6E000E050913
:100B0000CA6E6C0ECB6ED0D0A35107081BE1010E4C
:100B1000A45DFB0F11E2050F71EF06F00D0EBC6E28
:100B20000BD01A0EBC6E08D0330EBC6E05D04D0E25
:100B3000BC6E02D0590EBC6E000E0509CA6E660E60
:100B4000CB6EB2D0A35106081BE1010EA45DFB0FD2
:100B500011E2050F86EF06F00C0EBC6E0BD0180EDE
:100B6000BC6E08D0300EBC6E05D0480EBC6E02D0F4
:100B7000540EBC6E000E0509CA6E600ECB6E94D08A
:100B8000A35105081BE1010EA45DFB0F11E2050F47
:100B90009BEF06F00B0EBC6E0BD0170EBC6E08D090
:100BA0002D0EBC6E05D0440EBC6E02D04F0EBC6E36
:100BB000000E0509CA6E5A0ECB6E76D0A3510408FA
:100BC0001BE1010EA45DFB0F11E2050FB0EF06F073
:100BD0000B0EBC6E0BD0150EBC6E08D02A0EBC6E70
:100BE00005D03F0EBC6E02D04A0EBC6E000E050949
:100BF000CA6E540ECB6E58D0A35103081BE1010EF0
:100C0000A45DFB0F11E2050FC5EF06F00A0EBC6EE6
:100C10000BD0140EBC6E08D0270EBC6E05D03B0E58
:100C2000BC6E02D0440EBC6E000E0509CA6E4E0E9C
:100C3000CB6E3AD0A35102081BE1010EA45DFB0F5D
:100C400011E2050FDAEF06F0090EBC6E0BD0120EA2
:100C5000BC6E08D0240EBC6E05D0360EBC6E02D021
:100C60003F0EBC6E000E0509CA6E480ECB6E1CD03E
:100C7000A32D1AD0010EA45DFB0F11E2050FEFEFBB
:100C800006F0080EBC6E0BD0100EBC6E08D0420EE3
:100C9000BC6E05D0310EBC6E02D03A0EBC6E000E9A
:100CA0000509CA6E420ECB6EA307A35302E1080EDC
:100CB000A36F9E9264EF00F0E824F76AF736D90F2D
:100CC000F66E0C0EF722000EF86EFB6E0A00F55061
:100CD000FA6E0800F550F96EF80AF20AEC0AE60A14
:100CE000E00AE824F76AF736030FF66E0D0EF722D6
:100CF000000EF86EFB6E0A00F550FA6E0800F55013
:100D0000F96E340B2E0B280B220B1C0BE824F76A10
:100D1000F7362D0FF66E0D0EF722000EF86EFB6EF5
:100D20000A00F550FA6E0800F550F96E700B6A0B68
:100D3000640B5E0B580BE824F76AF736570FF66E14
:100D40000D0EF722000EF86EFB6E0A00F550FA6EDB
:100D50000800F550F96EAC0BA60BA00B9A0B940B88
:100D6000E824F76AF736810FF66E0D0EF722000EB3
:100D7000F86EFB6E0A00F550FA6E0800F550F96E39
:100D8000E80BE20BDC0BD60BD00BE824F76AF73646
:100D9000AB0FF66E0D0EF722000EF86EFB6E0A001A
:100DA000F550FA6E0800F550F96E240C1E0C180C64
:100DB000120C0C0CE824F76AF736D50FF66E0D0E00
:100DC000F722000EF86EFB6E0A00F550FA6E08006E
:100DD000F550F96E600C5A0C540C4E0C480CE8247B
:100DE000F76AF736FF0FF66E0D0EF722000EF86E5B
:100DF000FB6E0A00F550FA6E0800F550F96E9A0C79
:100E0000940C8E0C880C820C01010883F292000174
:100E100064EF00F0F09064EF00F05382B06A070EC8
:100E2000B16ED80EB36EF00EB26EA192A082F092A7
:100E300064EF00F001010887F094000164EF00F016
:100E40004FAE05D04FAA03D0830ED56E02D0870EC9
:100E5000D56ED76AD66AF294F294F0925592F188E0
:100E6000F088F28AA092A192B06AB16A12000400DE
:100E7000559481A409D0F2A407D055BC02D0558E58
:100E800001D0559EDDDF03D055B201D0D9DFF294F9
:100E90004BEF07F0ECD7F29464EF00F04FAE05D0C3
:100EA0004FAA03D0830ED56E02D0870ED56ED76AB7
:100EB000D66AF294F294F092F198F088F28AA092B5
:100EC000A192B06AB16A7FEF07F00400D6500D011D
:100ED000DF6FD7CFE0FDE0510E080CE2FF0A03E11F
:100EE000DF51430807E20400559455B203D00001D6
:100EF000A7DF0D0155B205D055820001CFD735D0FF
:100F00000D01E05100082EE2FF0A03E1DF5139082C
:100F100029E2E0510F0826E303E1DF51420822E312
:100F200055B41DD04FBA1AD00001AA2BAA510108FE
:100F300011E20C016FAD02D000010CD055A802D017
:100F4000000108D0558A6F9D0001A899559E020E98
:100F5000AA6F02D0020EAA6F03D00D01559A0001AC
:100F600055840D01559E00016BDF120055A20CD077
:100F700081A408D05594559E5592559AD76AD66A41
:100F8000F2940DD0A2DF0BD081B408D05594559EB9
:100F90005592559AD76AD66AF29401D096DFA192FB
:100FA00064EF00F00400036AFC51AC0FE96E000E20
:100FB0000320EA6E04009EAAFDD7AECFEFFFFCC06F
:100FC000DFFDFC2BFC51500801E1FC6BFD51FC5D89
:100FD00002E1DFCDFCF09E9A64EF00F0A4AAFED7F8
:100FE0000F0122CF22F01DCF01F022A202D02299C0
:100FF0002289000112EF08F0010108AF2AD00C018C
:101000007DB102D0010125D00400036A0001FC512A
:10101000AC0FE96E000E0320EA6EEACFE3FDE9CFE4
:10102000E2FDDCD7E3CDEAFFE2CDE9FF01C0EFFF4F
:101030002250040B01E00CD0FCC0DFFDFC2BFC5166
:10104000500801E1FC6BFD51FC5D02E1DFCDFCF0DD
:101050000101A49A000164EF00F0030E0F01236F59
:10106000246F4F0E256FC196C198C19A97948E94A4
:101070000101089D00011200F00EBB160F014E1772
:10108000D76AD66A810ED56ECF6ACE6ACD6AAA6A51
:10109000CC6A000ECA6E040ECB6E6D6A780E6B6E53
:1010A000FF0E6C6E7A6A300E7B6E3C6B3D6F780E75
:1010B000306FFF0E316F9D929E92B990BA90B992A7
:1010C000BA92B99CBA9C579F000186EF09F04F90E5
:1010D00052903B6A3C6A3D6A3E6A010E386E050ECC
:1010E0002B6E010E286E480E2A6E010E2C6E1E0EFF
:1010F0000101066F010E276E3F6E480E296E180E15
:101100002F6E346A336E54860F0E356E0C0E00014E
:10111000A96F030E406EFF912D6A396A59C068F0BD
:1011200068C067F067C048F048C069F0020E666F9B
:10113000180E306E010E316E6B6B6A6B2E6A559C09
:101140005598766B756B76C074F075C073F074C08B
:1011500078F073C077F0020E6E6F816B806B81C088
:1011600083F080C082F083C07AF082C079F0F2CF41
:1011700042FDF29E636A360E626E7F9C7F9E7F8088
:1011800061500D0142BFF28E090816E1F2CF43FD16
:10119000F29E636A370E626E7F9C7F9E7F806150F5
:1011A00043BFF28E600808E1090E00017E6F600EF9
:1011B0007D6F4F8004D00D0100017E6B7D6BF2507E
:1011C000006EF29E636A110E626E616A7F9C7F9E62
:1011D0007F840F01550E7E6EAA0E7E6E7F827FB2D7
:1011E000FED77F940050F212F2CF00F0F29E636AB5
:1011F000120E626E616A7F9C7F9E7F84550E7E6EAA
:10120000AA0E7E6E7F827FB2FED77F940050F212CC
:10121000F2CF00F0F29E636A130E626E616A7F9CE9
:101220007F9E7F84550E7E6EAA0E7E6E7F827FB279
:10123000FED77F940050F212F2CF00F0F29E636A64
:10124000140E626E616A7F9C7F9E7F84550E7E6E57
:10125000AA0E7E6E7F827FB2FED77F940050F2127C
:1012600000016069416A436A426A456A446A53966A
:10127000030E0101036F046B640E0001616F61C016
:1012800005F1FF974FB4FF871200F09AF094010127
:101290000893F292F29800011200520ED36E9B6AEC
:1012A000646A040E0F012E6F2F6F546F030E236FAD
:1012B000246F4F0E256FC196C198C19AC290010E3E
:1012C000896E3F0E926EF18E8A6AEF0E936E8B6A74
:1012D000940E946E539F020E8C6EA00E956E539DCD
:1012E0008D6A600E966EB00E8E6E1A0E976E010E9F
:1012F0008F6E3C0E986E4F6A516A526A536A546AF6
:10130000566A556A506A0001A8DEB6D69788030E61
:101310000F01236F246FCF0E256FC196C198C19A1C
:101320000001D5DEB2DFF096F0900F011D51A39AB7
:101330008C98AB9EAB98AC9A229F2299219BC00EB1
:10134000F21200013DEF8FF00D0EEA6E930EE96E82
:10135000EF5011E0010E016EBF0E006E0400002E72
:10136000FDD7012EF9D74A0E006E002EFED70000E1
:101370000400EF2EEFD71200020E0D01866F960EBD
:10138000936F0001E1DF0D01862FF9D700011200F4
:101390000400630E006E002EFED70000D3EF09F0AC
:1013A0008E8A8F90F5D71200010E0D01936F000108
:1013B000CBDF12000400938E938C8D80F5DF12003A
:1013C000080E016E00008A9C939C00000D018D3771
:1013D0008A9ED8B0938ED8A0939E938C81ACFED772
:1013E000012E01D002D00001EDD700008A9C939C11
:1013F0000000938E00000000938C81ACFED7016A40
:10140000000081BE01808A9C939C8A9E939E00016D
:101410001200938E0000938C00008A9E939E000021
:101420008A9C939C640E0D018D6F0001C9DF3D0EF7
:101430000D018D6F0001C4DF0D018D690001C0DF5A
:10144000939E0000938C81ACFED7000000D000007A
:10145000938E0000938E0000938C00008A9E939ED2
:1014600000008A9C939C660E0D018D6F0001A8DF21
:101470003D0E0D018D6F0001A3DF0D018D6900018F
:101480009FDF939E0000938C81ACFED7000000D0BC
:101490000000938E000012000D01896B100E006E8B
:1014A000002EFED70000896B8851895D10E287CD40
:1014B00003F08651862BD8B4872BE96E03C0EAFF70
:1014C000EFCF8DFD00017CDF0D01892BEDD70001F1
:1014D000120070DF9EDF938E0000938C00008A9EC6
:1014E000939E00008A9C939C640E0D018D6F0001F9
:1014F00067DF020EA66F270EA56FA6C087FDA5C0E9
:1015000086FD020E0D01886F0001C6DF939E00006C
:10151000938C81ACFED7000000D00000938E0000B9
:10152000938E0000938C00008A9E939E00008A9CFC
:10153000939C640E0D018D6F000142DF020EA66FB9
:10154000070EA56FA6C087FDA5C086FD0A0E0D017A
:10155000886F0001A1DF939E0000938C81ACFED7C1
:10156000000000D00000938E0000938E0000938C4A
:1015700000008A9E939E00008A9C939C640E0D013D
:101580008D6F00011DDF010EA66FBB0EA56FA6C0FB
:1015900087FDA5C086FD100E0D01886F00017CDF60
:1015A000939E0000938C81ACFED7000000D0000019
:1015B000938E0000938E0000938C00008A9E939E71
:1015C00000008A9C939C640E0D018D6F0001F8DE73
:1015D000010EA66FCB0EA56FA6C087FDA5C086FD28
:1015E0000A0E0D01886F000157DF939E0000938C57
:1015F00081ACFED7000000D00000938E0000938ED7
:101600000000938C00008A9E939E00008A9C939C0D
:10161000660E0D018D6F0001D3DE020EA66F270E40
:10162000A56FA6C087FDA5C086FD020E0D01886FBF
:10163000000132DF939E0000938C81ACFED7000046
:1016400000D00000938E0000938E0000938C000069
:101650008A9E939E00008A9C939C660E0D018D6F5E
:101660000001AEDE020EA66F070EA56FA6C087FDB5
:10167000A5C086FD0A0E0D01886F00010DDF939E47
:101680000000938C81ACFED7000000D00000938E48
:101690000000938E0000938C00008A9E939E0000B1
:1016A0008A9C939C660E0D018D6F000189DE010EF0
:1016B000A66FBB0EA56FA6C087FDA5C086FD100E48
:1016C0000D01886F0001E8DE939E0000938C81ACD1
:1016D000FED7000000D00000938E0000938E000023
:1016E000938C00008A9E939E00008A9C939C660EB9
:1016F0000D018D6F000164DE010EA66FCB0EA56F8C
:10170000A6C087FDA5C086FD0A0E0D01886F0001E9
:10171000C3DE939E0000938C81ACFED7000000D006
:101720000000938E000012000400A60E006E002E32
:10173000FED7F1EF0BF00400020E006E002EFED774
:1017400000D012000D015491586A576AC050C00B66
:101750000409C06EC08EC2805335006E0036FC0E88
:101760000016C250830B0010C26E000E016EC150F5
:10177000F80B0110C16E0001DEDF9E9CC2820D01DC
:101780005491C2A254815491C2A2548154A1FBD756
:10179000C2B2FED7C3CF57F0C4CF58F0000B006ED3
:1017A0005850F00B036E0050031002E0586A576A5D
:1017B000C2909D9C00011200200E0D01496F4A6FDE
:1017C000030E4B6F539E030E0F01236F010E246F08
:1017D000C60E256FC196C188C19A8E989798000150
:1017E000A3D7110E0D01536F0001ACDF5830036E0B
:1017F0005730026E033202320332023203320232B7
:101800000332023203320232030E031602C04AFDD3
:101810000D014ACD49FD9788030E0F01236F246FF8
:10182000CE0E256FC196C198C19A52960D014951AD
:10183000050809E249513E0805E25286240E4A6F26
:101840004ACD49FD05D05286240E4A6F4ACD49FD46
:1018500052A602D04B2FB6D7036A49510001A9EC1A
:1018600000F0E8CF47FD036A0D014A510001D3ECB7
:1018700000F0E8CF48FD0D0147AF01D0538E47512E
:1018800047AF03D0000ED88047554E6E5D6A5EC0EC
:101890005CF047BF12D0475119080FE253BE0DD07C
:1018A000036A4851006EE8BE03065C5C006E03509C
:1018B0005D5800C05CF05D6E0CD0036A4851E8BE14
:1018C00003065C24016E5D50032201C05CF003C07E
:1018D0005DF05D50000802E25D6A5C680001120084
:1018E000320E0D01936F00012FDD12000A0E0D0163
:1018F000936F000129DD1200020E0D01866FFA0EB2
:10190000936F000121DD0D01862FF9D70001120030
:10191000898C8C96F1DF1200846B8E9EF18CF29292
:10192000F288010108930001D8EF0CF004000D01CA
:10193000A76BA66BA751130810E303E1A651870814
:101940000CE3010108A304D00893010E016E08D036
:101950000D01A62BD8B4A72BEDD7000E016E010107
:1019600000011200C950AACDC9FFC730FEE3C9CF9C
:1019700000F01200A9CDAAFDF5DF015000C084F0EF
:1019800084C001F012000D01A36BA56B9A51FF0AF0
:10199000000109E07E0A07E0780A05E0020A03E098
:1019A0000A0A01E004D0010E0D01A56F0001B4D7B1
:1019B000BDDF0D01A96B0001DDDF0D01A0CDA7FD8D
:1019C0009F519F2BD8B4A02BA66F9ACDA9FD0001E3
:1019D000D1DFA7CDEAFFA6CDE9FF01C0EFFF0D01E2
:1019E0009A51A3270001A2DF0D01A0CD03F09F5162
:1019F0009F2BD8B4A02BA66F03C0A7FDA55305E06D
:101A00009A3D01D002D0DA0E04D0A86B9C51A96F88
:101A1000036AA86FA96F0001ADDFA7CDEAFFA6CDCD
:101A2000E9FF01C0EFFF0D01A66B9C51A327A0CDDC
:101A3000A7FD9F519F2BD8B4A02BA66FA55305E0FF
:101A40009A3D01D002D0DA0E04D0A96BA9CD03F0E3
:101A50009B51A86FA96F00018DDFA7CDEAFFA6CD2E
:101A6000E9FF01C0EFFF0D01A76BA7CD03F09B516C
:101A7000A327A0CD03F09F519F2BD8B4A02BA66F16
:101A800003C0A7FDA55305E09A3D01D002D0DA0EB0
:101A900004D0A86B9E51A96F036AA86FA96F0001BB
:101AA00069DFA7CDEAFFA6CDE9FF01C0EFFF0D0179
:101AB000A66B9E51A327A0CDA7FD9F519F2BD8B405
:101AC000A02BA66FA55305E09A3D01D002D0DA0EF7
:101AD00004D0A96BA9CD03F09D51A86FA96F000197
:101AE00049DFA7CDEAFFA6CDE9FF01C0EFFF0D0159
:101AF000A76BA7CD03F09D51A327000117DF0D01B0
:101B0000A55317E0A36BA46BA451040812E3050EC0
:101B10009F5DA66F000EA059A76FA451A625016E68
:101B2000000EA72101C0E9FFEA6EEF50A327A42B06
:101B3000EBD7A2CD03F0A1CDE9FF03C0EAFFA3CD0F
:101B4000EFFF010E016E000112000D01976B96531D
:101B500003E19551975D1DE297519325016E000EAB
:101B60009421036E01C098FD996F97519125E96EFC
:101B7000000E9221EA6EEFCFAAFD0001F3DE0150C4
:101B800099CDEAFF98CDE9FF00C0EFFF0D01972B3B
:101B9000DED7000114EF0EF0190E0D01986F985367
:101BA00002E09807FCD78E8E01010893F292F2981A
:101BB000000112000D018E6B800E9A6F89CD9CFD85
:101BC00088CD9BFD8BCD9EFD8ACD9DFD0A0EA06F1D
:101BD000960E9F6F0D0EA26F8E0EA16F0001D3DEC9
:101BE0000D01906B8F6B90518B5D10E303E18A5177
:101BF0008F5D0CE28C518F25E96E8D519021EA6E3C
:101C0000EF508E278F2BD8B4902BEDD78DCD92FD32
:101C10008CCD91FD0A0E946F9B0E936F8BCD96FD2C
:101C20008ACD95FD000191D70D018E51FF0A916F6C
:101C3000A96F00019FDEB0DF010E016E120092CD90
:101C400003F00D0191CDE9FF03C0EAFFECCF9EFD4B
:101C5000ED52EFCF9DFD8ECD9AFD90CD9CFD8FCDA9
:101C60009BFD0A0EA06F960E9F6F0D0EA26F950E34
:101C7000A16F000188DE0D01976B966B92CD03F08A
:101C800091CDE9FF03C0EAFFECCF03F0ED52EFCFB7
:101C900001F09751035C2FE303E10150965D2BE2C5
:101CA0009B0E9625016E0A0E9721036E01C09AFDC8
:101CB0009B6F96519325016E97519421036E01C03D
:101CC000E9FFEA6EEFCFA9FD000154DE9BCDEAFFEC
:101CD0009ACDE9FF01C0EFFF0D0196519325016EEA
:101CE0009751942101C0E9FFEA6EEF509527962B9A
:101CF000D8B4972BC3D79551FF0A986FA96F0001ED
:101D000039DE4ADF010E016E120088CD89FD0D011A
:101D10008B6B010E8A6F8C0E8E6F906B8F6B0D0E1E
:101D2000926F8A0E916F0D0E946F890E936F000162
:101D300086DF01501200010108BD01D01FD00A0149
:101D4000DE6B200EDF6F0A0ED96FDE0ED86F0D012D
:101D50008969FA0E886F8B6B020E8A6FD9CA8DFD66
:101D6000D8CA8CFD000126DF01C0D6FABFDD0A0EFD
:101D70000D01886F0001C9DFB9DD0101000112000A
:101D80000900F55213E0F6CF8DFDF7CF8EFDF8CFA9
:101D90008FFDF550A4A8FED70F011C6F8DCDF6FF67
:101DA0008ECDF7FF8FCDF8FF0001EAD712001E0E8F
:101DB0000D01936F0001A4EC09F012000D01945184
:101DC000016A935D03E293CD00F00CD0006A080E27
:101DD000956F933700369451005CD8B0006E013691
:101DE000952FF7D700011200D8CDDBFDD7CDDDFD53
:101DF000D6CDDCFD0D01DA5303E1D951000816E21E
:101E0000DDCD03F0DCCDE9FF03C0EAFFDB51EF5C81
:101E100005E1DCCD01F0DDCD02F00BD0DC2BD8B438
:101E2000DD2BD951D8B4DA07D907E5D7000E016EFA
:101E3000026E000112000D01D851DA19800BDC6F1F
:101E4000D8AF05D0D71FD81FD72BD8B4D82BDAAF2F
:101E500005D0D91FDA1FD92BD8B4DA2BD751D90323
:101E6000F3CF01F0F4CF00F0DA03F3500026D8519D
:101E7000D903F3500020026EDCAF05D0011E021E14
:101E8000012AD8B4022A00019BEF10F00D01AF6BBC
:101E9000AE6B300EB16F310EB26F320EB36F330EC8
:101EA000B46F340EB56F350EB66F360EB76F370E92
:101EB000B86F380EB96F390EBA6F610EBB6F620E14
:101EC000BC6F630EBD6F640EBE6F650EBF6F660E96
:101ED000C06F670EC16F680EC26F690EC36F6A0E66
:101EE000C46F6B0EC56F6C0EC66F6D0EC76F6E0E36
:101EF000C86F6F0EC96F700ECA6F710ECB6F730E05
:101F0000CC6F740ECD6F750ECE6F760ECF6F770ED1
:101F1000D06F780ED16F790ED26F7A0ED36FD46BEB
:101F2000A4CDA9FDA3CDA8FDA9CD03F0A8CDE9FFBF
:101F300003C0EAFFEF50200804E1A82BD8B4A92B76
:101F4000F3D7A9CD03F0A8CDE9FF03C0EAFFEF5016
:101F50002D0809E0A9CD03F0A8CDE9FF03C0EAFFF1
:101F6000EF502B080BE1A9CD03F0A851A82BD8B452
:101F7000A92BE96E03C0EAFFEF5001D02B0EB06F22
:101F8000A7BF08D0A72D01D005D0A7BF05D0A75166
:101F9000240802E20CD184D0A7534CE0A7511008CA
:101FA0001FE1A9CD03F0A8CDE9FF03C0EAFFEF5080
:101FB000300816E1010EA825E96E000EA921EA6E8F
:101FC000EF50780809E0010EA825E96E000EA9215E
:101FD000EA6EEF50580804E1020EA827000EA9236C
:101FE000A75108080DE1A9CD03F0A8CDE9FF03C072
:101FF000EAFFEF50300804E1010EA827000EA923E4
:10200000A751020816E1A9CD03F0A8CDE9FF03C04E
:10201000EAFFEF5030080DE1010EA825E96E000E31
:10202000A921EA6EEF50620804E1020EA827000E13
:10203000A92336D0A9CD03F0A8CDE9FF03C0EAFF5C
:10204000EF50300803E00A0EA76F2AD0010EA82532
:10205000E96E000EA921EA6EEF50780809E0010E42
:10206000A825E96E000EA921EA6EEF50580807E195
:10207000100EA76F020EA827000EA92311D0010E83
:10208000A825E96E000EA921EA6EEF50620806E16C
:10209000020EA76FA827000EA92302D0080EA76F73
:1020A000A9CDABFDA8CDAAFDA9CD03F0A8CDE9FF30
:1020B00003C0EAFFEF50300804E1A82BD8B4A92BE5
:1020C000F3D7A9CD03F0A8CDE9FF03C0EAFFEFCF16
:1020D000D5FDD551400806E2D5515A0803E3D55144
:1020E000200901D0D551D56F0D0ED76FB10ED66F27
:1020F000D5CDD8FDDA6BA7CDD9FDD9BFDA07000160
:1021000073DE02C0ADFD01C0ACFD0D01AC5302E1B8
:10211000AD5347E0036AA751006EE8BE0306D56FD2
:1021200003C0D6FDAFCDD8FDAECDD7FD03C0DAFDDF
:10213000D96F000180D6B10E0D01AC5D006E0D0EA1
:10214000AD59036E00500124AE6F03500220AF6FF3
:10215000A82BD8B4A92BA9CD03F0A8CDE9FF03C0C3
:10216000EAFFEFCFD5FDD551400806E2D5515A0818
:1021700003E3D551200901D0D551D56F0D0ED76F8E
:10218000B10ED66FD5CDD8FDDA6BA7CDD9FDD9BFAD
:10219000DA07000129DE02C0ADFD01C0ACFDB5D7F4
:1021A0000D01A851AA5D16E1A951AB5D13E10D0126
:1021B000A551A6110BE0A6CD03F0A5CDE9FF03C004
:1021C000EAFFA4CDECFFED52A3CDEFFF000E016EB0
:1021D000026E1AD0B0512D0805E1AE1FAF1FAE2B15
:1021E000D8B4AF2BA551A6110BE0A6CD03F0A5CD19
:1021F000E9FF03C0EAFFA9CDECFFED52A8CDEFFF48
:10220000AECD01F0AFCD02F0000138EF11F08FCD6F
:10221000A2FD0D0190518F25A25D17E28F51A25DA5
:10222000036A920F016E0D0E0322A2518D25E96EF5
:10223000000E8E21EA6EEFCFA5FD03C0EAFF01C0BC
:10224000E9FFA5CDEFFFA22BE5D78F51A25D036A71
:10225000920FE96E0D0E0320EA6EEF6A0D0EA46F69
:10226000920EA36FA66BA56B91CDA7FD00010ED6B4
:10227000015012008B8C080E016E00D00000018E00
:1022800010D0019E0D018C330001D8B08B9CD8A0DA
:102290008B8C018C06D0019C012EF4D700D000005D
:1022A0008B9C1C0EE96EE92EFED70000040001BED7
:1022B000E8D701BCF0D712000900F55210E0F6CFC4
:1022C00086FDF7CF87FDF8CF88FDF5CF8CFDD2DFF7
:1022D00086CDF6FF87CDF7FF88CDF8FFEDD712004A
:1022E0000C017551010A000105E0030A06E0010A2C
:1022F00007E009D0010EFE6F08D0020EFE6F05D078
:10230000030EFE6F02D0010EFE6FF250006EF29EC1
:10231000636A310E626EFEC061FF7F9C7F9E7F8488
:102320000F01550E7E6EAA0E7E6E7F827FB2FED7A3
:102330007F940050F212000122EF26F0539C0C0112
:102340007551000A00011BE0010A1CE0030A1DE0B0
:10235000010A1EE0070A1FE0010A20E0030A21E04B
:10236000010A22E00F0A23E0010A24E0030A25E023
:10237000010A26E0070A27E0010A28E02AD0340EE5
:102380006D6F29D0230E6D6F26D0240E6D6F23D074
:10239000250E6D6F20D0270E6D6F1DD0280E6D6F2E
:1023A0001AD02B0E6D6F17D02E0E6D6F14D02F0E0E
:1023B0006D6F11D0310E6D6F0ED0320E6D6F0BD070
:1023C000330E6D6F08D0350E6D6F05D0450E6D6FF5
:1023D00002D0340E6D6F6D51340801E1538CF3EF70
:1023E0001AF0030E0D01936F0001A4EC09F002EF47
:1023F00012F0899CA8AD04D0D4EC09F08C8601D0F1
:102400008C96EFD71200640E0D01936F0001A4ECBF
:1024100009F012000D018A51200807E08B6F863702
:102420008737883789378B2FFAD78D868D94080E9A
:102430008C6F8C2FFED78ACD8BFD8D9689AF8D98B2
:1024400089BF8D8886378737883789378D860036EC
:1024500001360236033684AA009084BA00808B2F9E
:10246000ECD7080E8C6F8C2FFED78D8400011200E4
:10247000A88DBFDF959C8C8C030E0F01236F246FFA
:10248000CE0E256FC196C198C19A929089908D8683
:102490008D840001B8DF0D01896B886B876B100E8E
:1024A000866F080E8A6F0001B5DF015000C084F00E
:1024B00070EC0CF08C8470EC0CF08C9470EC0CF0E4
:1024C0001200FE51010A05E0030A0FE0010A19E0BB
:1024D00025D0036A0D0187510B0FE96E010E032011
:1024E000EA6EEFCF01F025D024D0036A0D018751A9
:1024F0005B0FE96E010E0320EA6EEFCF01F019D0F9
:1025000018D0036A0D0187515B0FE96E010E03209D
:10251000EA6EEFCF01F00DD00CD00001036A0D017F
:1025200087510B0FE96E010E0320EA6EEFCF01F029
:1025300000D0000112000D019751200807E0986FAC
:102540009337943795379637982FFAD78D868D9491
:10255000080E996F992FFED797CD98FD8D9696AF5F
:102560008D9896BF8D8893379437953796378D869B
:10257000003601360236033684AA009084BA008001
:10258000982FECD7080E996F992FFED78D840001F4
:102590001200020E0D01936F0001A4EC09F012006D
:1025A0000D01966BB80E956F020E946F480E936FE7
:1025B000180E976F0001BFDF015000C084F0E9DF03
:1025C0000D01966B956B460E946F936B100E976F83
:1025D0000001B1DF015000C084F0DBDF0D01906B22
:1025E000A60E8F6F8E6B8D6B88518D25896F000EB7
:1025F0008E218A6F000E8F218B6F000E90218C6FC1
:102600008CCD96FD8BCD95FD8ACD94FD89CD93FD26
:10261000180E976F00018FDF270E0D01926F100EBD
:10262000916F04000001D4EC09F00D019151D8B470
:102630009207910783AE03D091519211F2E1925328
:1026400003E19151000802E2529401D0528400014A
:10265000D4EC09F0120086CD87FD33DF01C087FD81
:1026600001C088FD9DDF120070EC0CF00D01896B3C
:10267000886B876B120E866F080E8A6F0001CADEA8
:10268000015000C084F08D968D948980928089805D
:102690008C9C0C017DB104D0000188EC0CF00C0185
:1026A000030E0F01236F246FCF0E256FC196C198C3
:1026B000C19A0001A89D1200FE0E0D018E6F89CDFA
:1026C00090FD88CD8FFD8BCD92FD8ACD91FD8DCD76
:1026D00094FD8CCD93FD00011FEC0EF00150120013
:1026E0000D018C6B8C510F0817E38C51040DF350C6
:1026F000036A4F0FE96E0A0E0320EA6EEE5286CD92
:10270000ECFF87CDECFFED52ED52ED5288CDEFFF9F
:1027100089CDECFF8C2BE6D78BCD94FA8ACD95FA38
:10272000000112000D018BBF11D00F0E006E8A390F
:1027300000160A0E005C03E2300E002602D08B5118
:10274000002600C08CFD000195DD0D010F0E8A17DB
:102750000A0E8A5D02E2300E02D08B9F8B518A27CF
:102760008ACD8CFD000186DD120089CD8AFD370EF1
:102770000D018B6F0001D6DF200E0D018C6F000163
:1027800079DD1200DAEC09F009EC0AF0938E000012
:10279000938C00008A9E939E00008A9C939C640EFA
:1027A0000D018D6F0001E0EC09F0020EA66F250E01
:1027B000A56FA6C087FDA5C086FD020E0D01886F1E
:1027C00000014CEC0AF0939E0000938C81ACFED784
:1027D000000000D00000938E0000938E0000938CC8
:1027E00000008A9E939E00008A9C939C640E0D01BB
:1027F0008D6F0001E0EC09F0010EA66FAB0EA56F26
:10280000A6C087FDA5C086FD100E0D01886F0001D2
:102810004CEC0AF0939E0000938C81ACFED7000034
:1028200000D00000938E0000938E0000938C000077
:102830008A9E939E00008A9C939C640E0D018D6F6E
:102840000001E0EC09F04FB811D053B40FD0020EE4
:10285000A66F070EA56FA6C087FDA5C086FD0A0E50
:102860000D01886F00014CEC0AF00ED0020EA66F2D
:10287000110EA56FA6C087FDA5C086FD0A0E0D012D
:10288000886F00014CEC0AF0939E0000938C81ACA1
:10289000FED7000000D00000938E0000938E000051
:1028A000938C00008A9E939E00008A9C939C660EE7
:1028B0000D018D6F0001E0EC09F0020EA66F250EF0
:1028C000A56FA6C087FDA5C086FD020E0D01886F0D
:1028D00000014CEC0AF0939E0000938C81ACFED773
:1028E000000000D00000938E0000938E0000938CB7
:1028F00000008A9E939E00008A9C939C660E0D01A8
:102900008D6F0001E0EC09F0010EA66FAB0EA56F14
:10291000A6C087FDA5C086FD100E0D01886F0001C1
:102920004CEC0AF0939E0000938C81ACFED7000023
:1029300000D00000938E0000938E0000938C000066
:102940008A9E939E00008A9C939C660E0D018D6F5B
:102950000001E0EC09F04FB811D053B40FD0020ED3
:10296000A66F070EA56FA6C087FDA5C086FD0A0E3F
:102970000D01886F00014CEC0AF00ED0020EA66F1C
:10298000110EA56FA6C087FDA5C086FD0A0E0D011C
:10299000886F00014CEC0AF0939E0000938C81AC90
:1029A000FED7000000D00000938E000012000D0141
:1029B000896B0A0E8A6F938E0000938C00008A9EAA
:1029C000939E00008A9C939C100E006E002EFED7F2
:1029D000000088CD8DFD0001E0EC09F00D01896B50
:1029E0008A51895D11E287CD03F08651862BD8B4D8
:1029F000872BE96E03C0EAFFEFCF8DFD0001E0EC0D
:102A000009F00D01892BECD7939E0000938C81ACCB
:102A1000FED7000000D00000938E000000011200DD
:102A2000938E0000938C00008A9E939E00008A9CE7
:102A3000939C100E006E002EFED7000086CD8DFDFB
:102A4000E0EC09F0010E0D018D6F0001E0EC09F0E2
:102A5000150E0D018D6F0001E0EC09F0939E000052
:102A6000938C81ACFED7000000D00000938E000054
:102A700012000D018A6B200E8B6F938E0000938CD9
:102A800000008A9E939E00008A9C939C100E006E0C
:102A9000002EFED7000086CD8DFD0001E0EC09F090
:102AA0004F0E0D018D6F0001E0EC09F089CD8DFD19
:102AB000E0EC09F00D018A6B8B518A5D11E288CD43
:102AC00003F08751872BD8B4882BE96E03C0EAFF47
:102AD000EFCF8DFD0001E0EC09F00D018A2BECD762
:102AE000939E0000938C81ACFED7000000D00000C4
:102AF000938E000000011200938E0000938C000062
:102B00008A9E939E00008A9C939C100E006E002E5D
:102B1000FED7000086CD8DFDE0EC09F04C0E0D01D6
:102B20008D6F0001E0EC09F087CD8DFDE0EC09F040
:102B3000939E0000938C81ACFED7000000D0000073
:102B4000938E000012001EDE010E0D01876FD50E60
:102B5000866F640E886F00012ADF010E0D01876FFA
:102B6000D50E866F660E886F000121DF640E0D01A1
:102B7000866F000155DF640E0D01866F060E886FAB
:102B80006D0E876F896B000174DF640E0D01866F17
:102B9000010E876F0001B0DF660E0D01866F000128
:102BA0003FDF660E0D01866F060E886F8D0E876FF4
:102BB000896B00015EDF660E0D01866F010E876F67
:102BC00000019ADFA8812CEF21F08D80938E000008
:102BD000938C00008A9E939E00008A9C939C640EB6
:102BE0000D018D6F0001E0EC09F0010E0D018D6FFC
:102BF0000001E0EC09F02A0E0D018D6F0001E0EC00
:102C000009F0939E0000938C81ACFED7000000D0A9
:102C10000000938E0000938E0000938C00008A9E2B
:102C2000939E00008A9C939C640E0D018D6F0001A1
:102C3000E0EC09F00D018D6B0001E0EC09F06A0E8B
:102C40000D018D6F0001E0EC09F0939E0000938C64
:102C500081ACFED7000000D00000938E0000938E60
:102C60000000938C00008A9E939E00008A9C939C97
:102C7000660E0D018D6F0001E0EC09F0010E0D01F3
:102C80008D6F0001E0EC09F02A0E0D018D6F00013F
:102C9000E0EC09F0939E0000938C81ACFED700001D
:102CA00000D00000938E0000938E0000938C0000F3
:102CB0008A9E939E00008A9C939C660E0D018D6FE8
:102CC0000001E0EC09F00D018D6B0001E0EC09F072
:102CD0006A0E0D018D6F0001E0EC09F0939E00007B
:102CE000938C81ACFED7000000D00000938E0000D2
:102CF0001200040E0D01866FFA0E936F0001A4EC12
:102D000009F00D01862FF8D700011200938E938CE5
:102D10008D90D4EC09F01200F250006EF29E636ABE
:102D2000340E626E616A7F9C7F9E7F840F01550E18
:102D30007E6EAA0E7E6E7F827FB2FED77F94005099
:102D4000F212F2CF00F0F29E636A350E626E616A93
:102D50007F9C7F9E7F84550E7E6EAA0E7E6E7F8244
:102D60007FB2FED77F940050F212F2CF00F0F29EB5
:102D7000030E636E100E626E616A7F9C7F9E7F847D
:102D8000550E7E6EAA0E7E6E7F827FB2FED77F9436
:102D90000050F212F2CF00F0F29E030E636E200E8E
:102DA000626E616A7F9C7F9E7F84550E7E6EAA0E46
:102DB0007E6E7F827FB2FED77F940050F2120001B8
:102DC0006BEF21F0DFDC010E0D01876FD50E866FF2
:102DD000640E886F0001EBDD010E0D01876FD50ECB
:102DE000866F660E886F0001E2DD640E0D01866F4E
:102DF000000116DE640E0D01866F060E886FAD0EA3
:102E0000876F896B000135DE640E0D01866F010E40
:102E1000876F000171DE660E0D01866F000100DE16
:102E2000660E0D01866F060E886FCD0E876F896B5B
:102E300000011FDE660E0D01866F010E876F000117
:102E40005BDEA88112000C0E0D01866FFA0E936FE7
:102E50000001A4EC09F00D01862FF8D70001120043
:102E6000080E0D018D6FFA0E936F0001A4EC09F0AE
:102E70000D018D2FF8D700011200F250006EF29E66
:102E8000636A360E626E616A7F9C7F9E7F840F014B
:102E9000550E7E6EAA0E7E6E7F827FB2FED77F9425
:102EA0000050F212F2CF00F0F29E636A370E626EAB
:102EB000616A7F9C7F9E7F84550E7E6EAA0E7E6E19
:102EC0007F827FB2FED77F940050F21200017E6BAA
:102ED0007D6B12008E849784030E0F01236F246F85
:102EE000CF0E256FC196C198C19A000103EC12F074
:102EF00012008BCD03F00D018ACDE9FF03C0EAFF7C
:102F0000ECCF9EFDED52EFCF9DFD9A6989CD9CFDE2
:102F100088CD9BFD0A0EA06F960E9F6F0D0EA26FBF
:102F20008E0EA16F0001C3EC0CF00D01906B8F6B46
:102F30008BCD03F08ACDE9FF03C0EAFFECCF03F0AD
:102F4000ED52EFCF01F09051035C27E303E1015014
:102F50008F5D23E28F518C25016E90518D21036E80
:102F600001C091FD926FDD0EA96F0001BAEC0CF06B
:102F700092CDEAFF91CDE9FF01C0EFFF0D018F5126
:102F80008C25016E90518D2101C0E9FFEA6EEF5052
:102F90008E278F2BD8B4902BCBD7DD0EA96F0001D5
:102FA000BAEC0CF001C091FD0D018E51FF0A015CDD
:102FB00011E08BCD03F08ACDE9FF03C0EAFFEC6A94
:102FC000ED52EF6A0001CCEC0DF0000E016E07D05F
:102FD00006D00D010001CCEC0DF0010E016E1200C7
:102FE000010108BD01D024D0080E0A01DE6F030ED6
:102FF000DF6F0A0ED96FDE0ED86F0D018969FA0EE8
:10300000886F8B6B020E8A6FD9CA8DFDD8CA8CFD72
:103010000001DAEC0DF001C0D6FA76EC0CF00A0EE5
:103020000D01886F000185EC0EF076EC0CF00101CB
:10303000000112000C01776B010E766F0D0E0A0174
:10304000DB6F860EDA6F0D01896B510E886F0C0EE7
:103050008B6F760E8A6FDBCA8DFDDACA8CFD00019C
:1030600048DF01C0D6FA0A01DACAE9FFDBCAEAFF83
:10307000EFCF78FC0C017851040803E07851050883
:1030800014E188A506D0889500019BEC0EF00CD0C9
:103090000C014FBC02D04FAA05D000019BEC0EF0F2
:1030A00003D00C0100019CDF0C010001120086CD51
:1030B00087FD0D01896B010E886F8E0E8E6F906BF0
:1030C0008F6B0D0E926F880E916F0D0E946F870EA1
:1030D000936F00011FEC0EF0015012000C017DB146
:1030E00006D07D9F889B0101089F36D00C017DB5DD
:1030F00002D07DA703D001012FD00C0100019ADF7F
:103100000C017851040803E07851050803E100013F
:1031100091DF0C01785107081EE0785106081BE08A
:103120007851040818E07851050815E00B0E0D01E0
:10313000866F0001BCDF0101089F0F011D51A39A9A
:10314000229F2299219B8C98000188EC0CF00C01A5
:103150007D917D9F889B0101000112000D01936B01
:10316000936B93510F0828E393518F25946F000EB2
:103170009021956F93519125E96E000E9221EA6E90
:10318000EFCF96FDF250006EF29E95CD63FF94CD89
:1031900062FF96CD61FF7F9C7F9E7F840F01550E5D
:1031A0007E6EAA0E7E6E7F827FB2FED77F94005025
:1031B000F2120D01932BD5D7000112000C01E82B60
:1031C0000D0175CDE9FF76CDEAFFEF50320808E139
:1031D0000C01862D02D0030E866F25EF26F00D011F
:1031E00075CDE9FF76CDEAFFEF502D0811E1010E14
:1031F0007525E96E000E7621EA6EEF50310808E180
:103200000C01862D02D0020E866F25EF26F00D01EF
:1032100077510108D8B024EF26F075CDE9FF76CDBF
:10322000EAFFEFCF79FD010E7525E96E000E7621DC
:10323000EA6EEFCF78FD7851006E7951036E430E40
:10324000035C06E14F0E005C0001D8B409D10D010A
:10325000420E035C06E1520E005C0001D8B402D1BC
:103260000D01470E035C06E14C0E005C0001D8B472
:103270000ED10D01540E035C06E1530E005C0001FB
:10328000D8B407D10D01530E035C06E1490E005C72
:103290000001D8B436D10D014C0E035C06E1410E9D
:1032A000005C0001D8B472D10D01530E035C06E13D
:1032B0004C0E005C0001D8B47FD10D014E0E035CB2
:1032C00006E1490E005C0001D8B4BED10D014D0EDF
:1032D000035C06E14B0E005C0001D8B48DD20D01F9
:1032E000540E035C07E1490E005C0001D8B498EF6E
:1032F0001FF00D01430E035C07E14B0E005C000163
:10330000D8B4B0EF20F00D01430E035C07E1490E85
:10331000005C0001D8B4B2EF20F00D01570E035C41
:1033200007E14E0E005C0001D8B4CEEF20F00D0195
:10333000570E035C07E1530E005C0001D8B4F7EFB1
:1033400020F00D01490E035C07E1440E005C000112
:10335000D8B428EF21F00D01480E035C07E1500EB0
:10336000005C0001D8B434EF21F00D01500E035C75
:1033700007E14E0E005C0001D8B473EF21F00D019F
:10338000520E035C07E1450E005C0001D8B4EFEF7C
:1033900022F00D01420E035C07E1420E005C0001C9
:1033A000D8B43CEF23F00D01430E035C07E1430E5C
:1033B000005C0001D8B45AEF23F00D014D0E035C00
:1033C00007E1430E005C0001D8B47BEF23F00D0150
:1033D000430E035C07E1570E005C0001D8B483EF95
:1033E00023F00D01530E035C07E1420E005C000167
:1033F000D8B4C5EF23F00D014D0E035C07E1520E6A
:10340000005C0001D8B4FAEF23F00D01440E035C18
:1034100007E14D0E005C0001D8B419EF24F00D0156
:10342000440E035C07E1500E005C0001D8B405EFC8
:1034300025F00D01530E035C07E1560E005C000100
:10344000D8B418EF25F00D014D0E035C07E1440ED2
:10345000005C0001D8B40DEF26F00D0121EF26F03D
:1034600022EF26F076CD8EFD75CD8DFD030E0D017C
:103470008F6F020E906F100E916F000107EC11F02C
:1034800001C07AFD7ACD84FCA88122EF26F022EFDC
:1034900026F076CD8EFD75CD8DFD030E0D018F6F5F
:1034A000010E906F100E916F000107EC11F001C03A
:1034B0007AFD0D017A2D22D04FBC20D00C016FAFC8
:1034C00002D00D011BD055AE02D00D0117D04FAA6E
:1034D00002D00D0113D06FAD02D00D010FD055AA4F
:1034E00002D00D010BD055AC02D00D0107D055A86C
:1034F00002D00D0103D04F866F9B0D01000122EF1A
:1035000026F076CD8EFD75CD8DFD030E0D018F6FEE
:10351000010E906F100E916F000107EC11F001C0C9
:103520007AFD0D017A2D2FD04FBC14D00C016FAF56
:1035300002D00D010FD055AE02D00D010BD04FAA15
:1035400002D00D0107D06FAD02D00D0103D055AAF6
:1035500019D00D0155AC02D00C0114D055A802D0E1
:103560000C0110D00C018889010108810C016F99B0
:10357000D80EF66E080EF76E000EF86E00015CECC9
:1035800011F00C010D01000122EF26F076CD8EFD29
:1035900075CD8DFD030E0D018F6F010E906F100E16
:1035A000916F000107EC11F001C07AFD7ACD75FC36
:1035B00070EF11F022EF26F076CD8EFD75CD8DFDEA
:1035C000030E0D018F6F010E906F100E916F0001B1
:1035D00007EC11F001C07AFD7ACD75FCA8AD01D0E1
:1035E000A88F9EEF11F0D0EC09F038EC12F06DC00E
:1035F00086FD2BEC13F0470E0D01866F00012BECBE
:1036000013F0390E0D01866F00012BEC13F0F25010
:10361000006EF29E636A270E626E6DC061FF7F9C32
:103620007F9E7F840F01550E7E6EAA0E7E6E7F8276
:103630007FB2FED77F940050F2120001A8BF02D0E3
:1036400034EC13F022EF26F076CD8EFD75CD8DFD96
:10365000030E0D018F6F020E906F100E916F00011F
:1036600007EC11F001C07CFDF250006EF29E636A1F
:10367000E00E626E7CCD61FF7F9C7F9E7F840F0198
:10368000550E7E6EAA0E7E6E7F827FB2FED77F942D
:103690000050F21276CD8EFD75CD8DFD050E0D011B
:1036A0008F6F020E906F100E916F000107EC11F0FA
:1036B00001C07DFDF250006EF29E636AE10E626E03
:1036C0007DCD61FF7F9C7F9E7F840F01550E7E6EB6
:1036D000AA0E7E6E7F827FB2FED77F940050F212D8
:1036E0000A01D8CAE9FFD9CAEAFF020EEF6E010E3D
:1036F000D825E96E000ED921EA6EF2CF88FDF29E40
:10370000636AE10E626E7F9C7F9E7F8061500D0137
:1037100088BFF28EEF6ED8CA01F0D9CA03F001C09B
:1037200086FD0D0103C087FD896B640E886F0C0E4A
:103730008B6F760E8A6F03C08DFD01C08CFD00017A
:103740005CEC13F001C0D6FAF2CF86FDF29E636AFC
:10375000E00E626E7F9C7F9E7F8061500D0186BF70
:10376000F28E7C6FF2CF86FDF29E636AE10E626E8E
:103770007F9C7F9E7F80615086BFF28E7D6F7CCD67
:103780008EF07DCD8DF0F00EF66E080EF76E000E09
:10379000F86E00015CEC11F07CCDDEFA7DCDDFFA35
:1037A0000A0E0A01D96FDE0ED86F0C01776B020E7C
:1037B000766F0D01896B640E886F0C0E8B6F760E21
:1037C0008A6FD9CA8DFDD8CA8CFD00015CEC13F05C
:1037D00001C0D6FA8EC087FD8DC086FD8EC089FDE2
:1037E0008DC088FD0A0E0D018A6F020E8B6F0001DD
:1037F00070EC13F022EF26F076CD8EFD75CD8DFDA9
:10380000030E0D018F6F020E906F100E916F00016D
:1038100007EC11F001C07AFDF250006EF29E020E2C
:10382000636E100E626E7ACD61FF7F9C7F9E7F84F7
:103830000F01550E7E6EAA0E7E6E7F827FB2FED77E
:103840007F940050F21276CD8EFD75CD8DFD050E64
:103850000D018F6F020E906F100E916F000107EC3B
:1038600011F001C07AFDF250006EF29E020E636EFE
:10387000110E626E7ACD61FF7F9C7F9E7F840F0167
:10388000550E7E6EAA0E7E6E7F827FB2FED77F942B
:103890000050F21276CD8EFD75CD8DFD070E0D0117
:1038A0008F6F020E906F100E916F000107EC11F0F8
:1038B00001C07AFDF250006EF29E020E636E120E8F
:1038C000626E7ACD61FF7F9C7F9E7F840F01550ED3
:1038D0007E6EAA0E7E6E7F827FB2FED77F940050EE
:1038E000F21276CD8EFD75CD8DFD090E0D018F6F17
:1038F000020E906F100E916F000107EC11F001C0E5
:103900007AFDF250006EF29E020E636E130E626E2E
:103910007ACD61FF7F9C7F9E7F840F01550E7E6E66
:10392000AA0E7E6E7F827FB2FED77F940050F21285
:1039300076CD8EFD75CD8DFD0B0E0D018F6F020EB8
:10394000906F100E916F000107EC11F001C07AFD2D
:10395000F250006EF29E020E636E140E626E7ACD0D
:1039600061FF7F9C7F9E7F840F01550E7E6EAA0EA5
:103970007E6E7F827FB2FED77F940050F21276CDAA
:103980008EFD75CD8DFD0D0E0D018F6F020E906FAA
:10399000100E916F000107EC11F001C07AFDF2509A
:1039A000006EF29E020E636E150E626E7ACD61FF9E
:1039B0007F9C7F9E7F840F01550E7E6EAA0E7E6EC9
:1039C0007F827FB2FED77F940050F21276CD8EFDBB
:1039D00075CD8DFD0F0E0D018F6F020E906F100EC5
:1039E000916F000107EC11F001C07AFDF250006EFA
:1039F000F29E020E636E160E626E7ACD61FF7F9CA0
:103A00007F9E7F840F01550E7E6EAA0E7E6E7F8292
:103A10007FB2FED77F940050F21276CD8EFD75CD29
:103A20008DFD110E0D018F6F020E906F100E916FB4
:103A3000000107EC11F001C07AFDF250006EF29E19
:103A4000020E636E170E626E7ACD61FF7F9C7F9EC1
:103A50007F840F01550E7E6EAA0E7E6E7F827FB22E
:103A6000FED77F940050F21276CD8EFD75CD8DFD80
:103A7000130E0D018F6F020E906F100E916F0001EB
:103A800007EC11F001C07AFDF250006EF29E020EBA
:103A9000636E180E626E7ACD61FF7F9C7F9E7F847D
:103AA0000F01550E7E6EAA0E7E6E7F827FB2FED70C
:103AB0007F940050F21276CD8EFD75CD8DFD150EE2
:103AC0000D018F6F020E906F100E916F000107ECC9
:103AD00011F001C07AFDF250006EF29E020E636E8C
:103AE000190E626E7ACD61FF7F9C7F9E7F840F01ED
:103AF000550E7E6EAA0E7E6E7F827FB2FED77F94B9
:103B00000050F21276CD8EFD75CD8DFD170E0D0194
:103B10008F6F020E906F100E916F000107EC11F085
:103B200001C07AFDF250006EF29E020E636E1A0E14
:103B3000626E7ACD61FF7F9C7F9E7F840F01550E60
:103B40007E6EAA0E7E6E7F827FB2FED77F9400507B
:103B5000F21276CD8EFD75CD8DFD190E0D018F6F94
:103B6000020E906F100E916F000107EC11F001C072
:103B70007AFDF250006EF29E020E636E1B0E626EB4
:103B80007ACD61FF7F9C7F9E7F840F01550E7E6EF4
:103B9000AA0E7E6E7F827FB2FED77F940050F21213
:103BA00076CD8EFD75CD8DFD1B0E0D018F6F020E36
:103BB000906F100E916F000107EC11F001C07AFDBB
:103BC000F250006EF29E020E636E1C0E626E7ACD93
:103BD00061FF7F9C7F9E7F840F01550E7E6EAA0E33
:103BE0007E6E7F827FB2FED77F940050F21276CD38
:103BF0008EFD75CD8DFD1D0E0D018F6F020E906F28
:103C0000100E916F000107EC11F001C07AFDF25027
:103C1000006EF29E020E636E1D0E626E7ACD61FF23
:103C20007F9C7F9E7F840F01550E7E6EAA0E7E6E56
:103C30007F827FB2FED77F940050F21276CD8EFD48
:103C400075CD8DFD1F0E0D018F6F020E906F100E42
:103C5000916F000107EC11F001C07AFDF250006E87
:103C6000F29E020E636E1E0E626E7ACD61FF7F9C25
:103C70007F9E7F840F01550E7E6EAA0E7E6E7F8220
:103C80007FB2FED77F940050F21276CD8EFD75CDB7
:103C90008DFD210E0D018F6F020E906F100E916F32
:103CA000000107EC11F001C07AFDF250006EF29EA7
:103CB000020E636E1F0E626E7ACD61FF7F9C7F9E47
:103CC0007F840F01550E7E6EAA0E7E6E7F827FB2BC
:103CD000FED77F940050F2120C017D99080EF66E0B
:103CE000090EF76E000EF86E00015CEC11F00D018C
:103CF0007B6B7B510F081DE3100E7B25866F020E38
:103D0000876FD8B0872BF2CF88FDF29E87CD63FFF7
:103D100086CD62FF7F9C7F9E7F80615088BFF28E40
:103D2000866F86CD89FD0001B5EC13F00D017B2B6C
:103D3000E0D70D0E8C6F00013AEC11F0F2CF86FD4A
:103D4000F29E020E636E180E626E7F9C7F9E7F80D5
:103D500061500D0186BFF28E876FF250006EF29EA9
:103D6000636AD00E626E87CD61FF7F9C7F9E7F84E9
:103D70000F01550E7E6EAA0E7E6E7F827FB2FED739
:103D80007F940050F212F2CF86FDF29E020E636E17
:103D9000170E626E7F9C7F9E7F8061500D0186BFF3
:103DA000F28E876FF250006EF29E636AD10E626EE1
:103DB00087CD61FF7F9C7F9E7F840F01550E7E6EB5
:103DC000AA0E7E6E7F827FB2FED77F940050F212E1
:103DD000240EF66E090EF76E000EF86E00015CEC14
:103DE00011F0F2CF86FDF29E636AD00E626E7F9C68
:103DF0007F9E7F8061500D0186BFF28E0A01DE6FCB
:103E0000F2CF86FDF29E636AD10E626E7F9C7F9E2A
:103E10007F8061500D0186BFF28E0A01DF6F0A0EAE
:103E2000D96FDE0ED86F0C01776B020E766F0D0125
:103E3000896B620E886F0C0E8B6F760E8A6FD9CAF3
:103E40008DFDD8CA8CFD00015CEC13F001C0D6FAE0
:103E5000380EF66E090EF76E000EF86E5CEC11F07F
:103E60000D017B6B7B510F081EE3036A7B51DE0F54
:103E7000E96E0A0E0320EA6E100E7B25886F020E93
:103E8000896FD8B0892BF2CF8AFDF29E89CD63FF6E
:103E900088CD62FF7F9C7F9E7F8061508ABFF28EBB
:103EA000EF6E7B2BDFD7520EF66E090EF76E000E0B
:103EB000F86E00015CEC11F00D017B6B7B510F087B
:103EC0000FE3036A7B51DE0FE96E0A0E0320EA6EF0
:103ED000EFCF89FD0001B5EC13F00D017B2BEED780
:103EE0000D0E8C6F00013AEC11F06C0EF66E090E9F
:103EF000F76E000EF86E5CEC11F00A0E0A01D96F35
:103F0000DE0ED86F0C01776B100E766F0D01896B8A
:103F1000886B0C0E8B6F760E8A6FD9CA8DFDD8CA4E
:103F20008CFD00015CEC13F001C0D6FA22EF26F004
:103F300076CD8EFD75CD8DFD030E0D018F6F020EBA
:103F4000906F100E916F000107EC11F001C07CFD25
:103F50007CCD83FCF250006EF29E020E636E400E2A
:103F6000626E83CC61FF7F9C7F9E7F840F01550E24
:103F70007E6EAA0E7E6E7F827FB2FED77F94005047
:103F8000F21276CD8EFD75CD8DFD050E0D018F6F74
:103F9000020E906F100E916F000107EC11F001C03E
:103FA0007DFD7DCD82FCF250006EF29E020E636EAE
:103FB000410E626E82CC61FF7F9C7F9E7F840F01E9
:103FC000550E7E6EAA0E7E6E7F827FB2FED77F94E4
:103FD0000050F21276CD8EFD75CD8DFD070E0D01D0
:103FE0008F6F020E906F100E916F000107EC11F0B1
:103FF00001C07EFD7ECD81FCF250006EF29E020E6D
:10400000636E420E626E81CC61FF7F9C7F9E7F84D7
:104010000F01550E7E6EAA0E7E6E7F827FB2FED796
:104020007F940050F21276CD8EFD75CD8DFD090E78
:104030000D018F6F020E906F100E916F000107EC53
:1040400011F001C07FFD7FCD80FCF250006EF29E2A
:10405000020E636E430E626E80CC61FF7F9C7F9E7A
:104060007F840F01550E7E6EAA0E7E6E7F827FB218
:10407000FED77F940050F21283CC85FD82CC84FD64
:1040800081CC83FD80CC82FD0C0188930D0185518C
:10409000550823E2FF0A0DE18451D3081EE2FF0A0E
:1040A00008E18351DA0819E2FF0A03E1825180082E
:1040B00014E285518F0811E307E1845142080DE3B2
:1040C00003E183511E0809E383CCDEFA82CCDFFAD8
:1040D00081CCE0FA80CCE1FA09D00C018883550E3E
:1040E0000A01DE6FDF6FE06FE16F0D010A0E0A015A
:1040F000D96FDE0ED86F0C01776B040E766F0D0151
:10410000896B9A0E886F0C0E8B6F760E8A6FD9CAE8
:104110008DFDD8CA8CFD00015CEC13F001C0D6FA0D
:104120001C0E0A01DE6F200EDF6F0A0ED96FDE0E45
:10413000D86F0C01776B020E766F0D01896BA00EA4
:10414000886F0C0E8B6F760E8A6FD9CA8DFDD8CA18
:104150008CFD00015CEC13F001C0D6FA22EF26F0D2
:1041600022EF26F076CD8EFD75CD8DFD030E0D016F
:104170008F6F010E906F100E916F000107EC11F020
:1041800001C07AFD0C017A6B0D017A2D04D0080E66
:104190000C017A6F0D01000122EF26F00C016FBFB8
:1041A00023D04FBC21D055BE1FD06FBD1DD04FBAFC
:1041B0001BD055BA19D04FB617D06FBB15D04FB41E
:1041C00013D0010108890C017D870A0E0101016FDE
:1041D0008A0EF66E090EF76E000EF86E0001C0EC46
:1041E0000EF07CEC0CF00C01000122EF26F076CDF5
:1041F0008EFD75CD8DFD030E0D018F6F010E906F3D
:10420000100E916F000107EC11F001C07AFD0D0155
:104210007A51000A000107E0010A08E0030A0AE0F7
:10422000010A0CE010D00C017B6B0FD0010E0C01C9
:104230007B6F0BD0020E0C017B6F07D0030E0C01BD
:104240007B6F03D000010C017B6B000122EF26F095
:10425000D0EC09F0A3EF15F0E5EC15F079EC16F0D1
:1042600086EC16F022EF26F076CD8EFD75CD8DFD15
:10427000030E0D018F6F010E906F100E916F0001F4
:1042800007EC11F001C07AFD0D017A51000A00011E
:1042900003E0010A04E022D00C017C6B21D0010E66
:1042A0000C017C6FF250006EF29E636A330E626EF8
:1042B000A70E616E7F9C7F9E7F840F01550E7E6EE0
:1042C000AA0E7E6E7F827FB2FED77F940050F212DC
:1042D00000018CEF16F00C0103D000010C017C6B87
:1042E000000122EF26F076CD8EFD75CD8DFD030EFB
:1042F0000D018F6F010E906F100E916F000107EC92
:1043000011F001C07AFD0D017A51000A000103E0AD
:10431000010A05E05FD1010E0C017C6F5ED10C013A
:104320007C6B0001D0EC09F0E2EC16F0E5EC15F046
:1043300023EC17F086EC16F0F250006EF29E636AE2
:10434000E00E626E020E616E7F9C7F9E7F840F0185
:10435000550E7E6EAA0E7E6E7F827FB2FED77F9450
:104360000050F212F2CF00F0F29E636AE10E626E2C
:10437000200E616E7F9C7F9E7F84550E7E6EAA0EFE
:104380007E6E7F827FB2FED77F940050F212F2CF12
:1043900000F0F29E010E636EF00E626E300E616EE2
:1043A0007F9C7F9E7F84550E7E6EAA0E7E6E7F82DE
:1043B0007FB2FED77F940050F212F2CF00F0F29E4F
:1043C000010E636EF10E626E300E616E7F9C7F9EF9
:1043D0007F84550E7E6EAA0E7E6E7F827FB2FED7E0
:1043E0007F940050F212F2CF00F0F29E010E636E45
:1043F000F20E626E300E616E7F9C7F9E7F84550E42
:104400007E6EAA0E7E6E7F827FB2FED77F940050B2
:10441000F212F2CF00F0F29E010E636EF30E626EA6
:10442000300E616E7F9C7F9E7F84550E7E6EAA0E3D
:104430007E6E7F827FB2FED77F940050F212F2CF61
:1044400000F0F29E010E636EF40E626E300E616E2D
:104450007F9C7F9E7F84550E7E6EAA0E7E6E7F822D
:104460007FB2FED77F940050F212F2CF00F0F29E9E
:10447000010E636EF50E626E300E616E7F9C7F9E44
:104480007F84550E7E6EAA0E7E6E7F827FB2FED72F
:104490007F940050F212F2CF00F0F29E010E636E94
:1044A000F60E626E300E616E7F9C7F9E7F84550E8D
:1044B0007E6EAA0E7E6E7F827FB2FED77F94005002
:1044C000F212F2CF00F0F29E010E636EF70E626EF2
:1044D000300E616E7F9C7F9E7F84550E7E6EAA0E8D
:1044E0007E6E7F827FB2FED77F940050F212F2CFB1
:1044F00000F0F29E010E636EF80E626E300E616E79
:104500007F9C7F9E7F84550E7E6EAA0E7E6E7F827C
:104510007FB2FED77F940050F212F2CF00F0F29EED
:10452000010E636EF90E626E300E616E7F9C7F9E8F
:104530007F84550E7E6EAA0E7E6E7F827FB2FED77E
:104540007F940050F212F2CF00F0F29E636A330EB5
:10455000626E616A7F9C7F9E7F84550E7E6EAA0E7E
:104560007E6E7F827FB2FED77F940050F212AA0E39
:10457000F66E090EF76E000EF86E0001C0EC0EF03C
:104580007CEC0CF0CA0EF66E090EF76E000EF86E9B
:10459000C0EC0EF030EC17F0F250006EF29E030EFD
:1045A000636E626A616A7F9C7F9E7F840F01550EF5
:1045B0007E6EAA0E7E6E7F827FB2FED77F94005001
:1045C000F21200013DEC17F02DEC08F0FF000C0199
:1045D00004D00001010E0C017C6F000133D376CDB5
:1045E0008EFD75CD8DFD030E0D018F6F020E906F48
:1045F000100E916F000107EC11F001C07CFD76CD2B
:104600008EFD75CD8DFD050E0D018F6F020E906F25
:10461000100E916F000107EC11F001C07DFD7CCD03
:1046200081FD7DCD80FD0D018051A50823E18151E3
:104630005A0820E1F250006EF29E030E636E626A29
:10464000080E616E7F9C7F9E7F840F01550E7E6EEB
:10465000AA0E7E6E7F827FB2FED77F940050F21248
:10466000898E0001D4EC09F03DEC17F02DEC08F038
:10467000FF000D010001E6D276CD8EFD75CD8DFDDA
:10468000030E0D018F6F010E906F100E916F0001E0
:1046900007EC11F001C07AFD0D017A51000A00010A
:1046A00003E0010A03E004D08E8E03D08E9E01D079
:1046B0008E8EC8D276CD8EFD75CD8DFD030E0D018B
:1046C0008F6F010E906F100E916F000107EC11F0CB
:1046D00001C07AFD0D017A51000A000103E0010AD0
:1046E00004E006D06AEC17F005D02DEC08F002D0FB
:1046F0006AEC17F0A7D20C017D8788817D8F7B6BD8
:10470000889D00019FD276CD8EFD75CD8DFD030E67
:104710000D018F6F010E906F100E916F000107EC6D
:1047200011F001C07AFD0D017A2D05D00C018587AD
:10473000859906D00D017A5304E10C01858985978E
:104740000D010C0170917D97859F889D7DB519D0D5
:10475000400E0A01DE6F0A0ED96FDE0ED86F0D0112
:10476000896B886B8B6B010E8A6FD9CA8DFDD8CA95
:104770008CFD0001DAEC0DF001C0D6FABCEC09F0BA
:104780000C0100016EEC18F05DD20C016FBF23D05C
:104790004FBC21D055BE1FD06FBD1DD04FBA1BD00E
:1047A00055BA19D04FB617D06FBB15D055A013D03E
:1047B0004FB411D07D87DE0EF66E090EF76E000E37
:1047C000F86E0001C0EC0EF003EC12F00A0E0101CD
:1047D000016F0ED00C017D97FA0EF66E090EF76E82
:1047E000000EF86E0001C0EC0EF003EC12F00101B7
:1047F000000128D20C017D97F250006EF29E030E4C
:10480000636E626A080E616E7F9C7F9E7F840F01DB
:10481000550E7E6EAA0E7E6E7F827FB2FED77F948B
:104820000050F21200013DEC17F02DEC08F0FF00F3
:1048300009D276CD8EFD75CD8DFD030E0D018F6FE6
:10484000020E906F100E916F000107EC11F001C085
:104850007AFDF250006EF29E010E636E800E626E63
:104860007ACD61FF7F9C7F9E7F840F01550E7E6E07
:10487000AA0E7E6E7F827FB2FED77F940050F21226
:1048800076CD8EFD75CD8DFD050E0D018F6F020E5F
:10489000906F100E916F000107EC11F001C07AFDCE
:1048A000F250006EF29E010E636E810E626E7ACD42
:1048B00061FF7F9C7F9E7F840F01550E7E6EAA0E46
:1048C0007E6E7F827FB2FED77F940050F21276CD4B
:1048D0008EFD75CD8DFD070E0D018F6F020E906F51
:1048E000100E916F000107EC11F001C07AFDF2503B
:1048F000006EF29E010E636E820E626E7ACD61FFD3
:104900007F9C7F9E7F840F01550E7E6EAA0E7E6E69
:104910007F827FB2FED77F940050F21276CD8EFD5B
:1049200075CD8DFD090E0D018F6F020E906F100E6B
:10493000916F000107EC11F001C07AFDF250006E9A
:10494000F29E010E636E830E626E7ACD61FF7F9CD4
:104950007F9E7F840F01550E7E6EAA0E7E6E7F8233
:104960007FB2FED77F940050F21276CD8EFD75CDCA
:104970008DFD0B0E0D018F6F020E906F100E916F5B
:10498000000107EC11F001C07AFDF250006EF29EBA
:10499000010E636E840E626E7ACD61FF7F9C7F9EF6
:1049A0007F840F01550E7E6EAA0E7E6E7F827FB2CF
:1049B000FED77F940050F21276CD8EFD75CD8DFD21
:1049C0000D0E0D018F6F020E906F100E916F000192
:1049D00007EC11F001C07AFDF250006EF29E010E5C
:1049E000636E850E626E7ACD61FF7F9C7F9E7F84B1
:1049F0000F01550E7E6EAA0E7E6E7F827FB2FED7AD
:104A00007F940050F21200011DD1030E0D01752597
:104A1000866F000E7621876F010E906FF00E8F6FFC
:104A200087CD92FD86CD91FD0001AEEC18F00AD144
:104A300076CD8EFD75CD8DFD030E0D018F6F010EB0
:104A4000906F100E916F000107EC11F001C07AFD1C
:104A5000300E0D017A25866FF250006EF29E020E26
:104A6000636EC00E626E86CD61FF7F9C7F9E7F84E9
:104A70000F01550E7E6EAA0E7E6E7F827FB2FED72C
:104A80007F940050F21276CD8EFD75CD8DFD040E13
:104A90000D018F6F010E906F100E916F000107ECEA
:104AA00011F001C07AFD300E0D017A25866FF250AB
:104AB000006EF29E020E636EC10E626E86CD61FFC5
:104AC0007F9C7F9E7F840F01550E7E6EAA0E7E6EA8
:104AD0007F827FB2FED77F940050F21276CD8EFD9A
:104AE00075CD8DFD050E0D018F6F010E906F100EAF
:104AF000916F000107EC11F001C07AFD300E0D013D
:104B00007A25866FF250006EF29E020E636EC20E20
:104B1000626E86CD61FF7F9C7F9E7F840F01550E64
:104B20007E6EAA0E7E6E7F827FB2FED77F9400508B
:104B3000F212F2CF86FDF29E020E636EC00E626E1E
:104B40007F9C7F9E7F8061500D0186BFF28E876FB4
:104B5000F250006EF29E020E636E9E0E626E87CD64
:104B600061FF7F9C7F9E7F840F01550E7E6EAA0E93
:104B70007E6E7F827FB2FED77F940050F212F2CF1A
:104B800086FDF29E020E636EC10E626E7F9C7F9E5A
:104B90007F8061500D0186BFF28E876FF250006EEC
:104BA000F29E020E636E9F0E626E87CD61FF7F9C48
:104BB0007F9E7F840F01550E7E6EAA0E7E6E7F82D1
:104BC0007FB2FED77F940050F212F2CF86FDF29EA4
:104BD000020E636EC20E626E7F9C7F9E7F8061506C
:104BE0000D0186BFF28E876FF250006EF29E020EAC
:104BF000636EA00E626E87CD61FF7F9C7F9E7F8477
:104C00000F01550E7E6EAA0E7E6E7F827FB2FED79A
:104C10007F940050F212000115D0030E0D0175258E
:104C2000866F000E7621876F030E906F400E8F6F98
:104C300087CD92FD86CD91FD0001AEEC18F002D03B
:104C40000D01000100D00D010C01000112000166F0
:104C500003D0026602D007D0022A00C0EEFF012E68
:104C6000FCD7022EFAD712000D0174510D0821E174
:104C7000036A3951E90FE96E0C0E0320EA6EEF6A00
:104C80000C0E766FE90E756F39CD77FD0001DEEC05
:104C900018F00D01396B0C0EEA6EE90EE96E006A30
:104CA000026A500E016E0001D2DF0C01876B4AD000
:104CB0000D01745338E1395301E145D00C01872BC4
:104CC000872D0DD00D013951392B036AE90FE96E9B
:104CD0000C0E0320EA6E2C0EEF6E24D00C010D0199
:104CE00039073951392B036AE90FE96E0C0E03209D
:104CF000EA6EEF6A0C0E766FE90E756F39CD77FDAF
:104D00000001DEEC18F00D01396B0C0EEA6EE90EB5
:104D1000E96E006A026A500E016E000198DF0C0114
:104D2000876B0D0110D039514F080DE33951392BE4
:104D3000036AE90FE96E0C0E0320EA6E74CDEFFFF3
:104D40000C01876B0D010001C9EF26F004000C0176
:104D50007DB101D020D00001FD51FC5D1BE0036A54
:104D6000FD51AC0FE96E000E0320EA6EEFCF73FD2C
:104D7000D7EC0EF0010EFD250D01756F936F500EEF
:104D8000946F0001DEEC0EF000C0FDF073CD74FDF9
:104D90006BD7E2D70C01000112006D51340A1BE001
:104DA000170A1CE0070A1EE0010A20E0020A22E0BE
:104DB0000F0A24E0030A26E0050A28E0010A2AE097
:104DC0001E0A2CE0030A2EE0010A30E0060A32E057
:104DD000700A34E038D00C018D6B37D0010E0C0115
:104DE0008D6F33D0020E0C018D6F2FD0030E0C018E
:104DF0008D6F2BD0040E0C018D6F27D0050E0C018A
:104E00008D6F23D0060E0C018D6F1FD0070E0C0185
:104E10008D6F1BD0080E0C018D6F17D0090E0C0181
:104E20008D6F13D00A0E0C018D6F0FD00B0E0C017D
:104E30008D6F0BD00C0E0C018D6F07D00D0E0C0179
:104E40008D6F03D000010C018D6B000112000C016D
:104E5000706B4FBC04D00001A8A504D00C01708F6A
:104E600003D000010C01709F4FBA04D00001A8A329
:104E700004D00C01708D03D000010C01709D4FA671
:104E800002D0708B01D0709B4FA802D0708901D0E6
:104E900070994FA402D0708701D0709752A002D0B1
:104EA000708501D0709552AE02D0708301D070939E
:104EB000000112000D0174BF12D00F0E006E733985
:104EC00000160A0E005C03E2300E002602D0745178
:104ED00000260050A4A8FED70F011C6F0D010F0E75
:104EE00073170A0E735D02E2300E02D0749F745184
:104EF00073277351A4A8FED70F011C6F0001120085
:104F00000C017DB101D0C1D00001A1DF380EF66ED9
:104F1000030EF76E000EF86EC0EC0EF0D4EC09F044
:104F20008BCC72FD8CCC71FD72CD73FD370E0D01F3
:104F3000746F0001BFDF71CD73FD370E0D01746F0B
:104F40000001B8DF2C0EA4A8FED70F011C6F0001D2
:104F5000D4EC09F08DCC73FD370E0D01746F000198
:104F6000A9DF2C0EA4A8FED70F011C6F0001D4EC02
:104F700009F070CC73FD370E0D01746F00019ADFDC
:104F80002C0EA4A8FED70F011C6F0001D4EC09F071
:104F900090CC73FD370E0D01746F00018BDF2C0E6A
:104FA000A4A8FED70F011C6F0001D4EC09F091CC2E
:104FB00073FD370E0D01746F00017CDF2C0EA4A869
:104FC000FED70F011C6F0001D4EC09F07AC073FD0D
:104FD000370E0D01746F00016DDF79C073FD370E60
:104FE0000D01746F000166DF2C0EA4A8FED70F011F
:104FF0001C6F0001D4EC09F083C073FD370E0D0166
:10500000746F000157DF82C073FD370E0D01746F9E
:10501000000150DF2C0EA4A8FED70F011C6F000169
:10502000D4EC09F099CC73FD370E0D01746F0001BB
:1050300041DF2C0EA4A8FED70F011C6F0001D4EC99
:1050400009F084CC73FD370E0D01746F000132DF5F
:105050002C0EA4A8FED70F011C6F0001D4EC09F0A0
:10506000FEC073FD370E0D01746F000123DFD4EC19
:1050700009F00D0EA4A8FED70F011C6F0001D4EC9F
:1050800009F064DE03EC12F00C01000112000C01C7
:105090007DB101D022D08EC06FFD0D018DC070FD9D
:1050A0000D016FCD8BFC70CD8CFC61C090FC4EC0AF
:1050B00091FC7AC06FFD0D0179C070FD0D016FCDBF
:1050C00095FC70CD96FC81C097FC80C098FC52C0C6
:1050D00099FC000162DE14DF0C01000112000101E5
:1050E00008BD00D0000112000101089F0F011D51F1
:1050F000A39A229F2299219B8C98000188EC0CF0A6
:105100000C017D917D9F889B000112000D016E6B4B
:105110000C017DA118D07DAF12D05E0EF66E080E88
:10512000F76E000EF86E0001C0EC0EF00C01888BDB
:105130000001D4EC09F00ADE03EC12F00C010001CE
:10514000A6DF73D00C018C980001F9EC11F070EC23
:105150000CF00F011D51A39A0001FC6BFD6B9884AC
:105160000F012097190E1E6FA60E216F900E226F51
:105170008C88000130EC17F00F011D51A38A00014B
:10518000D4EC09F00101088F010E0C01866F0D01AE
:105190006E516E2B0E081BE30C0186510308D8A438
:1051A00002D00D0114D07D81010E866F6A0EF66E5D
:1051B000080EF76E000EF86E0001C0EC0EF0D4EC95
:1051C00009F0C4DD03EC12F00C01E1D70D010C0174
:1051D0008651030825E1000182DF96EC0CF00B0EEE
:1051E0000D01886F000185EC0EF0D4EC09F00C0184
:1051F0007D817D937DAF0BD0760EF66E080EF76E37
:10520000000EF86E0001C0EC0EF00C01888B00015E
:10521000D4EC09F09BDD03EC12F039DF06D00C0171
:10522000000162DF0C017D83000112000C017DB1E1
:10523000BAD0030E0F01236F246FCE0E256FC196D7
:10524000C188C19A8C96898C8A880001A8BB03D03A
:1052500070EC0CF002D076EC0CF0606B100E0D01CF
:10526000536F0001A2EC0BF08A9888EC0CF05830D8
:10527000036E5730026E03320232033202320332BF
:1052800002320F0E031602C060F060517C0803E288
:10529000640E616F39D06051FF0A15E0830A15E092
:1052A000070A16E0010A17E0030A18E0010A19E0EC
:1052B0000F0A1AE0010A1BE0030A1CE0010A1DE0C4
:1052C000070A1EE020D0640E616F4B0E616F1CD088
:1052D0004B0E616F19D04B0E616F16D0320E616F9D
:1052E00013D0320E616F10D0190E616F0DD0190EF0
:1052F000616F0AD00A0E616F07D00A0E616F04D089
:10530000050E616F01D0616B6051580801E2509445
:105310006051740814E350B412D04FB407D05F2A20
:105320005F50010803E35196519840D0020E5F6E22
:105330004F846051710802E3518651980ED04FA4FA
:1053400008D06051780804E24F945F6A51965198F2
:1053500004D04F945F6A5196519861510101055DE7
:1053600009E1006A4FB400860001FF510018080BE4
:1053700018E001014FB002D0000113D061C005F167
:105380000001FF974FB4FF879BEC0EF0BFDE30ECBF
:1053900017F030EC17F079EC16F06EEC18F0F0EC3A
:1053A00017F004D00C01000170EC0CF012008B8C93
:1053B000080E016E00D00000018E10D0019E0D017C
:1053C0006C330001D8B08B9CD8A08B8C018C06D09C
:1053D000019C012EF4D700D000008B9C010E006EC2
:1053E000E96AE92EFED7002EFBD70D0EE96EE92EF5
:1053F000FED700D00000040001BEE0D701BCE8D712
:1054000012000D016BBF11D00F0E006E6A3900162D
:105410000A0E005C03E2300E002602D06B5100261B
:1054200000C06CFD0001C3DF0D010F0E6A170A0EEC
:105430006A5D02E2300E02D06B9F6B516A276ACD23
:105440006CFD0001B4DF120068CD6AFD370E0D015E
:105450006B6F0001D6DF200E0D016C6F0001A7DF1E
:10546000D4EC09F012000900F55210E0F6CF66FD09
:10547000F7CF67FDF8CF68FDF5CF6CFD98DF66CDFF
:10548000F6FF67CDF7FF68CDF8FFEDD712000D01ED
:10549000916B916B91510F081CE391518F25E96E2F
:1054A000000E9021EA6E91518D25946F000E8E2191
:1054B000956FF2CF96FDF29E95CD63FF94CD62FF7E
:1054C0007F9C7F9E7F80615096BFF28EEF6E912B06
:1054D000E1D791518F25E96E000E9021EA6EEF6AB7
:1054E000000112000900F6CF67FDF7CF68FDF8CF85
:1054F00069FDF5CF6CFD5BDF67CDF6FF68CDF7FF8B
:1055000069CDF8FF0D01662F01D002D00001EAD766
:1055100000011200EF520FE0EACF67FDE9CF66FD10
:10552000EFCF6CFD44DF67CDEAFF66CDE9FFE92AE6
:10553000D8B4EA2AEFD712000D01456B0D0E6C6F3F
:10554000000135DF0A0E0D016C6F000130DF7B0EAC
:105550000D016C6F00012BDFF2CF66FDF29E636AD6
:10556000626A7F9C7F9E7F8061500D0166BFF28ED4
:10557000676F67CD68FD000167DFF2CF66FDF29EC1
:10558000636A010E626E7F9C7F9E7F8061500D0179
:1055900066BFF28E676F67CD68FD000155DFF2CF01
:1055A00066FDF29E636A060E626E7F9C7F9E7F8020
:1055B00061500D0166BFF28E676F67CD68FD000117
:1055C00043DFF2CF66FDF29E636A0C0E626E7F9C33
:1055D0007F9E7F8061500D0166BFF28E676F67CD41
:1055E00068FD000131DFF2CF66FDF29E636A0D0EA9
:1055F000626E7F9C7F9E7F8061500D0166BFF28E40
:10560000676F67CD68FD00011FDFF2CF66FDF29E78
:10561000636A0E0E626E7F9C7F9E7F8061500D01DB
:1056200066BFF28E676F67CD68FD00010DDF060E65
:105630000D01686F000108DF120E0D01686F000197
:1056400003DF3C0E0D01686F0001FEDEF00E0D0160
:10565000686F0001F9DE60C068FDF6DE4EC068FDCF
:10566000F3DEF2CF66FDF29E636A110E626E7F9CDE
:105670007F9E7F8061500D0166BFF28E676F67CDA0
:105680006AFD370E6B6F0001BCDEF2CF66FDF29E45
:10569000636A120E626E7F9C7F9E7F8061500D0157
:1056A00066BFF28E676F67CD68FD0001CDDEF2CF79
:1056B00066FDF29E636A250E626E7F9C7F9E7F80F0
:1056C00061500D0166BFF28E676F67CD6AFD370EC0
:1056D0006B6F000196DEF2CF66FDF29E636A260EC6
:1056E000626E7F9C7F9E7F8061500D0166BFF28E4F
:1056F000676F67CD68FD0001A7DEF2CF66FDF29E01
:10570000636A280E626E7F9C7F9E7F8061500D01D0
:1057100066BFF28E676F67CD68FD000195DEF2CF40
:1057200066FDF29E636A2B0E626E7F9C7F9E7F8079
:1057300061500D0166BFF28E676F67CD68FD000195
:1057400083DEF2CF66FDF29E636A2C0E626E7F9C52
:105750007F9E7F8061500D0166BFF28E676F67CDBF
:1057600068FD000171DEF2CF66FDF29E636A300EC5
:10577000626E7F9C7F9E7F8061500D0166BFF28EBE
:10578000676F67CD68FD00015FDEF2CF66FDF29EB8
:10579000636AD00E626E7F9C7F9E7F8061500D0198
:1057A00066BFF28E676FF2CF68FDF29E636AD10E1C
:1057B000626E7F9C7F9E7F80615068BFF28E696FB2
:1057C00067CD6AFD370E6B6F00011BDE69CD6AFD88
:1057D000370E0D016B6F000114DE200E0D016C6F92
:1057E0000001E5DDF2CF66FDF29E636A2F0E626E68
:1057F0007F9C7F9E7F8061500D0166BFF28E676F38
:1058000067CD6AFD370E6B6F0001FBDD7D0E0D016C
:105810006C6F0001CCDD0D0E0D016C6F0001C7DD5A
:1058200003EC12F0CE0EF66E070EF76E000EF86E59
:105830001ADE0D01456B45510F081EE3B00E4525DC
:10584000666F010E676FD8B0672BF2CF68FDF29ECE
:1058500067CD63FF66CD62FF7F9C7F9E7F80615036
:1058600068BFF28E666F66CD6AFD370E6B6F000102
:10587000C8DD0D01452BDFD70D0E6C6F000197DDE4
:10588000010E0D018E6FF00E8D6F0D0E906F460E96
:105890008F6F0001FCDDD20EF66E070EF76E000E64
:1058A000F86E030E0D01666F00011CDE0D0EEA6E30
:1058B000460EE96E2FDE0D0E0D016C6F000177DDD7
:1058C000DA0EF66E070EF76E000EF86ECCDDF2CF34
:1058D00066FDF29E010E636E840E626E7F9C7F9E5B
:1058E0007F8061500D0166BFF28E676F67CD6AFDE4
:1058F000370E6B6F000185DDF2CF66FDF29E010E63
:10590000636E850E626E7F9C7F9E7F8061500D016D
:1059100066BFF28E676F67CD6AFD370E6B6F000151
:1059200070DD0D0E0D016C6F000141DD020E0D01E9
:105930008E6F900E8D6F0D0E906F460E8F6F000163
:10594000A6DD020E0D018E6FA00E8D6F0D0E906FF5
:10595000560E8F6F00019BDDE40EF66E070EF76E9C
:10596000000EF86E030E0D01666F0001BBDD0D0E1B
:10597000EA6E460EE96ECEDD0D0E0D016C6F000174
:1059800016DD03EC12F01200C80E0D01936F00013A
:10599000A4EC09F012000900F55212E0F6CF8DFDDB
:1059A000F7CF8EFDF8CF8FFDF55004009EA8FDD7F0
:1059B000AD6E8DCDF6FF8ECDF7FF8FCDF8FFEBD717
:1059C0001200060E04009EA8FDD7AD6E1200EF5225
:1059D00011E0EACF8EFDE9CF8DFDEF5004009EA8C7
:1059E000FDD7AD6E8ECDEAFF8DCDE9FFE92AD8B4A3
:1059F000EA2AEDD712000D0191BF11D00F0E006EF3
:105A0000903900160A0E005C03E2300E002602D028
:105A100091510026005004009EA8FDD7AD6E0F0ED8
:105A200090170A0E905D02E2300E02D0919F9151C4
:105A30009027905104009EA8FDD7AD6E0001120082
:105A40000900F6CF8EFDF7CF8FFDF8CF90FDF55012
:105A500004009EA8FDD7AD6E8ECDF6FF8FCDF7FF6B
:105A600090CDF8FF0D018D2F01D002D00001E8D7B5
:105A70000001B5EF32F0200E0D018EA9300E8F6FB0
:105A80008DCD00F000AE08D0001E002A00C08DFDB4
:105A90002D0E8F6F8E8F8E8101508DCD93FD640EF4
:105AA000946F0001DEEC0EF000C08DFD300E01247D
:105AB0000D01906F8DCD93FD0A0E946F0001DEEC09
:105AC0000EF0300E00240D01926F300E0124916F04
:105AD0008FCD00F0300E905D04E08E838EBF8E85FA
