:20000000B04300208D65000001CA011001CA011001CA011001CA011001CA011001CA0110B3
:1C00200001CA011001CA011001CA011001CA011001CA011001CA01103FCA011082
:200100003C000000000000000000000034010000000000000000000001000000000000006D
:20012000000000000000000000000000010000000000000008000000000000003400000082
:20014000000000000000000068010000000000000000000001000000000000000100000034
:200160000000000000000000080000000000000030000000000000000000000098010000AE
:20018000040000000000000001000000FFFFFFFFFF00000001000000080000000000000056
:2001A0002C0000000000000000000000C4010000040000000000000001000000FFFFFFFF4D
:2001C000FFFFFFFF080000000000000034050000E401000099A1011095A70110A5C20110ED
:2001E00009B2011045B8011000000000000000002E000000280000000000000000000000CF
:20020000140200000000000000000000FFFFFFFF000000000800000000000000300500008F
:200220003002000069C201106DC101101FC2011095BA01100000000000000000300000008F
:20024000300500005402000075C20110A9B601109DBF011049B601100000000000000000DE
:200260003100000024000000000000000000000080020000000000000000000000000000A7
:200280000800000000000000240000000000000000000000A402000000000000000000008C
:2002A000000000000800000000000000240000000000000000000000C80200000000000048
:2002C000010000000000000008000000000000000000000050080020040000000000000099
:2002E000000000002000000070010000300000001C0200005808002004000000000000009B
:20030000000000000C000000300400001800000040020000600800200400000000000000B7
:200320000000000024000000480400001800000000000000680800200400000000000000A1
:200340000000000010000000A00100002C000000CC01000070080020040000000000000057
:2003600000000000200000006402000024000000FFFFFFFF78080020040000000000000033
:2003800000000000280000008802000024000000FFFFFFFF800800200400000000000000DF
:2003A00000000000580000003C01000034000000FFFFFFFF880800200400000000000000C4
:2003C00000000000100000006004000018000000FFFFFFFF900800200400000000000000D9
:2003E000000000001C000000AC02000024000000FFFFFFFF9808002004000000000000004F
:200400000000000038000000F401000028000000FFFFFFFFA00800200400000000000000BF
:200420000000000054000000000100003C00000018000000000000000000000040040000CF
:20044000080000000000000018000000000000000000000058040000080000000000000018
:20046000180000000000000000000000700400000800000000000000010000000C66000075
:20048000000000000100000000000C0000000D0032000000010000008C070020000200005A
:2004A0000000000001CA01100000000000000000080000000000200074060020010000009D
:2004C000A40700200800000000000000000000000000000000000000000000000100000048
:2004E000E00600200600000001000000640500200000000000000000000200000000000064
:1105000000002A0001002500300031002E0001000109
:2005140004000000CC6500000000000000000000000001000000030087C4011038050000F5
:200534003805000000000000800000008000000000000000A4070020AF1D000020000000B3
:20055400A4650000886300000DC301103D1500003F15000099C801109BC801100000000026
:190574008A2200007C620000946200006462000008000900010000000115
:2005900000000000000000000000000000000000391400006D140000F1120000A7140000BF
:2005B000491300000D130000B9130000F51400002D1D00002F1F0000331F000008000000E8
:2005D000240000001800000028000000200000003C0000000C00000034000000DFF800F044
:2005F000F5C00110DFF800F049BA0110DFF800F025C20110DFF800F0C1C20110DFF800F069
:20061000E3BF0110DFF800F013C10110DFF800F0D5C00110DFF800F095C00110DFF800F00A
:200630000DA80110DFF800F0BDBE0110DFF800F02DBF0110DFF800F0D5C20110DFF800F097
:20065000D9C20110DFF800F0E1B50110DFF800F021C10110DFF8A800007D70472DE9F041BC
:20067000DFF89800DFF89C400768EFF3118887F31188A0680121FFF7CDFF0121A1830021F8
:20069000E183656921682268461B801A691A884205D20020A08388F31188BDE8F08188F3FE
:2006B000118800204519361A29460120FFF7B6FF8642F7D2EFF3118887F31188E18B0129D3
:2006D00003D129460020FFF7A9FFA16910F1010F08BF084603D0801B814238BF0846411909
:2006F000FFF7A0FF012020840020A083256088F31188BDE8F081808A704700000466000073
:20071000A40100207801002000F012BF2DE9F04FDFF8F008008881B088B9DFF8180900682C
:2007300000F4E020B0F5003F08BF0B240AD0B0F5803F08BF092405D020B9072402E0DFF817
:2007500014090468DFF8105969684969042088476968496B042088470128F9D16968C969DC
:200770004FF4A0608847DFF8F468DFF8F4880120C6F80000D8F800008007FBD520462968D4
:2007900049688847DFF83479DFF8342900900121D7F81090386901FA04FB6FEA0B0A0AEAF3
:2007B0000000386100212B681B6820469847102001F00EF9386810EA0B0F05D1DFF80C1A65
:2007D0004DF6AD600860FEE729FA04F13869C90754BF0AEA00004BEA0000386100212B685A
:2007F000009A1B68204698476968096A4FF4A06088470120306000BFD8F800008007FBD59A
:2008100004206968896988476968496B042088470228F9D101B0BDE8F08F00007047FEE735
:2008300010B582B0042001F004F9022818BF03282AD1032000901C234FF040520021DFF8BD
:20085000880801F0EEF9DFF88408DFF884280168EFF3118081F311880421B1FA81F1C1F15D
:200870001F010423895CB3FA83F3C3F11F034C1E9C5405D1DFF84C180A6822F004020A60E4
:2008900080F3118802B010BDDFF84808DFF8341800684418DFF84018DFF8140A0968B0FB6F
:2008B000F1F12046FFF7A6FE204602B0BDE81040FFF7A4BE10B5DFF800090078DFF8FC08E9
:2008D00001688908890041F00101016001F0BEF801F05DF90020DFF8E848DFF8E818206085
:2008F00002200968C9688847DFF8DC080168490849000160D4F8EC0FDFF8D0070168EFF376
:20091000118081F31188DFF8BC170A6842F004020A600421B1FA81F1C1F11F01DFF8B027A9
:200930008B5C5B1C8B5480F311884FF0FF3010BDDFF890070079704701F09DB830B5DFF883
:200950008C07006881B0EFF3118580F31188DFF87407C0880124012808D10023012234217B
:20097000DFF8640701F080F900B9002485F31188204601B030BD000030B4DFF85017DFF8D0
:2009900050370A68EFF3118182F31188B0FA80F2C2F11F02D25CB0FA80F4C4F11F04551E45
:2009B000E55405D1DFF81C27136823EA0000106081F3118830BC70472DE9F041DFF80C1715
:2009D0000968EFF3118481F31188DFF8E818425C531E435448D1DFF8E81811F8206001EB30
:2009F000800530066F881AD5DFF8D888D8F80010096A38468847D8F80010896A384688474F
:200A1000D8F80010096B38468847DFF8501601200860DFF84C0601688907FCD517E07006FF
:200A300006D5DFF8A41851F82710002088470EE0DFF89088D8F8001089693846884700BF0E
:200A5000D8F80010496B384688470228F8D106F03F003F2818BFFFF7AFFF687800F03F008C
:200A70003F2818BFFFF7A8FF84F31188BDE8F08110B508B1140001D1032010BD8160C2600E
:200A900003610146DFF84428DFF8380612681018FFF7CCFD002010BD2DE9F0410446DFF88D
:200AB0002C060068EFF3118580F311882646DFF80408315C4A1C3254002946D1DFF80078B1
:200AD00017F8260000F03F003F2807EB860818BFFFF7E2FF98F8010000F03F003F2818BF0F
:200AF000FFF7DAFF17F82600B8F80280010617D5DFF8D0673168C969404688473168496A43
:200B1000404688473168C96A40468847DFF84C1501200860DFF8480501688907FCD514E0AC
:200B3000400606D5DFF8A01751F82810012088470BE0DFF890673168496940468847316893
:200B5000496B404688470128F9D185F311882046BDE8F04101F0D0B9DFF870150A68EFF312
:200B7000118182F31188DFF85C25136803431360B0FA80F0C0F11F00DFF85425835C5B1CA9
:200B9000835481F3118870472DE9F04F002400252146012885B0894618BF022440F02D829C
:200BB000DFF82805DFF81C850268EFF3118082F3118898F80420012A06BF022288F8042052
:200BD000012180F3118809B1062416E2FFF706FD0290DFF8F806006840440090FFF712FD1A
:200BF00010BB0098FFF726FD0646307AC00714D53169F26801209047C0B201280DD1DFF887
:200C1000D00600688047012088F804000298FFF7E9FC022005B0BDE8F08F3046FFF70EFD33
:200C3000064600988642E0D1FFF7F0FC03900120DFF8FC160C6000F0FCFE012803D1012450
:200C5000002001F039F9DFF894663168896800208847DFF88406DFF85C760068787C00B1E0
:200C70000125387C08B145F00205F87B08B145F00405F87A28B1B16ADFF84406096BC08DE3
:200C90008847B87A28B1B16ADFF83406096B408D8847DFF8C8130120086045F02000B16A83
:200CB00089698847DFF88C06DFF828B600880190012821D1DBF83401C00703D4DBF888010F
:200CD000400713D5DBF8240140084000CBF82401DBF87C0140084000CBF87C01DBF834014D
:200CF000C007FBD4DBF888014007F7D4DBF8240140F00100CBF82401DBF8000040F00100CB
:200D1000CBF8000098F80000C00748BF4FF001091BD4B16CDFF88406896888478246BAF1B9
:200D3000040F08D1B16CDFF87406896888478246BAF1040FF6D0B16A096C10208847B26C90
:200D5000DFF85806526803219047002001F000F9DFF884050068019801283AD1DBF83401F2
:200D7000C00703D4DBF888014007F7D5DFF8300607210160DFF82C160A689200FCD540F2A0
:200D9000012101600122DFF898164A6003220A601122CA6001224A604FF45172CA60012262
:200DB0004A6040F21162CA6001224A6000210160DBF82401DFF86C1640084000CBF824019A
:200DD00040F604600860B16A496B012088470228F9D1B06A806B80470198012822D1DBF8FA
:200DF0003401C00703D4DBF88801400714D5DBF8240140084000CBF82401DBF87C01400884
:200E10005FEA4000CBF87C01DBF83401C007FBD4DBF888014007F7D4DBF8240140F00100C4
:200E3000CBF82401B9F1000F09D1B26CDFF86C05526851469047B16AC96B102088473168B2
:200E500089685FF001008847DFF80C96D9F800008006FBD514B1012001F02EF8B06A416911
:200E70000198012809D16C0860008847B16A496B600088470128F9D107E028468847B16AF3
:200E9000496B284688470128F9D1F87A28B1B16ADFF82C04C96AC08D8847B87A28B1B16A7C
:200EB000DFF81C04C96A408D88476C4901200860DBF8000040084000CBF800005FF00300AE
:200ED00088F80400D9F800008006FBD50198012840F04180DBF83401C00703D4DBF88801A2
:200EF0004007F7D5DFF8B80407210160DFF8B4140A689200FCD540F2012101600122DFF890
:200F100020154A6003220A604FF44172CA6001224A601022CA6001224A604FF4C262CA60AC
:200F300001224A6000210160DBF82401DFF8F41440084000CBF8240140F604600860E8071A
:200F500009D5B16A496901208847B16A496B012088470128F9D10098FFF754FBC8B900983E
:200F7000FFF768FB0446207A40070BD52169E26804209047C0B2012804D1DFF85403006828
:200F9000804706E02046FFF759FB044600988442E9D1DFF89C1301200860DFF83C030068F5
:200FB00000F012FD00980024FFF72CFBD0B90098FFF740FB0546287A00070CD52969EA683E
:200FD00008209047C0B2012805D1DFF8040300688047022406E02846FFF730FB0546009806
:200FF0008542E8D1012088F804000398FFF72AFB01F039F80298FFF7F5FA204605B0BDE8A5
:20101000F08F00000005000030B53048DFF8C054006881B0EFF3118480F31188E88801283F
:2010300003D100F08DFD0020E88084F3118801B030BD00009412005010B5DFF8981409686D
:20105000EFF3118481F31188FFF700FB84F3118810BD000080040000B40100102820086035
:2010700028200840F0B599490968064615480F1881B000253846FFF7C5FAD8B93846FFF77A
:20109000D9FA0446A06830420ED02169E26830469047C0B2012807D1DFF8340200688047FB
:2010B0000225284601B0F0BD2046FFF7C7FA0446BC42E7D1284601B0F0BD0000C020024022
:2010D00000400020F404002000A00C4004660000F42D0020F06500000866000030BF704788
:2010F000F0B581B000F06CFCDFF8E4532C6804F00C000C2856D0600736D4DFF8D8036E4FD6
:201110000068EFF3118680F31188B8680021FFF781FA7969081AB969814238BF0020674970
:2011300086F31188096881421ED2DFF8AC1309684C19DFF8A8130D68DFF8A4130968B1FB4B
:20115000F5F1411A2046FFF755FA2046FFF756FA4FF47A70B0FBF5F200210120FFF714FDDF
:201170002046FFF743FA1FE020071BD41648E1060168544C5ABF4908490041F0010101601C
:2011900010202168C96B88472168896920208847DFF8445128682068806B8047012028601A
:2011B000286801E0FFF79AFF00F00EFC01B0BDE8F04000F082BF0000222E00200440034077
:2011D00040100940A00100108C210840142E0020F0B5DFF82C13096881B009682020884781
:2011F000DFF82043DFF820530F20E060072341F61D5020614FF4C0720220009000212846E7
:2012100000F00FFDDFF804630120306030688007FCD50120E061DFF8E4723888012823D177
:2012300000203061032020600020706070688007FCD402200090052360220021284600F050
:20125000F0FC0120706070688007FCD50820A061082100202060DFF8B802C160016001204B
:201270002060786001B0F0BD032020600020706070688007FCD4002000900523602200216B
:20129000284600F0CEFC0120706070688007FCD50120A061082100202060DFF87402C1609C
:2012B00001600120206001B002207860F0BD0000A0860100902D002078010020FC650000C6
:2012D000AC620000B80100103C080020F4650000F86500000C2008402C2009409001001063
:2012F00010B504460020D4E90A2347F6906100F025FF012928BF4FF0FF3010BDDFF814024A
:2013100002684068000C40EA0240021D081AB0F1004F05D8501AB0F1004F38BF914200D22F
:201330001146DFF8F4211268526A0120104700000C4009403A2200002DE9704306460A4656
:20135000D6E90A01A0FB0289D6E90C4501FB0299DFF8C0110A68496814EB080445EB0905D2
:20137000090C200C41EA024140EA05400A1D411AB1F1004F05D8111AB1F1004F38BF90420A
:2013900000D21046DFF890211268526A014601209047C6E90E45BDE87083000000400340FB
:2013B0000000046010100440F0B50546DFF82401DFF868610068DFF86C7181B0EFF3118405
:2013D00080F31188306840F0800030600120B96849688847F96A096A142088472869BA68CB
:2013F000526AB0F5802F34BF0421010C012090473A681268232100209047B968C9690120E5
:201410008847306820F4E02040F480303060306840F00100306084F3118801B0F0BD000006
:201430000841044080E200E0DFF8E800036840680022002110185941704710B5DFF8D810BB
:20145000DFF8E400096844684968012088476069A169BDE810400847141009402DE9F04336
:201470000446DFF8B000036840680D4600220021D4E90A671018594132463B4600F05EFEAD
:201490003DB1A6FB008906FB019907FB0099C4E90C89BDE8F08330B5DFF88040DFF8805071
:2014B00081B02068400840002060206840F0800020600120E062E06A2968496801208847C4
:2014D000696A096A14208847E06A01B030BD0000F404002004660000EC650000086600008A
:2014F00000660000DFF82C00036840680022002110185941000C40EA01407047602D002080
:20151000A001001000400C4000A00C4034600C402C500C40082009408C0100100020094073
:201530008C01001084010010E4010020FEE770472DE9F843DFF80404056815F1010F08BF4E
:20155000002500F073FEDFF8F813DFF8F843002008600120DFF8F0130860DFF8F0030068E4
:20157000C0073AD56068C00734D5DFF8E403DFF8E483006898F80010C0F304401628A8BF4D
:20159000203801F01F011629A8BF2039884221D00022401A0128226003DB471E481C8601C3
:2015B00002E0471C8801461E4FF04009BE19B01100F01F0088F800002C2000F009FAB9F151
:2015D0000109F3D1002F44BF41F63F2000F000FAF0202060284600F01EF8DFF87C03DFF84A
:2015F0007C23016841F000510160DFF8740301686FF31B41114301602068C0F30130012831
:2016100007D12068DFF85C13084040F4003121602060BDE8F1832DE9F84F0446DFF8488304
:201630000120C8F80000D8F804008006FBD5C020DFF838A3CE4FCAF80000BD6805F44000C0
:20165000B0F5000F08BF032103D000280CBF01210221042000F0C0F97968C64889075DBF68
:201670003968090C41F0F00172210170C5F3C061C14881F001010160C5F3806181F00101BC
:2016900081600CB9BD4E2AE0BD480068C0F38361AA03C0F38F2020D42A0412160AD54FF6FE
:2016B000FF73400804D11846490804BF01210120521CF6D4012A10DB400040F00100B0F572
:2016D000803F21BF0120490041F00101102924BF0F214FF6FF70521EECE740EA014600F01A
:2016F0006FF9401E8041C00FA64D29680029FCD0DFF89492C9F810600121296008B100F089
:2017100063F90CB9D82008E09D4A10681168C0F3870001F0030140EA0120009040F2FF366F
:20173000002332462C21994800F07BFA1CB19448C06A8604B60C00F043F9401E8041C00F32
:2017500029680029FCD0C9F814600121296008B100F03AF9002C0FBF8D4E8948406A20F0D7
:20177000033600F02DF9401E8041C00F29680029FCD0C9F80C600121296008B100F024F9F8
:201790000CB9844E04E07E488349006A01EA000600F016F9401E8041C00F29680029FCD05E
:2017B000C9F808600121296008B100F00DF90CB97A4F1EE07248806A7B68DB07C0F3035299
:2017D000C0F303410AD43B681F0502EB27721B0482F3040201EB237181F30401090441EA0C
:2017F000025182B242EA0107222C24BF00F08040074300F0E5F8401E8041C00F296800297E
:20181000FCD0C9F804700121296008B100F0DCF82220222C5A4E06D3F06B000F00F0010023
:20183000400040F020005E4F38721120222C05D3F06B400F00F0010040F01000202C387289
:201850004FF0000B07D3B06CC10C01F44071C0F3845040EA010B00F0B3F8401E8041C00F7F
:2018700029680029FCD0C9F820B00121296008B100F0AAF86020202C06D3B06C000D00F08D
:201890000300400040F06000F8728020222C06D3F06BC00E00F00100C00040F08000387002
:2018B000222C4FF47C4006D3F06B400D00F03F00800040F47C403B493B4F0880202C0AD3EC
:2018D000B06C0203810A02F47C1242EA815100F00F0041EA003700F073F8401E8041C00F20
:2018F00029680029FCD0C9F800700121296008B100F06AF82D4844210170882181700CB9C1
:20191000302105E0F16BC90C01F0030141F03001C170F069264900F03F00087047F6180004
:20193000244908802449254800680020CAF80000C8F8000001200860BDE8F18F1C13005091
:2019500084046042040009405C600C400C4009403C11005006620840044003400000390155
:2019700048200340FFFFFCFC1010094000600C40AC3F00505662084000002043FF0F0F00E6
:201990005013005000800C4008A00C4000A00C40000088688A766800FFFFFC00273F7100AF
:2019B00041A10C40DCA10C4000803F4005A10C400BB00C4070B00C40940460422C200940ED
:2019D000EFF3108072B67047EFF3108062B670470138FDD17047704770B50546E80782B05F
:2019F0000C4611D5A0B200900023774E01220021304600F016F9012000901F234FF00042A8
:201A10000021304600F00DF9A80707D5A0B200900123022200216C4800F003F9680707D568
:201A3000A4B2009402230C220021674800F0F9F873BD0146042907BF1D234FF0C0421C237E
:201A50004FF080526048342100F00EB910B55F4C21688968012088475D4801688906FCD569
:201A7000216909684020884721698968402088471128F9D110BD70B504465648564D016899
:201A90004068000C40EA01406968401A4FF47A714843060C00F0DCFB2969401A48BF4042E5
:201AB000311940F6B932914207D2062805DAA868E968814201D32A6852B948494A68D20741
:201AD0004FF4FA6016D40868C0B27D21484308E0081A43494843000C00EB9000904238BFF3
:201AF0001046C82801D2C82070BDB0F57A6F88BF4FF47A6070BD10B582B0012000900023BE
:201B1000314C01221946204600F08BF8012000901F234FF000420021204600F082F8012057
:201B30000090034602220021204600F07AF8294801684068000C40EA01402749886013BD8E
:201B500080B50120FFF775FF01281ED00023012234211D4800F088F8C0B122480068804724
:201B70001C4801684068000C40EA01401A498B680A68C860A2EB9202C01A194B5843000C73
:201B90000860904238BF10460860012002BD10B500210320FFF720FF1C234FF080523421A3
:201BB000094800F061F810B10E48006880470948094C01684068000C40EA0140606000F057
:201BD00047FB206110BD000000A00C40900100101410094008200940A42D0020AC3F0050CE
:201BF00040420F008000001038B504460D46FFF7E7FE401E8041C00F1A490A68002AFCD096
:201C1000012D02D0022D02D003E0247802E0248800E0246801220A6008B1FFF7D5FE2046C5
:201C300032BD38B500EB4100102B00F5007402D3103B241D120C0498984040EA0245FFF78E
:201C5000BFFE401E8041C00F06490A68002AFCD0256001220A6000281CBFBDE83140FFF7F1
:201C7000B3BE31BD00800C4038B51D460818102D144602D3103D801C240C0221FFF7B4FF68
:201C900004EA000188B2E84032BD50F8041B61B150F8042BD30744BFA9F101039A180023B4
:201CB000091F42F8043BFAD1EFE77047DFF800F049C10110DFF800F019C20110DFF800F0BF
:201CD0000DC30110DFF800F081C60110DFF800F095B70110DFF800F08DC20110DFF800F0E2
:201CF0003DC20110DFF800F009C30110DFF800F045C00110DFF800F0D1C70110DFF800F00C
:201D100067BE0110DFF800F021B30110DFF800F011C80110DFF800F021C801100C2811D04A
:201D3000192814D01D2817D020281AD021281DD0252820D02A2823D02B2826D02C2829D0C2
:201D500000207047DFF8E001006800687047DFF8D801006840687047DFF8CC0100688068F2
:201D70007047DFF8C4010068C0687047DFF8B801006800697047DFF8B00100684069704751
:201D9000DFF8A4010068C0697047DFF89C010068006A7047DFF890010068406A704700B58C
:201DB0008BB00A2100A8FFF789FF0BB000BD00B581B0FEF7ABFCFEF7A7FCDFF87001DFF8D6
:201DD00070110068884218BF00F034F8DFF86401B0F5B26F03D001B05DF804EB2BE001B0C7
:201DF00000BD00B581B00FF22100FFF76BFFFFF76DFFFFF76FFFFFF771FF01B05DF804EB8D
:201E1000FFF770BF0000000000B581B0FEF7FEFBFEF7E4FB01B05DF804EB0320FFF766BFB2
:201E300010B504460320FFF761FF2046BDE81040FFF760BFFEE7FEE700B581B0FFF75EFF97
:201E5000DFF8F400C06801B05DF804EBFFF75ABFDFF8E810DFF8E80088617047DFF8E41082
:201E700001280CBF40F2FF70002008600020704770B5FFF71BFFDFF8D0600546F08820B18E
:201E9000FFF75EFE50B10020F0801020FFF7EAF8A4B2012C0BD1FFF79BF908E0052106F159
:201EB0003000FEF7A7FB06F13000FEF7A7FB2846BDE87040FFF7FEBE10B5012818D1FFF74B
:201ED000B8FD012816D0FFF716FEDFF87C400120E08004F13000FEF789FB052104F1300027
:201EF000FEF788FB04F13000FEF788FB002010BDFFF74DFE002010BD10B501240E2805D1AC
:201F10000120FFF796FD012805D003E0DFF83C10405C00B90024204610BD00207047FFF78A
:201F3000F5BEFFF7F7BE0000F001002098CA0110704728209005000078010020440100201D
:201F50000004000000000460F4040020902D0020F8B5044600F07CF96D4A1268002112F064
:201F7000030F18BF0121520748BF41F002010CB141F00401674A92F90730C31A052B02DA63
:201F90009379994251D0A0F10F0300250024002B1FD403EB03131C12082C28BF072425463C
:201FB000072D28BF06255C4E06EB850756F825507F687E1BF5B24F0744BFC6F307277D19E4
:201FD0008F0744BFC6F307477D19CF0748BF05EB1665514E56F82470FEB25FEA417C44BF39
:201FF000C7F3072C66445FEA817C44BFC7F3074C66445FEAC17C48BF06EB1766A3EB04238A
:202010006B43464C24688033092B9B41DB43E4B24FF4EA756C4306EBD373B4FBF3F3B3F5A8
:20203000803F28BF4FF6FF73938000F30700D07191713B4800689188106000201F2904D231
:202050001F21918004E04908401CB1F5007FFAD20F39090940EAC100324A334908431060A5
:2020700000205060F1BD10B500F0F2F8294991F90720904205DA6FF07F029042B8BF1046E0
:20209000C8712A4800688A8880B208B9500812E0904210D3224B1B680C681B1B5B1C202BBD
:2020B00028BF1F23801A20FA03F4A018B0F5803F28BF4FF6FF70888010BD1D48816801F071
:2020D0004062B2F1406F21D0426892071ED4194ADFF864C01368DCF800C00068C0F30350FB
:2020F0001C30000113F0050F05D084450ED223F0050010607047604508D2080158BF43F0DD
:202110000103480158BF43F0040313607047000024220840FC2D00209C130050B43F0050CE
:20213000082009403010094000FFA48034100940AC3F005000000940285009401B4213D15F
:20215000094236D12AB18446B0FBF2F002FB10C2704700F091B8FCD30022002370470B0056
:202170000200002100207047904271EB030CF6D370B5B1FA81F4B3FA83F52C1BA340C4F106
:20219000200532FA05F63343A2405FF00046E64002E05B085FEA3202841A71EB030524BF29
:2021B000204629467641F4D302000B003000002170BD012ACFD970B5140C20D0B1FA81F409
:2021D000B2FA82F5C4F120046419B4F12006D6D3B2405FF00044F440002502E052085FEA9F
:2021F0003303C61A71EB020E24BF3046714664416D41F3D302000B002000290070BD0C464F
:20221000B1FBF2F102FB11452D0445EA1045B5FBF2F402FB145580B240EA0545B5FBF2F0E3
:2022300002FB105240EA044070BD0000074802680121120F91404FF4C572114203D00068BF
:20225000000F082800D0FEE770470000181300500748084A816812780068C90352B2A0F567
:202270004070C9135043A1EB2010803000127047285009400C13005070470000DFF800F04C
:20229000D9C10110DFF800F0ADB50110DFF800F019AE0110DFF800F041AC0110DFF800F01E
:2022B000E5C10110DFF800F0CDA00110DFF800F085C20110DFF800F081C20110DFF800F011
:2022D00055C10110DFF800F043C20110DFF800F079AB0110DFF800F0D9B60110DFF800F0C0
:2022F00085C10110DFF800F0EDB30110DFF800F0C1C1011020B108233C220021FFF7BEBFB7
:20231000704780B5FEF76AF9ADF80000FFF7CEFCADF80200009802BD01B5BDF80200FFF7A3
:20233000C9FCBDF80000BDE80240FEF75BB938B5DFF84448DFF844580020A4F86C0AE82026
:20235000208040F68410A4F8E80004F1E8006860002000F003F8A8606C6031BDF8B500243C
:202370000025061D16F003001CBF311D0E1AFFF7C8FFDFF808180860B6B2112EB4BF4F68BE
:202390008F6839880B0403D581F40041002519E0A5B123883A88134423809BB2B34211D3D7
:2023B00027461946B7B1891B89B20429A7BFF15346F40041398841F4004109E0B142F1DACA
:2023D00001253C46CF1939880029DBD1002701E027F8041BFFF7A0FF3846F2BD10B50446B0
:2023F000FFF78FFFDFF894170860221F13885B045B0C13804B689A4238BF4A60BDE8104005
:202410008AE770B50446FFF77CFF0021DFF870570C2202FB01F6725942B1944203D1FFF71C
:202430007BFF701970BD491C0429F1D3FFF774FF002070BDF8B50546FFF763FF0446002096
:20245000DFF83C670C2101FB00F7B95979B9BE1900203560B0600022FFF714FF706008B936
:2024700000F058FC2046FFF757FF3046F2BD8D4204D12046FFF750FFB819F2BD401C0428DA
:20249000E0D32046FFF748FF0020F2BD38B50446FFF737FF0025DFF8EC160C2202FB051264
:2024B000128842B1944203D1FFF736FFA8B232BD6D1C072DF1D3FFF72FFFFF2032BD10B5E9
:2024D00004462088FFF7E2FFFF2800D16DE1DFF8B4160C2202FB00108168080002D16FF0DE
:2024F000010010BD2046BDE81040084702460FF27870104710B500200C21DFF88426002415
:2025100001FB00F3401C9C509B1804289C60F7D30020DFF87026034601FB0024401C07284E
:202530002380F9D3082010800FF225709060BDE81040FCE670B590B0FEF750F8044600A873
:20255000FFF7D8FE0520069000224FF44870089000A94EF201000490DFF82C060590DFF83C
:202570002C06FFF793FE050006D0FFF7CAFE06462846FFF75FFF08B900F0CCFB3046FFF707
:20259000CBFE2046FEF72EF810B070BDF8B500F0E5F8FFF74FFF0546FFF7B3FEA288DFF843
:2025B000E43500210C264E43F75A47B9F252F2185560A3689360A1816968216162E7BA4202
:2025D00004D1FFF7A9FE6FF00200F2BD491C0729E8D300F09FFB00BF70B500F0BFF8FFF70E
:2025F00029FF050016D0FFF78CFE0021DFF894250C234B439E5A56B94FF6F8769E529A186E
:20261000002355609360A1806968A1600EE7491C0729EDD300F07EFB00BF10B504466068A3
:202630000C3080B2FFF79AFE00B91AE06168018100210160FF2181720C30A060002010BDD2
:2026500080B540680C3811E080B287E610B50446606880B2FFF782FEA06000B901E0002080
:2026700010BD6FF0030010BD80B54068FFF7B6FE002002BD38B504460D46FFF742FE002107
:2026900045F80C1C216811B9256006E0114651F80C2C002AFAD141F80C5CBDE832403BE661
:2026B0002DE9F04104466FF00206E068A0F10C05E0880728BCBFA08807280BDAFFF721FEC5
:2026D000E188DFF8C0840C2707FB0181496819B9FFF722FE304617E0FFF71EFEA0882871D6
:2026F000E0886871207AA871E088E16807FB008040680830FFF7BEFFE08807FB008040687E
:202710004068FFF7C7FD0020BDE8F08170B500F025F8FFF776FE10B96FF0040070BD00F12B
:2027300008050026FFF7EDFD296849B10E4656F80C1C2960002146F80C1CFF2106F8021CD5
:20275000FFF7EAFDA660A6F10C010EB9022070BD0879A0804879E080002070BD0446FFF77D
:202770009DBD07280BDADFF81C240C2303FB0020008800281CBF4FF6F872904202D14FF059
:20279000FF307047088000207047811D8088E8E710B50446E088FFF779FEFF2800D104E0AF
:2027B000E0802046BDE810407AE74FF0FF3010BD3EB50446FFF7AAFF050017D1A08800A918
:2027D000FFF7CFFF78B1A06802900821ADF8041001A80321ADF80610DFF8B413896888479A
:2027F0006FF005003EBDBDF80000A08028463EBD10B5DFF8A02312680C464FF47A71A1FB37
:2028100000010023FFF79AFC002902D8B0F1004F02D36FF0020010BD2060002010BD38B5A8
:20283000FFF79CFFFFF7EDFD0546FDF713FF002818BF012800D015B96FF0040032BD6068E6
:2028500038B9009000996868FFF72CFD60B1002032BD10F1010F08BF4FF0FF30F1D000F048
:202870003BF90028EED032BD012032BD80B54068FFF710FD002002BD00F04CFA00BF80B546
:202890004068FFF713FD002002BD80B54068FFF711FD002002BD80B5FFF710FDFFF712FD9E
:2028B000002002BD80B5FDF799FEFFF7FFF9002002BD80B58168406800230022FFF706FD98
:2028D00008B900F027FA002002BD10B50446FFF701FD6060002010BD014688684968084750
:2028F000F0B507468BB0BC68A94D6CBB0C20FFF735FD04006FF003061ED00823242200211A
:2029100001A8FFF7EBFC0020ADF814000690079400237968A04801AAFFF7E4FC206068B909
:202930000820ADF800000C20ADF8020000A8A96888472046FFF752FD304618E0F868606026
:202950003869A060BC600AE02868804706462068FDF74CFE3869A0603046696888477968BF
:202970002068FDF747FE2068FDF748FE00200BB0F0BD10B5044682B0606800F0ADF820B9C5
:20299000009860602046FFF7ABFF16BD80B5406810B96FF0020002BD0068FDF727FE00208F
:2029B00002BD7C49096841600020704750B50446784802686FF00046A6FB020100234FF472
:2029D0007A72FFF7BBFB002902D8B0F1004F00D330466060002050BD2DE9F04186B006465D
:2029F000FFF75CFCFFF70DFD0446002002900025FDF730FE002818BF012800D014B96FF012
:202A1000040066E0706820B110F1010F03D14FF0FF30009004E000F05FF85FEA000857D12C
:202A30004FF00108FFF756FC00990F1800E0009000996068FFF736FC80B303A8FFF766FE05
:202A50005FEA00081AD1BDF8100001A9FFF789FE80B9059ABDF81210BDF80400B3689847DC
:202A700040B1BDF80400B081BDF81200F0810598306113E0059902A8FFF7FCFD00986D1CBA
:202A900010F1010F18BF00284FF00108D0D0FFF721FC381A02D000998142C8D2029E04F16C
:202AB0000807FFF72EFC56B1314600E0114651F80C2C002AFAD13A6841F80C2C3E60FFF705
:202AD0002BFC002D03E06068FFF7E4FB6D1EFAD1404606B0BDE8F08100A989E6F8B5FFF7AF
:202AF0003DFE0546FDF7B6FD002818BF01286FF0040613D0FFF705FC0021224A0C234B43E4
:202B10009F5A4FB19B185B681B68AB4201D1A180B8E4491C0729F1D3FFF7FEFB3046F2BDCA
:202B3000F8B50446FDF796FD002818BF012802D16FF00400F2BDFFF7B1FB0546FFF7E1FB3B
:202B5000A788104A00210C234B439E5A6EB1BE4208D1991849680968A9420CBF0121002142
:202B7000A1608FE4491C0729EDD3FFF7D5FB4FF0FF30F2BD00000000B4080020E82D002088
:202B9000C82C0020742C002070070020FD2400003008002008660000E928000070B5044653
:202BB0003C20FFF7DBFB05006FF0030611D0FFF7A1FB207AA8610022608928622946E0680E
:202BD00028616068FFF762FB04462846FFF706FC0CB9304670BD002070BD70B50446242029
:202BF000FFF7BCFB05006FF0030613D0082324220021FFF77BFB2079012808BF2876A0689B
:202C100000222946FFF73EFBE0602846FFF7E6FBE06808B9304670BD002070BD10B5044657
:202C300082B0A06838B9009000996068FFF73AFB60B1002016BD10F1010F08BF4FF0FF30F3
:202C5000F1D0FFF749FF0028EED016BD012016BD4188282902D36FF0010070470FF214029B
:202C700052F8211008470000CF24000013230000292300009D250000E92500002B260000E4
:202C9000512600005D26000079260000B12600001D270000A1270000C12700002F28000069
:202CB0007D280000892800008F2800009B280000A7280000B5280000C3280000DB2800009A
:202CD00083290000B3290000BD2900009B270000695F00002F600000E9290000ED2A000034
:202CF000F12800009D290000C95F00000160000015600000312B00006960000085600000DD
:202D1000AD2B0000EB2B00002D2C00007B60000093600000012000F001B800002021090377
:202D300026311820ABBEF9E7DFF800F025B101102DE9F84CDFF89C590E461746002440F2D0
:202D5000013B6A78E98995F804C095F803E0B0EB0B0A40F67B4345D0BAF1010A4AD0BAF1DE
:202D7000010A4ED0BAF1020A50D0BAF1010A00F08980BAF1010A00F08A80BAF1010A00F03E
:202D90009680BAF1010A00F0A580BAF1010A00F0A880BAF1010A00F0AB80BAF1010A00F0FD
:202DB000B080BAF1010A00F0B380BAF1020A00F0B680BAF1010A00F0BF80BAF1010A00F092
:202DD000C280BAF1010A00F0C680BAF1010300F0CA805B1E00F0CF805B1F00F0D7809B1E9A
:202DF0002CD0E8E0102E40F0E4801022394605F1C80083E0102E6ED11022394605F1D8005F
:202E10007CE0042E67D13868E862DEE0012E62D1BCF1010F34D03878E870BEF1000F06D075
:202E30000028F2D1022A1AD0052AEED117E00028EBD0012A20D0042A1CD11DE0012E4AD13C
:202E5000BEF1010F1CD038782871BCF1000F0AD0002807D1032A1CBF072A052A02D1C8B223
:202E700000F0D3FDB1E00028FCD0012A1CBF042A062A01D0052A02D1012000F023FCA4E012
:202E90001224A2E0022E26D1388868829DE0222E24DA05F1F0042121204600F079FF00F0E4
:202EB00097F8E8896E712346324601210EE0222E14DA05F58A742121204600F069FF00F00C
:202ED00087F8E889AE71234632460021C0B200F07FFD77E0012E6CD13878052869DAE871B7
:202EF00073E0012E65D13878042862DA28726CE0062E5ED10622394605F59C7000F04CFFC1
:202F100063E0012E55D13878082852DA68725CE0012E4ED1387804284BDAA87255E0022E19
:202F300047D13988E98200294FD0062A4DD105F15C0000F0A9FF48E0012E3AD13878022881
:202F500037DAE87241E03888022E32D1811F99422FD2288339E03888022E2AD1811F99423C
:202F700027D2688331E03888022E22D1B0F5FA7F1FDAA88329E03888022E1AD1A0F10A01A7
:202F900040F67742914214D2E8831EE0012E04BF387801280DD105F1A40000F08AFF30B96B
:202FB00000F039FB05F1800000F08AFF0DE016240BE0182409E0272806DA022E04D13988C2
:202FD00000F033FD044600E002242046BDE8F28C32463946204600F0DFBE38B500244FF4AA
:202FF00040730D46C21ADFF8EC1634D0521E34D0521E35D0521E36D0521E37D0521E38D0B4
:20301000521E3AD0521E3AD0521E3BD0521E3DD0521E3DD0521E3DD0521E3FD0521E3FD0BC
:20303000521E3FD0521E3FD0521E3FD0521E3FD0521E3FD0521E3FD0521E3FD0521E3FD088
:20305000521E44D0521E44D0521E44D0921E44D0521E10D044E0887840E01022C83132E03F
:203070001022D8312FE0C86A286040E00622E83129E0C87832E0087930E0488A34E04A7946
:20309000F03120E08A7901F58A711CE0C87925E0087A23E0062201F59C7114E0487A1DE066
:2030B000887A1BE0888A1FE0C88A1DE0C87A1BE0088B19E0488B17E0888B15E0C88B13E0C2
:2030D000062201F5A071284600F066FE0FE0088C0AE0488C08E0888C06E04878287006E08E
:2030F000272803DA00F0BDFC288000E00224204632BDDFF8E0054178062905D1818AC0891A
:203110001322C0B200F049BC1220704700B58FB008233C22002100A8FFF7B0F8DFF8B805A2
:2031300000F15001079100234FF4DC71089100AA022106910FF2E501FFF7F6FD0FB000BDA9
:2031500070B584B000F04FF90120DFF890150968ADF8020000A88847DFF87845BDF8040055
:20317000E0810298A062002060704FF6FF70A08200F093FC207001200190002000900246C3
:203190000FF25D550023294604F1380000F056FE022000F03BF804F15C0000F04FFE042072
:2031B00000F034F804F1800000F048FE082000F02DF804F1A40000F041FEE089C0B200F068
:2031D00083FB0420A07004F1C80200200146034605462BC204F1D80506464BC5E062E071C5
:2031F0002072A17207206072103A103D1021022000F07EFD2A461021032000F079FD04217D
:2032100004F12C02084600F073FD7FBD01902946002000900346024670470000FEB5FFF7F0
:203230008FFFDFF8B054DFF8B44405F1A40700F0DAF80A20ADF802004FF0FF30019000A86B
:2032500021688847002866D100F0CDF80920ADF8020000A821688847BDF80610029E00288F
:2032700059D1BDF80400102804BFE889814248D130884FF6FF71884209D17088400440D5B1
:2032900005F12C020421042000F047FD39E0307891281FD0A22802D0D02817D031E070799F
:2032B00013282ED13089012804BF287B022805D1384600F005FEFFF71CFF22E0052000F0E3
:2032D000D0FB0146384600F0DFFD1AE0304600F08FF816E070780E2802BFB08841F2054115
:2032F000884201BFB06890F903006978062908D17F281CBF296B002903D049680A0018BF03
:20331000884746B100F06FF80320ADF80200019600A821688847288AC10730D54FF6FE71EC
:2033300008402882E9782879014328D018B103208DF800000CE0E8798DF800000622287A40
:203350008DF8010005F59C710DF1020000F024FD687A8DF8080000A9A87A8DF80900E88986
:20337000C0B200F031FB00281FBF08206870286B002804D0016808001CBF08208847288A25
:2033900081070FD54FF6FD71084028826878062808D1A88A00F047FCE98A19B105F15C0031
:2033B00000F072FD288A410706D54FF6FB7108402882002000F02FF9288A01070AD54FF610
:2033D000F77108402882287B012804D0022808BFFFF78FFE2BE70090EB8BAA8B698B288B7B
:2033F00000F049F923E70820ADF80000704700002DE9FC410646B74CB078072804F5A078F3
:2034100004F1800704F1A4052DD8DFE800F0042C2E52527AAACC7078D8B904F1C80210216B
:20343000022000F07AFC04F1D8021021032000F074FC0622F11C04F1E80000F0ADFC0120A5
:20345000607004F1F003E08962790121C0B200F0BFFA08B108206070206B20B101680800A5
:203470001CBF60788847BDE8F3817078E8B9F07848B1E089A27904F58A730021C0B200F0BA
:20349000A7FA707011E06078022818BF07280CD0062802D12079012807D104F1380000F00E
:2034B00008FD10B9012000F00DF970780028DAD0D0E771780029CDD103280AD160780628EA
:2034D00008BF0720C7D0E07800280CBF03200220C1E7618AE078002907D0227910430AD014
:2034F00004F1380000F0D0FC05E0012807BF0020E070002020716078072814BF04200620BA
:20351000A9E7707838BB0622311D404600F044FC7089E18AA0820620607019B104F15C006D
:2035300000F0B2FCF0892084308A6084708AA084E07A012808D11F2000F093FA4FF47A71BE
:203550004143384600F0A0FC7289F0780423311D00F0DBF980E73128ADD10020E07004205F
:2035700079E7B08800F0E8F90621404600F010FC002020846084A084384600F0A1FC2846E4
:2035900000F09EFC4FF6FF70A082207908B1032061E7B07908280CBF0520042060700120A0
:2035B00000F090F858E7284600F08AFC707898B9F0882084308960847089A084384600F0E3
:2035D00078FC002807D1636B002B04D0A28C618C208C1B68984746E71A28FCD1052000F020
:2035F00040FA0646208BE289ADF80000D2B2608BADF8020000A9A08BADF80400E08BADF8D7
:203610000600A08A00F064FA002020733146284600F03AFC27E770B52E4D298B0446288CFE
:2036300084B0884224BF698B814207D3688CA98B884202BFA88CE98B88421BD0052000F0E3
:2036500010FA0646A88AADF80000288BADF80200688BADF80400A88BADF80600E88BADF841
:20367000080000A800F094F92C73314605F1A40000F00AFC7FBD70B5164C6578062D01D0C3
:20369000142070BD40F67A45861FAE423CBF8E1FAE4215D2B2F5FA7F12DAA3F10A0540F6CB
:2036B0007646B5420CD220836183A283E3830498FFF7B1FF04F1800000F002FC002070BD65
:2036D000182070BD03490A8A10430882886AFEF7E1BD00000802002008250020380800205C
:2036F000F0E70000E0B50821ADF800100190022100F00FF808B100200EBD02980EBD00B507
:2037100083B00821ADF800100190032100F001F807BDADF8021000A8DFF82C1409680847F0
:203730001FB5ADF80610ADF804000824DFF818140968ADF80040ADF802408DF80820039392
:2037500000A8884704B010BD30B585B0144602910822ADF800201D46DFF8EC130968019030
:203770001922ADF8022000A8884714B1BDF80C10218015B1BDF80E102980089A0499116097
:2037900005B030BD00B583B00820ADF800001A2000F014F810B9BDF804000EBDFF200EBD55
:2037B000E0B5ADF80000ADF80610002000F006F810B99DF808000EBDFF200EBDDFF8881369
:2037D0000968ADF8020000A8084750B110F1040F01D10420704710F1030F01D1022070474A
:2037F000012070478123037042EAC1110023C37041F47C4181807047822303700023C3705E
:203810008180827170473EB504460820ADF800000D462020ADF802001020DFF82C130968F2
:20383000ADF8040000A8884720B9029810B16FF004003EBD00950023002221464FF0FF3017
:20385000FFF782FF3EBD10B582B01446CA78012A03D18A88DFF8F4321A8000F010F858B9A2
:20387000009000A92046FFF7CEFF28B900984478FFF745FF204616BDFFF7A7FF16BD0B466E
:20389000022210214CE738B51C461546FFF7F7FFB8B9009000A92846FFF7B5FF88B900985F
:2038B0004578002D04BFC079A04205D1009881680498224600F070FA0098FFF720FF284660
:2038D00032BDFFF782FF32BD38B500F042F8050002D01022012109E031BD38B500F039F85C
:2038F000050002D01022002100E031BDFFF784FF214600F0F6F92872FFF744FF2B4601B00C
:20391000BDE83040022210210AE72DE9F04100F081F807000FD0142200F019F83C72FD6064
:203930003E8287F81280FFF72DFF3946BDE8F041DFF81C2287E722E038B500F00AF80500C6
:2039500004D0152200F003F82C81D5E731BD012152E704460A20C5E61078802802BF5088C7
:2039700040F27F61884208D19088984202BF91790098814201D101207047002070470420C5
:20399000BDE8F08104460D46164698461020A9E60FF22D2311220021DEE0F8B500F0C6F8AD
:2039B00007000FD00A2200F03DF800F0B2F838727D813E73FFF7E6FE3946BDE8F8400FF296
:2039D000052240E70420F2BD0FF2FD130622D0E02DE9F04180460D4616461F461020FFF786
:2039F00081FE040010D0072200F01CF800F078F920726572A672E760FFF7C4FE2146BDE83A
:203A1000F0410FF2C9121EE7B9E70FF2C51308220021AEE004460D46164698461420FFF731
:203A300061BE32460421FFF7DDBE70B500F014F806000BD03022FFF7F5FF00F009F8314683
:203A5000BDE870400FF28D12FFF7FDBE042070BD34817581FFF796BE04460D460C20FFF7AB
:203A700041BE30B583B004460020ADF804000A20FFF738FE05000DD03122FFF7D3FF2C810C
:203A9000FFF780FE01A9009102230FF24D122946FFF7F9FEBDF804003EBD1CB500208DF85C
:203AB000040000F012F804000CD01222FFF74FFFFFF768FE01A9009101230FF2211221464A
:203AD000FFF7E1FE9DF8040016BD0820FFF70ABEF8B500F018F8070010D0122200F023F8DC
:203AF0003C81FD60314600F0FCF800F009F83946BDE8F8400FF22512FFF7A5BE0420F2BD90
:203B10003874FFF73FBE04460D4616461420FFF7E9BD21465020FFF743BE04460D46164666
:203B30001020FFF7DFBD0121FFF75CBE04460D4616460E20FFF7D6BD064A1268130018BF1D
:203B5000104770470000000038080020AC080020313C0000082E00202DE9F041FFF712FF02
:203B7000070004D0FFF75DFFBC60FD6094E0FFF706BF2DE9F041FFF705FF070006D0FFF74C
:203B900050FFFFF7C6FF3872FD6085E0FFF7F7BE1078802802BF508840F27F6188420CD172
:203BB00090884FF680710140B1F57E4F04BF00F07F00984201D10120704700207047000066
:203BD0001123E5E70A23E3E70623E1E70723DFE70823DDE73023DBE73123D9E780B512237B
:203BF00000930123FFF7B8FE02BD00001078802802BF508840F27F6188420DD190884FF6B3
:203C1000807101404FF68042914204BF00F07F00984201D101207047002070471223E5E7FA
:203C300080B51423DCE701460FF29D03002241F2054015E070B504460D46FFF746FF0600CB
:203C50000CD0812030700120F070B480FFF79AFD2A463146BDE87040FFF7F5BD042070BDC0
:203C70002DE9F04100F009F8070004D000F00CF83D817E8110E0FFF782BE04460D46164651
:203C900098460C20FFF72EBD812038700120F870BC8070473D81FE60FFF774FD42463946DA
:203CB000BDE8F041FFF7CFBD1078802802BF508840F27F61884204BF9088984201D101204F
:203CD000704700207047000041F20543ECE700000FF215014FF60E40ACE73C817D81BE81C1
:203CF00041465020FFF75CBD4FF60E43DCE70000F8B5FFF712FF07000DD0012200F044F86E
:203D10003C727D7200F020F83946BDE8F8400FF27102FFF798BD0420F2BDF8B5FFF7FDFE62
:203D300007000DD0022200F02FF83C727D7200F00BF83946BDE8F8400FF24902FFF783BDE6
:203D50000420F2BD3C81BD72FE60FFF71BBD1078802802BF508840F27F6188420DD19088CD
:203D70004FF6807101404FF68062914204BF00F07F00984201D10120704700207047000035
:203D90000123E4E70223E2E70521FFF72BBD0000002200F0DFB8000062B38B0708D0521E9A
:203DB00011F8013B00F8013B00F024808B07F6D1830740F0208000BF103A07D330B4B1E8D3
:203DD0003810103AA0E83810F9D230BC530724BFB1E80810A0E8081044BF51F8043B40F869
:203DF000043BD20724BF31F8022B20F8022B44BF0B7803707047083A07D3B1E80810083A5E
:203E100040F8043B40F804CBF7D25307E4E70000DFF800F0A9C10110DFF800F079B50110DE
:203E300000B583B00821ADF8001001900521ADF8021000A83F490968884707BDF0B589B02C
:203E500004460D4616461F4608232422002100A8FEF744FA0F9838490968069000AB4FF46A
:203E70007A70B0FBF1F101FB07F0059001FB06F20E98ADF8100029462046FFF7CDFF2046E7
:203E900009B0F0BDFCF7BABB38B504460D46FCF732FC10B12046FCF7A9FB00F013F800FBE5
:203EB00005F12046FCF7A6FB2046BDE83240FCF7A5BB80B5FCF71FFC00B10120C0B202BDEC
:203ED000FCF794BB1C4909684FF47A70B0FBF1F0704710B50446FCF795FB38B92046FFF76B
:203EF00097FF8468FFF79CFF204610BD002010BD30B585B0044600A80FF244011422FFF701
:203F10005BFF0E4830210170A21D782141700623811C00AC12F8015D2D095B1E2D5D01F80A
:203F3000015B157805F00F052D5D01F8015BF1D105B030BD3808002008660000C82D002059
:203F50003031323334353637383941424344454600000000401810F0030308D0C91A1FD3A4
:203F7000DB0748BF00F8012D28BF20F8022D130030B414461546103928BF20E93C00FAD801
:203F9000490728BF20E90C0048BF40F8042D890028BF20F8022D48BF00F8012D30BC7047CE
:203FB000C91818BF00F8012DCB0728BF00F8012D70470000DFF800F009B70110DFF800F01E
:203FD0003DC10110DFF800F029AF0110DFF800F061C20110DFF800F0E1C20110DFF800F0D5
:203FF000B9C20110DFF800F0F9BF011050F8382F11430160704750F8382F22EA010101605C
:20401000704741647047406800F00F00704700214160704740687430FEF73CB94068903008
:20403000FEF738B970B5446885680E4606E0206A401C2062761E606A401C60624EB1206A25
:20405000DFF84026017812682868926990470028EDD1304670BD70B5456886680C4608E03B
:20407000296B0870641E286B401C2863686B401C686344B1DFF80C163068096809698847F6
:2040900010F1010FECD1204670BD70B504466568A66800F00FFA30684FF4FA61FFF7ABFF96
:2040B00056E238B540680FF23C63457F027F53F82530921D9A1800F1AC045143DFF8C82544
:2040D00080695143B1FBF0F0DFF8C01509683230B0FBF1F12046FCF78DFA2046BDE832405E
:2040F000FCF78CBA70B504466568A66805F1AC00FCF77CFA306880690007FBD400F0DAF908
:2041100030682021FFF777FF00F0C7F9016000F0C9F923E22DE9F8438146D9F80840D9F880
:2041300004802068066C3146FFF76BFF16F4F06F08F128052CD0700510D52068FFF763FF55
:2041500007462068FFF763FF2969212928BF202100F04FF816E02869401E2861286988B1AF
:20417000012100F046F82068FFF74DFF07462068FFF74DFF002FEED0A868401EA860E8684B
:20419000401EE86088F81F70484600F0C8F91FE070060BD5296900F02CF82861687910B1F5
:2041B0000020286111E0286900280DE0F0060FD5287D471E2869874228BF0746394600F0CE
:2041D00018F82869C01B286102D14846FFF75DFFD8F828505DB129464846FFF723FFC8F8EC
:2041F000280020B9291D4846BDE8F44359E7BDE8F18348462FE74068002101707047F0B56B
:20421000044697B06568A7680E46FDF74FFD297800294CD101212970FDF74CFD1EB90DA822
:2042300000F07AFA0DAE307868707078A87070686860B068A860F068E86030692861307DA0
:204250002875707D6875B07DA875B069A861307F2877707F6877B07FA877002028622863DC
:2042700068626863A862A86385F82C0085F82D00102085F83C00002085F83D00B868C0B2DC
:20429000FCF70AFC204600F071F9204600F0BBF988B9DFF8F01338680968C9688847B868FF
:2042B000C0B2FCF789FBFDF701FD00212970FDF701FD00204CE008233022002101A8FFF7DE
:2042D0007DFE00200694009001AB7968DFF8C02305F15800FFF776FE08232422002101A8CF
:2042F000FEF704F801208DF81C00A87840B901AA002105F17400FFF75DFEDFF89803286160
:20431000687840B901AA002105F19000FFF752FEDFF88403E86008232422002101A8FDF747
:20433000DDFF00200690ADF81400079401AB0A22DA4905F1AC00FFF76FFD0020009023466F
:204350000FF26D32042105F14400FCF791FB204617B0F0BD38B585684468286840F2F2714A
:20437000FFF749FEC74928680968C9688847CC48006800F059FBA868C0B2FCF71DFB04F19D
:204390005800FFF723FE04F17400FFF723FE04F19000FFF71FFE04F1AC00FFF71FFEFDF7DE
:2043B00085FC00212170FDF785FC04F14400BDE83240FCF741BE42684FF0FF3011B10129FF
:2043D00005D07047012082F82D0000207047002082F82D0070472DE9F84304466668A768AC
:2043F0000D469146FDF762FC8046B06A28B14046FDF760FC4FF0FF302EE006F1AC00FCF790
:20441000F5F80020F077356270624046FDF752FC0420FCF7A1FBA348016841F48071016059
:2044300020464946FFF7FEFDB06240B949462046FFF737FEB07870B900F010F809E0386889
:204450002021FFF7D3FDB07828B900F007F800B9B062706A00E00020BDE8F283B16806F17E
:204470007400FDF71FBF57E070B500F07AF8A96A002904BFBDE87040FDF71CBC0021A962DC
:20449000FDF718FC20213068FFF7B5FD00F005F800F00FF800F006F860E08248016821F429
:2044B000807170476A6A286A811A296220462B69704701600420FCF75FBAF8B54468856830
:2044D0000E461746FDF7F2FBA16B21B1FDF7F2FB4FF0FF30F2BDA763E17726636163FDF7BB
:2044F000E9FB0420FCF738FB6E48016841F4007101604FF4FA612868FFF778FD607840B9EE
:20451000616804F19000FDF7CDFE00B9A063606BF2BD0020F2BD00BF4FF0FF30704770B570
:2045300000F01FF8A96B002904BFBDE87040FDF7C1BB0021A963FDF7BDFB4FF4FA61306890
:20455000FFF759FD5748016821F40071FFF7B1FF6A6B286B811A29632046EB68BDE870402E
:20457000184704466568A668FDF7A0BBF0B587B0054602A80FF248111422FFF71DFC6C6814
:20459000404EAD6831682868C9688847286840F2F2773946FFF72FFD28683946FFF731FD40
:2045B00094F83C2094F83D0002A9D20851F8221008432968486300A8FFF714FD04F11800F7
:2045D0000FF21011027951F822100FF21812437952F82320807911430FF2101252F8200065
:2045F000A2693468646840EA010301992868A0472D48016841F010010160416841F001019C
:20461000416007B0F0BD30B585B08468274A607B40F00040009000A8217B114341600821D1
:20463000A27BFF2A1CBFE37BFF2B07D042F000418160E17B41F00041C1601021FF220A50FB
:2046500000A9174D281D00F08AF92860C0B1617B0F2200F022FA217B2868102200F01DFA0E
:20467000A17BFF291CBFE07BFF2808D02868112200F013FAE17B2868122200F00EFA0120B8
:2046900005B030BDD001001040420F000866000025410000254000002D400000F54000001B
:2046B000B82D0020301000402C1000400000C0A080B5042804BF0846FFF758FF002002BDEB
:2046D00000000000080000001000000018000000200000000000000020000000400000001A
:2046F000600000000000000008000000000000000600000002000000860000008200000032
:2047100003685B681847034A0C2303FB00200268D2681047C06300000FF214012422FFF7F2
:204730004BBB03681B6918470368DB691847000000000000FFFFFFFFFFFFFFFF000000000F
:20475000000000000101010100C20100030000000000000090FAA0F0B0FA80F0704780B55F
:20477000DFF85C030068FFF7F5FFDFF858230121814011600121DFF850231160DFF84C13E8
:204790000A6890420BD201EB80014A683AB11368190004D0C1B21046BDE80440184701BDA7
:2047B000F8B50D00ECB244BF85F0204585F4C045A10001F1804101F5012100EA05060A6863
:2047D000DFF80C7385EA020382433E40034032431B0E00F4E026B6F5E02F03F0010302D15D
:2047F000D30105D411E010F4E02F08BF002B0CD002F4E023B3F5A02F04D0B3F5C02F04D17A
:20481000052300E0062363F312420A60410205D5A90DDFF8C02201F00101115500020ED579
:20483000FDF744FA00F00DF92C024CBF1C4600249A4322430A60BDE8F240FDF73BBAF1BD67
:20485000002948BF0021800000F1804000F5012001F03F010268920941EA821101607047A4
:204870002DE9F0438046DFF87002DFF86052DFF86C6297B00078DFF868020068C0F3460140
:20489000296019B1FF22304600F038F90027002405E08C55012202FA00F00743641C58F8C3
:2048B0002400C1B2FF2904D02A689142F1D3022052E00920FCF7F0F8C5F8808008232422A6
:2048D00000210DA8FDF712FD01208DF84C000DAA012105F1A000FFF76DFB0024DFF804929F
:2048F0000CE04846FFF75CFF4FF0FF31E0B2FFF7A7FF05EB840100204860641C286884422D
:204910000AD227FA04F0C00747BFA05D58F82010E0B240F4C041E4E708233022002101A873
:20493000FFF74CFB0020009001ABDFF8BC21102105F18400FFF746FBDFF8B001016821F432
:204950007C5141F4005101600120DFF8A4110860DFF8A0110860002017B0BDE8F0832DE979
:20497000F041DFF8686104460D4606F1A00800F032F800273DB9002020606060A06000275C
:204990001DB31EE07F1C15F82700FF28F3D03168884204D206EB800040680028F2D0002420
:2049B00013E006EB800101224C6002FA00F0616808436060204655F827204A4900F059F825
:2049D0007F1C15F82700FF28EBD14046FDF762FC2046BDE8F0814FF0FF314046FDF762BCBA
:2049F00010B50C46F0B1416821FA04F2D20719D50122A240914341600020344901EB8402E5
:204A100050603648225C3748FF2A0EBF44F02041D1F8801051F82210FFF7C2FE4FF0FF31D7
:204A3000204649E0022010BD10B5044605E0FFF791FEC1B22046FFF7D3FF60680028F6D117
:204A500010BD2D490A680123A340704710B51F4B1C68A14204D203EB81035B68834201D09C
:204A7000022010BD10001B4A18BF01205054002010BD38B5154C25680B461146CAB2AA424E
:204A900004D204EB82025268824201D0022032BD1846FFF785FE002032BD0B4610B511460A
:204AB0000A4A1468A34204D202EB83025268824201D0022010BD1846FFF7C2FE002010BDAA
:204AD000E0200240E020026080E200E0B82B0020007F077F00200240222E0020402D002079
:204AF00080120840007FC7676F470000003009400C40094008000940D020024062F30F2252
:204B100062F31F4200B500BF130096469446103928BFA0E80C50FAD85FEA417C28BF0CC0F3
:204B300048BF40F8042BC90728BF20F8022B48BF00F8012B00BD0000C068000900F00100F1
:204B500070472DE9F84F90B080461B98D8F8006000F0070596F82C0089469346814559D2F9
:204B700000F023F9002855D0B06A1A9C242101FB090000F1080A002C32D03222002158466E
:204B900000F080FA00280EBF3227A0EB0B00C7B22022322102A8FFF7B1FF3A46594602A890
:204BB000FFF7FAF81098214600F0A1FAC019801C16282BDA02A83818811C1098224600F014
:204BD000A6FA00F067F908B300F027F8002001900095002302AA4946404600F009F90DE002
:204BF00000F058F990B100F018F800200190009500235A464946404600F0FAF80022494672
:204C1000404600F0A3F85046FDF744FB06F10C00FDF740FB11B0BDE8F08F00232A46494671
:204C3000404600F0C7B8026892F82C2091423CBF012200F08BB87047036893F82C30994227
:204C50003CBF012300F0B6B870471CB5046894F82C40A14203D200F003F800F0C9F813BDB7
:204C700001240194049C009470472DE9F84300F02CF800F037F800F033F800F022F8074689
:204C900000F01AF80028FBD107B12EE0BDE8F1832DE9F84300F019F80122FFF7D7FE00F0FF
:204CB0001FF800F00EF8074600F006F80028FBD107B11AE0BDE8F183606880680068FFF7CF
:204CD0003BBF4A464146384630E00746034E7D683C6830688846914629797047D82D002043
:204CF000A97930680022FFF7B1BEA9793068BDE8F8430122FFF7AABE38B50FF2AC1425680D
:204D100000AB01F00F041D609DF80030D2188DF8002000AA9378E3189370537803EB111175
:204D30005170032200A9FFF7A0FF31BD00B585B00023039300920191029300A9006840683C
:204D500000F008FA00B1012005B000BD2DE9F84381460F46D9F80060150002D000F025F87B
:204D700008B3B06A242179430F58081800F108081DB1B16800F086F890B100242246002182
:204D90004846FFF7B9FF802207EBC4114846FFF77FFF641C082CF1DB2DB14046FDF77AFA10
:204DB00006F10C007BE0BDE8F183B16806F10C00FDF778BAF8B51446006824225143826AF5
:204DD0008E5889181D4601F1080725B181683846FDF768FA30B1802106EBC410FEF7D8FF32
:204DF00005B100E0F1BD3846BDE8F240FDF752BA2DE9F84F074615460C461E46284600F0F1
:204E10006DF981460A9806EBC01080B2009024213868826A61438F580B9C891801F108088A
:204E30001CB1816800F02EF838B300260FF27C0A4FF0060B12E0213A02EB820292B2002389
:204E500003EB020C03EB010E1CF80AC00EF807C05B1C052BF4DB00214171761C4E450ADA4C
:204E70000098725D0BFB0601C819202AE3D10621FEF78EFFF1E704B107E0BDE8F18F001B72
:204E90005FFA80F94046FDF70DBA4046BDE8F24FFDF700BAB1685046FDF704BA4846BDE841
:204EB000F243FDF7F7B90000B010000000005F00000007000700147F147F14242A7F2A1299
:204ED000231308646236495522500005030000001C2241000041221C00082A1C2A080808E2
:204EF0003E080800503000000808080808006060000020100804023E5149453E00427F4052
:204F10000042615149462141454B311814127F1027454545393C4A494930017109050336DE
:204F300049494936064949291E00363600000056360000000814224114141414144122141F
:204F500008000201510906324979413E7E1111117E7F494949363E414141227F4141221C42
:204F70007F494949417F090901013E414151327F0808087F00417F41002040413F017F0831
:204F90001422417F404040407F0204027F7F0408107F3E4141413E7F090909063E4151211B
:204FB0005E7F09192946464949493101017F01013F4040403F1F2040201F7F2018207F63E9
:204FD000140814630304780403615149454300007F4141020408102041417F0000040201DE
:204FF00002044040404040000102040020545454787F484444383844444420384444487F8E
:205010003854545418087E090102081454543C7F0804047800447D40002040443D00007F3A
:2050300010284400417F40007C041804787C0804047838444444387C141414080814141888
:205050007C7C080404084854545420043F4440203C4040207C1C2040201C3C4030403C4469
:20507000281028440C5050503C4464544C44000836410000007F00000041360800003E1CE1
:2050900008000000C9B2830706D0521E22D310F8013B9942F7D11FE0083A13D302F10402B1
:2050B00041EA012141EA014150F8043B121F21BF4B40A3F1013C2CEA030C1CF0803FF3D07F
:2050D000C9B2001F083210F8013B521E28BF91EA030FF8D818BF0120401E7047002100E0E6
:2050F000491CC9B20A5C002AFAD1084670470022002801D10120704705D54042012202E00B
:2051100090FBF1F0521C0128FADAD0B2704770B588B000AB0024B0FBF2F502FB1500C0B22D
:205130000A28B4BF3026372630181870280004D0641C5B1CE4B2202CEDDB002013F8012945
:2051500001F8012B401CC0B28442F7D20020087008B070BD0268126910470000DFF800F03D
:20517000B5C10110DFF800F021B9011000B583B000F00DF8032114E0E0B500F008F8042147
:2051900000F012F808B100200EBD02980EBD0821ADF800100190704700B583B0FFF7F7FF02
:2051B000052100F001F807BDADF8021000A8DFF83413096808472DE9F04186B0CA4CCB4D24
:2051D000DFF82C83C74F0FE0A869FDF763F8A888410709D54FF6FB710840A880E868FBF71B
:2051F00011FA08B900F0BBF839680820ADF800000A20ADF802004FF0FF30019000A888477B
:205210000028F1D1D8F800008047EA882B89A9881A436B891A431143A9800021E980298147
:20523000698121688847A888010603D54FF67F710840A8800820ADF808000920ADF80A00BB
:2052500002A839688847002801BF049EBDF80E006988884218D1296A080007D068780128B8
:2052700002D0022835D001E030468847304600F06AF906460C20FFF77FFF01468E60E868BD
:20529000FFF76CFF00F06BF82879C00627D5E868FBF7B8F998B900F0A1FA80B9E868FEF79A
:2052B000B7FD06000BD0B16848686861497800F0CDFAB068FFF770FF3046FFF76DFFE8689A
:2052D000FBF7A0F940B1A8884FF6EF710840A88005E030468847D7E7A869FCF7DBFF287996
:2052F00080070DD500F062F900F023FB28B9A8884FF6FD710840A88002E0A869FCF7CAFFF9
:20531000287900072AD52869FEF782FD06001AD0E96968880A001CBF2A78002A0DD0022AE5
:2053300001D002D30CE0B06804E0B16800F072F8B068E9694068884702E0B16800F06AF82E
:205350003046FFF729FF2869FBF75CF900283FF43BAFA8884FF6F7710840A88037E7A888F1
:2053700040F01000A880A869FCF794BF10B55F4C002086B0A08060610021FFF7F3FEE0606F
:2053900000210846FFF7EEFE20610820ADF800000020ADF802003820ADF8040000205149DC
:2053B0000968029000A88847BDF80C0060800498A0610FF2C10000F0BCF80FF241120FF26A
:2053D00011110FF2910000F0F3F9FFF7F4FE06B010BDCBE730B5474C20604FF400758FB021
:2053F000DD22294604F15400FFF788FB08233C22002100A8FCF742FF04F15400079008956A
:2054100003200690002300AA3B49201DFDF78CFC0FB030BD30B585B00C46ADF804000821CF
:2054300034480068ADF80600ADF8001000208DF80800ADF8021060682A490968039000A8CD
:20545000884705462046FFF7A7FE284605B030BD0000000010B5254C606918B1FFF786FECF
:20547000002060610420E080A069BDE81040FCF711BF0000F8B504460D4616460C20FFF72E
:205490007BFE07460820FFF777FE002F18BF00281CD045604470B8607EB90021134C0170F0
:2054B00039462069FFF75AFEA08840F00800A080A069BDE8F240FCF7EDBEFFF76DFE3846A9
:2054D000FFF76AFE2846BDE8F2404FE6F1BD000080B580B200F006FA044802214181BDE809
:2054F000024011E03808002034080020F82C0020300800207C200020E3530000004801E0F6
:20551000F82C0020802101818069FCF7C3BE0000E0B50821ADF8001001900221ADF80210D9
:2055300000A89E490968884708B100200EBD02980EBD10B504469A480088C0B2FEF7CDF9DD
:205550009848846010BDF0B585B004460820ADF808000420ADF80A000820904E924D316860
:2055700003902C6002A8884708B1002710E0049F77B1387028684088FFF7CAFF78602968C0
:2055900048887870786818B14A884968FEF704FC316801940820ADF800000320ADF802005D
:2055B00000A88847384605B0F0BD0000F8B5FF247E4D7C4E02E031800220B07000F0B9F9A8
:2055D000002800F0E980012100A800F0C2F92B78B7789DF80010581C092FEFD8DFE807F01D
:2055F0000705141A507B7E8487B2E4E7E6E79DF80000F170401E03D0401E012802D9C9E091
:205610000120DAE70520D8E7308840EA012030800320D2E700202870B18001F10C00FFF748
:2056300077FFF06010B300F1080141604268F1781170426831785170426871789170426850
:20565000B188D170447031888A0A3F2A0AD1C1F3C21139B19321017041688A7802F0030243
:205670008A7001E0022101700421B170B1880029A4D1B368190029D0014600220C2088E064
:20569000F16849689DF8002059180A71287000F050F90746F168287849684218B1880B1ACF
:2056B000BB4206DB3946101D00F053F92878381805E0091A89B2101D00F04BF9B0882870B0
:2056D0002978B0888142D3D1B368190062D0F16800220C305CE0F18006206EE7F08840EA93
:2056F0000120F080072068E7B180082065E7B08840EA0120B080002129701030FFF708FF44
:20571000010031611BD0032008704C70F0788870F0880205120D000B8A8000F003008871A5
:2057300001F11002B0880881CA6009220028B2709ED1B36818002DD00022102029E00020DB
:20575000B070F1BD3269D2689954287000F0F1F8074630692978C068B2880818531ABB42C5
:2057700005DB394600F0F5F82878381804E0511A89B200F0EEF8B08828702978B088814221
:205790007FF41CAFB368190004D0316900221030C0B29847002010E7F1BD00003808002041
:2057B000FA2C00207C2D00200C2E0020242E002070B500F07AF8064647480FF22902C4604C
:2057D000056100F59471183000F0E2F800F055F93046BDE870404149096808473E480078F6
:2057F0007047000038B50C463B4D0021A980688018B129690A0018BF884744B10020287031
:20581000E968080003D0E88808B920468847E98819B16869BDE8344018E031BD70B504466C
:205830000D4600F047F8A84202D200F043F80546294EB088801900F118012A462046FEF785
:20585000ABFAB0882818B080284670BD2DE9F04100F02BF8204E214F8046307820B1396838
:205870004046884700201EE0B5F5877FC3BF04F58770A5F587714FF487750021F18070614F
:205890002A46214606F59470FEF786FA01203070B068401CB060284600F003F90546396822
:2058B000404688472846BDE8F08104460C4800680D460047084841888088081A00F5877030
:2058D0004FF4877190FBF1F14FF4877202FB110080B2704700000000D0220020340800206F
:2058F00030080020F8B5284C284F0646608800258119B1F5877F08DDC0F58775A9B2C0193F
:20591000FFF78CFF0020761B6080B1B26088C019FFF784FF6088301880B24FF4877190FBA0
:20593000F1F14FF4877202FB11006080A81980B2F2BD154841880088081A00F587704FF4AA
:20595000877190FBF1F14FF4877202FB110080B27047F0B50C4B0D4D1C8800224FF4877742
:205970000BE0A4B2521C665D00F8016B641CA4B23E4694FBF6F607FB164492B28A42F0D33D
:205990001C800846F0BD0000102E00201029002010B54F4C8AB0E0612162A26100A8FEF7AB
:2059B000BBFE4FF4E130069000A900208DF815008DF8160003208DF81C0000208DF81D00B0
:2059D00001208DF800008DF8010000208DF817000FF23D0003900FF2190004900020FEF73B
:2059F00092FE606100220021FEF78AFE0AB010BD10B500F053F8044635488269110002D06A
:205A1000418A0020904720463249096843E00000F8B5314800681446804705462C4ECCB14E
:205A3000318A002089B2B1F5877F09DAF769835DCB5500228255401C491CC0B2A042F1D37F
:205A50008442318206D0B269100009D0718A4FF487709047B269100002D00021A0B2904790
:205A700000203082102270693146FEF75AFE2846BDE8F44017490968084710B500F00EF853
:205A9000134904460020088210224869FEF749FE104909682046BDE8104008470E48006855
:205AB000004770B50446FFF7F9FF094E316A7482054670692246FEF737FE10F1010F054935
:205AD00004BF00207082096828468847708A70BD1C2D0020340800203008002000B58FB0FB
:205AF00008233C22002100A8FCF7C8FBA44800F15001079100234FF42171089100AA01216B
:205B100006910FF20D01FDF70FF90FB000BD00002DE9F0478CB00820ADF80C000120994CEF
:205B30002168ADF80E0003A88847974DBDF8100068800420FBF710F80820FBF70DF8FEF7DC
:205B5000C7F840F2073A0FF244270FF2A8280FF2AC2913E003208DF8180005F12C020720F2
:205B70008DF8200000208DF8210007215046FDF7DFF8688806A9C0B2FDF726FF0820ADF82A
:205B900000000A20ADF802004FF0FF30019000A82168884700284FD10820ADF80C000920DB
:205BB000ADF80E0003A821688847BDF81210059EA0B9BDF81000102801BF68888142307834
:205BD000B02804D1317906F10800FDF7B5FF2EB10820ADF80000032000F055F80020FAF79A
:205BF00011FD48BBFEF775F9060025D03078012819D002281AD1707850B1022816D102A9B2
:205C100000F000F99DF8081004230A22484607E002A900F0F7F89DF8081004230A22404606
:205C300000F02BF902E0707800F034F80820ADF80000052000F027F8287940079ED506CF29
:205C500009A8083F06C06888C0B2FDF7DEFEA8884FF6FB710840A88005F10800FEF712F9F5
:205C7000287890F0010028707FF474AF8DF818008DF81900062209A90DF11A00FEF78CF81F
:205C900005F1340271E7ADF80200019600A821680847000030B5401E072885B037A53A4CA9
:205CB00066D8DFE800F00433654E5D374A6102A94FF44170FDF791F99DF808008DF8000077
:205CD00002A900A84A7842708A78827000220271C2704A798DF807200A79C9788DF8062054
:205CF000417100AA0821002000F0DAF802A8FEF7FFF8012100F0A8F802210FF2980000F039
:205D1000A3F804F10800FEF7BDF835E00FF2900002212FE000A940F21530FDF75EF904F1F9
:205D30000800FEF7AFF802210FF2800000F08CF800A8FEF7DDF803211CE002210FF2780069
:205D500018E004F10800FEF7BBF802210FF2800000F07AF80321284600F076F8042108E093
:205D700002210FF27C0005E002210FF2800001E00221284600F068F805B030BD0000000086
:205D9000A81D002038080020380600200000000000000000496E697469616C697A656400DA
:205DB0004164766572746973696E6700436F6E6E6563746564000000436F6E6E6563746591
:205DD00064204164766572746973696E67000000446973636F6E6E656374656400000000DC
:205DF00054696D6564204F75740000004572726F720000004368617220313A0043686172B7
:205E100020333A0010B50246084600240D4932B1022A08D005D3042A0AD006D30DE0097802
:205E300004E0497802E0897800E0C978017005E005220C31FDF7B0FF00E00224204610BD13
:205E5000000000005003002070B5124E0446306882B00D4680B12A460021FEF7EDFE306899
:205E70000095002322460021FEF7EFFE3068BDE87C400021FEF7D7BE73BD1CB504460548B3
:205E9000006830B1019300920B4622460021FEF758FE13BDF8050020DFF800F079CA011056
:205EB00010B51346002428B90A4619460348FFF7F3FF00E00224204610BD0000200800204C
:205ED00080B501280BD002280BD0042802D0082809D00AE000200A689047002002BD022019
:205EF000F9E70420F7E70520F5E7FCF713FF00BF38B50446012504E005FA00F0C0B2FAF758
:205F10002BFEB4FA84F0202800D131BD00F01CF8F2DB401FC0B2FAF7BFFDF2E738B50446C0
:205F3000012504E005FA00F0C0B2FAF725FDB4FA84F0202800D131BD00F006F8F2DB401F90
:205F5000C0B2FAF739FDF2E7C0F11F00C0B205FA00F14C400528704738B500793B4CA8B1D7
:205F7000FCF7CFF905462078FF2805D12846FCF7D3F96FF0060032BD401C2070C0B201286E
:205F900004BF6068FFF7B4FF284611E0FCF7B9F9217829B92E49096888476FF0070032BD32
:205FB000491E2170C9B219B96068FFF7B7FF01E0FCF7B2F9002032BD70B50446606810F053
:205FD0007F4F02D06FF0020070BDFCF79AF91F4E0546307828B17068FFF7A0FF6068FFF799
:205FF00087FF606870602846FCF796F9002070BD80B5406810F07F4F00D00DE0FFF778FF61
:20601000002002BD80B5406810F07F4F00D003E0FFF784FF002002BD6FF0020002BD1CB5EA
:206030000446A168606808601420FCF70DFB019010B96FF0030016BD002000900F21A36824
:206050000198044AFAF714FD002016BD4808002034080020D15E000010B50446FAF76EFCEF
:2060700000B101202071002010BD80B5FAF7CCFF002002BD10B50446FAF75AFC60600020BA
:2060900010BD10B504466068FAF756FCA060002010BD816807E002681168536889185B189A
:2060B000C36008320260C2689142F4D04A1C82600878704738B504460D46A068E16888422C
:2060D00012D120686168884208BFFCF723FE2068227C016802B14944A160426852180830BB
:2060F000E26091422060ECD0A068401CA06000F8015D31BD2DE9F0418AB000F10801059186
:206110000268520801EBC20106910021079108910168490800EBC10108310091017901F077
:2061300001018DF8101040680099400801EBC000019000200290039084E005A8FFF7A9FFEE
:20615000044614F0030603D105A8FFF7A2FFC61C25090F2D1BD105A8FFF79BFF00F10F0546
:2061700015E005980168081805990790496808180890059808300590079808998842F0D022
:20619000401C079010F8011D00A8FFF793FF761EF2D1002D51D005A8FFF77BFF0646A008F0
:2061B00000F00300032804BF05A8FFF772FFDDF800800299039F06EB002008E0A8F10808A6
:2061D000801A58F8081C58F8042C5718394658F8082C8A1A8242F1D30C1AAE1C2DD0BC4298
:2061F00006D158F8044B58F8040B0719BC42F8D00298039914F8015B884217D10098019952
:20621000884208BFFCF786FD009800689DF81010029009B148440290009902984968009ACA
:2062300009180832884203910092E7D00298401C0290761E00F8015DD1D102980399884238
:206250007FF47BAF0198009981427FF476AF0AB0BDE8F0817B756E6B6E6F776E2D696E7332
:2062700074616E63652D6E616D657D007B656D7074792D696E7374616E63652D6E616D65BE
:206290007D0000007B7374617469632D696E7374616E63652D6E616D657D00008F3F0000D3
:2062B0008F3F01008F3F02008F3F0300903F00018F3F0101903F0002903F00038F3F010448
:2062D0008F3F00058F1208048F3F00048F3F0006513F00007F3F01003F3F04003F3F020037
:2062F0003F3F01007F3F0200DFF800F055C0011038B51248FEF7B4FA114C124D23681B68AE
:206310000122012128469847226852680121284690470420FAF720FC0820FAF71DFCFCF7DA
:20633000E9F8FCF707F9FCF7F1FEFFF7D7FB1020FFF750F8BDE83140FFF7D6BF7404002028
:20635000D801001000400340EBC70CEEC90CF1CB0CF44B14F74E19FA521DFD582500613152
:2063700001144202184E031C5A04249305309300586300000D0700007FC80110C9BC011095
:2063900051B2011037C20110BDAD0110C1B10110C508000071BA011069BB011021C00110A1
:2063B0000010004015000000060000000302FFFFD8630000202A0020B063000000000000A7
:2063D000000000000000000065430000C7430000074200000F420000CB44000027450000E6
:2063F0002F450000E7430000774400007944000010B5074979441831064C7C44163404E01C
:206410000A68081D511888470146A142F8D110BD080000000C01000073B8FFFF040000009B
:20643000EC01002008000000F001002008000000F801002070250000B40800200000000094
:20645000B5FCFFFF0200000002000000F401000019000000780100202C00000099FCFFFF13
:206470000200000002000000F10100001C000000A4010020240000007DFCFFFF0200000098
:2064900002000000F10100000C000000C80100201C00000061FCFFFF020000000200000088
:2064B000600100001C000000000100204400000045FCFFFF0200000002000000CE010000D8
:2064D00006000000000200200400000029FCFFFF02000000020000004401000024000000F0
:2064F00044010020340000000DFCFFFF02000000020000008D01000009000000E40100204C
:2065100008000000F1FBFFFF0200000002000000800100009502000008020020AB06000082
:20653000DFF800F059C501100548012808BFFBF73EBC70470348012808BFFFF7F1BF7047DD
:20655000010000000100000000F00BF8002803D0FFF74EFFFFF7EEFF0020FFF7C9FEFBF746
:20657000C9FB0120704700B581B0FFF7DDFFC046C04601B05DF804EBFFF7E6BF44F2B03005
:20659000C2F20000854646F27750C0F200008047FEE700000100000000000000000000000E
:2065B0000000000001000000F0FFF1FFF2FFF3FFF4FFF5FF02000000B865000045B50110F7
:2065D000611E000099A6011019B80110002800000328000001290000022900001000000042
:2065F00050000000080000002F0800006400000082000000200000000A000000F1100000EB
:2066100083010001A10CD00340070020000143A8081420023401002004523C0412000110C6
:2066300003202E00201804121C04211013B03F0822040A4006002001010000F02A18610421
:206650005200011007B0050020E0060020010CC301000112041C12440422000150026CDCCA
:20667000020001500390060020030C0006F31D0000311E0000F3010100012002100700203B
:20669000081200010002B005002000020800000090050000000100030001F00DBE3075FFF5
:2066B000FF00000600800C0000E8030001F001590201066C110427DC656140020000C46545
:2066D0001052E0102002AE0800201012BA1025654350031052E42043BC0710613052AF3016
:2066F00052BC10D25130D2D03052B03052BE78D25230D2E43052B13012C010210252533046
:2067100052E8A0D25840D2F84052B24012C210120408D25C30120C20100300008080010421
:20673000120204120304120404120504196C13800704120804120904120A04120B04120C24
:2067500004120D04120E04120F041210041211041212041213041214041215041216041288
:206770001704121804121904121A04121B04121C04121D04121E0442FFD7318C2002FC04A0
:20679000002004D007240500209C0100200001432D0808124420F30104052043811E0821C9
:2067B0003C214480041027000010276052314012641C52644052013C620445320234311C9C
:2067D000E0020BC2011064E20111D11443C5A70883491E1E168C94C3C5A734C3C5A70861BC
:2067F00006D0030D00C080FF6013A81990F3380400011D6C0310020302F0FF08320208E3B7
:206810004002CC200401008806002004F1031C12A418210416071E100B384035002D40010F
:2068300040028460005D08101000F80118A384070083057EA40306E0EA23064C10066045B1
:2068500000C3003801FF0112E03821049E6DEF03120504E5CD4338071312100821045218C5
:206870000452200452280452300452380452400452480452500452580452600452680410F0
:20689000030105A200AC901F806350031D51031003042E00200804962CD54F4B146C031303
:2068B000FF0009110212CC1C294B432813A443800610F00F014368617261637465726973DB
:2068D00074696320310014F2023214F2023314F2023414A6352027010D1D100501001323B9
:2068F000000029041803CF2400006D7412C904432B1F2425631E50E003210452580452607E
:206910000452680452700452780452800452880452900452980452A0042D40030005FFFF20
:056930000A020810023C
:20E0000038B504460D460EF0FDFE08482168016061684160A16881600EF0C0FC0CF0DBFE60
:20E020002846BDE8324003F0CABA00BF20480020DFF84C1C0876704770B5DFF8484CDFF8C2
:20E04000485C20702878C00000F0F2FF606048B32878800000F0ECFF0100A16004D16068F6
:20E06000BDE8704000F0F1BF4FF6FF76304600F0FFFF6168002006E021F8306001EBC00366
:20E0800000225A60401C2A789042F5DB052000F0ACF8207801F0ECF8BDE87040DFF8EC0BBB
:20E0A00001F0BBBC70BD38B50C46200418D5DFF8D40B007801F0D1FE05000ED02878B02832
