S034000052414D436F646556325F4D617276656C6C5F38384D573330305F45787451535049305F5732355178785F4E4F522E6D6F7489
S11300007F01C901550241035F042B052D05000042
S113001070B402210222002300208D4C0D02666878
S11300202E43666066682E42FCD13125E561A569E0
S11300302D0C2D04A56121626361636863609023C4
S1130040236163682025AB436360236801251D4356
S11300502560022523682B42FCD06368B54D1D4002
S1130060656063688D031D436560022523682B4228
S1130070FCD023682B42FCD02368DB06FCD40302AB
S1130080E068C0B21843521EF3D1226801239A4398
S11300902260022322681A42FCD080B270BC7047EE
S11300A070B46B480121C161002202624268A24B14
S11300B01340436005220261426820239A43426050
S11300C0026811430160022102680A42FCD04268BE
S11300D0984B134043608A034368134343601023DF
S11300E07624964D2E68F60700D5EC6006681E420D
S11300F0FCD1C668F607F5D403680B42FCD043680C
S11301004C031C43446043681342FCD1026801233E
S11301109A43026002680A42FCD0090242680A4318
S1130120426042680A42FCD170BC704748490122CF
S1130130CA6100230B620861086802430A60022056
S11301400A680242FCD04A68A0231B0213434B6096
S11301500A680242FCD00A685206FCD54A68430386
S113016013434B6082034B681342FCD10A6801239A
S11301709A430A600A680242FCD00020704738B5EE
S11301805468002020800821A170E07001212171B1
S11301906171A171E17121726072A172216160616A
S11301A00D03A561E561FFF733FFC0B2142804D045
S11301B008D3162805D002D304E0ED0802E0AD0808
S11301C000E06D08A56131BD30B450685169204B21
S11301D08024A4005D6825435D605D682542FCD1F0
S11301E03124DC619C69240C24049C611962126929
S11301F05A615A685A6003221A615A682024A24339
S11302005A601A68012414431C6002221C681442B8
S1130210FCD05C68474D25405D605C6895032543D0
S11302205D601C681442FCD01C681442FCD01C683D
S1130230E406FCD4DC680470401C491EF4D1186840
S113024001218843186018681042FCD030BC704704
S113025000000146F8B55768146955690020086024
S1130260B64E80208000716801437160716801425C
S1130270FCD1B3480168C90701D57621C1600620C5
S1130280FFF754FF3120F061706870602002000AAB
S1130290706102203061716820229143716031687D
S11302A001220A433260022231681142FCD0716893
S11302B0A02212020A437260002180223368134292
S11302C0FCD13B78B3607F1C33681342FCD13B788C
S11302D0B3607F1C33681342FCD13B78B3607F1C4E
S11302E033681342FCD13B78B3607F1C091DFF299E
S11302F0E4DD31680142FCD031684906FCD57168FF
S113030042030A437260810372680A42FCD1316875
S1130310012291433160022231681142FCD0FFF77F
S1130320BFFEFF20C0432D1840422418002DA0D149
S1130330F1BD0000FFDFFFFFFFF3FFFF00000448F3
S113034070B50020086055697C4C80208000002D29
S11303503BD161680143616061680142FCD1784826
S11303600168C90701D57621C1600620FFF7DEFECA
S1130370C7202061206801210143216002202168F7
S1130380C9B20142FBD0616802030A43626081037F
S113039062680A4362602268D2B20242FBD02268D9
S11303A05206FCD56268430313436360626892B2E9
S11303B00A42FBD121680122914321602168C9B21C
S11303C00142FBD0FFF76CFE70BD11690E02360AC4
S11303D061680143616061680142FCD15848016869
S11303E0C90701D57621C1600620FFF79FFE3120A1
S11303F0E0616068534901406160666120202061CA
S1130400206801210143216002202168C9B2014210
S1130410FBD0616802030A436260810362680A4395
S113042062602268D2B20242FBD022685206FCD536
S11304306268430313436360626892B20A42FBD169
S113044021680122914321602168C9B20142FBD095
S1130450C0023618FFF724FE6D1EBFD170BD10B464
S11304603949886A042202438A628020C0018A6A68
S113047002438A620A6802239A430A602F4A536835
S11304801F24A34353608B69304C1C408C618B69DF
S113049004091C438C612E490B680B6001230C6812
S11304A01C430C604C684C604C681C434C608C686A
S11304B08C608C681C438C60CC68CC60CC681C431A
S11304C0CC600C690C610C691C430C614C694C6177
S11304D04C691C434C61516844090C435460516895
S11304E0D36100211162AB21116111680B431360C8
S11304F0022113680B42FCD0536844081C43546027
S1130500430054681C4354601468146854682043BE
S1130510506050681842FCD1106801239843106061
S113052010680842FCD010BC70477047044801684A
S1130530C90701D57621C16070470000000001465B
S113054000000448FFEFFFFF7C000A48FFF8FFFFAC
S107055070000646E7
S9030000FC
