:020000040000FA
:10000000C02100200DB2000001CA011001CA011078
:1000100001CA011001CA011001CA011001CA011070
:1000200001CA011001CA011001CA011001CA011060
:1000300001CA011001CA01103FCA011080B54FF476
:100040008071012208461FF0EDFB1248016841F45F
:100050008061016000201049086001BD0F48006800
:10006000C007FBD5704710B50C4CE068400558BF81
:10007000FFF7E4FF2068C007FCD509490968496813
:100080000220884704490A68904201D1054810BD02
:10009000086010BD14800240341F00200880024018
:1000A000CC010010EFBEADDEF0FF000000680107DC
:1000B00001D50420704700F003007047EFF3108073
:1000C00072B67047EFF3108062B670470748084A6F
:1000D000816812780068C90352B2A0F54070C91354
:1000E0005043A1EB20108030001270472850094087
:0800F0000C13005001207047C1
:100100003C0000000000000000000000340100007E
:1001100000000000000000000100000000000000DE
:1001200000000000000000000000000001000000CE
:100130000000000008000000000000003400000083
:100140000000000000000000680100000000000046
:10015000000000000100000000000000010000009D
:100160000000000000000000080000000000000087
:1001700030000000000000000000000098010000B6
:10018000040000000000000001000000FFFFFFFF6E
:10019000FF00000001000000080000000000000057
:1001A0002C0000000000000000000000C40100005E
:1001B000040000000000000001000000FFFFFFFF3E
:1001C000FFFFFFFF080000000000000034050000F2
:1001D000E401000099A1011095A70110A5C201102A
:1001E00009B2011045B80110000000000000000035
:1001F00031000000280000000000000000000000A6
:10020000140200000000000000000000FFFFFFFFDC
:1002100000000000080000000000000030050000A1
:100220003002000069C201106DC101101FC201102F
:1002300095BA01100000000000000000330000002B
:10024000300500005402000075C20110A9B601106B
:100250009DBF011049B60110000000000000000021
:100260003400000024000000000000000000000036
:1002700080020000000000000000000000000000FC
:100280000800000000000000240000000000000042
:1002900000000000A40200000000000000000000B8
:1002A0000000000008000000000000002400000022
:1002B0000000000000000000C80200000000000074
:1002C0000100000000000000080000000000000025
:1002D00000000000A8110020040000000000000041
:1002E000000000002000000070010000300000004D
:1002F0001C020000B01100200400000000000000FB
:10030000000000000C000000300400001800000095
:1003100040020000B81100200400000000000000AE
:100320000000000024000000480400001800000045
:1003300000000000C01100200400000000000000C8
:100340000000000010000000A00100002C000000D0
:10035000CC010000C81100200400000000000000D3
:1003600000000000200000006402000024000000E3
:10037000FFFFFFFFD011002004000000000000007C
:100380000000000028000000880200002400000097
:10039000FFFFFFFFD8110020040000000000000054
:1003A00000000000580000003C0100003400000084
:1003B000FFFFFFFFE011002004000000000000002C
:1003C00000000000100000006004000018000000A1
:1003D000FFFFFFFFE8110020040000000000000004
:1003E000000000001C000000AC020000240000001F
:1003F000FFFFFFFFF01100200400000000000000DC
:100400000000000038000000F40100002800000097
:10041000FFFFFFFFF81100200400000000000000B3
:100420000000000054000000000100003C0000003B
:100430001800000000000000000000004004000060
:10044000080000000000000018000000000000008C
:100450000000000058040000080000000000000038
:100460001800000000000000000000007004000000
:1004700008000000000000000100000078B2000049
:01048000007B
:100484000100000000000C0000000D00320000001C
:1004940002000000C40F0020000200000000000061
:1004A40001CA011000000000000000000800000064
:1004B400000020008C0F00200100000060110020CB
:1004C4000800000000000000000000000000000020
:1004D400000000000000000001000000F40F0020F4
:1004E4000600000001000000BC0E00200000000017
:0C04F400000000000002000000000000FA
:0F0502002B0001002500330034003100010001FF
:100514000400000038B200000000000000000000E9
:10052400000001000000030087C40110380500002A
:10053400380500000000000080000000800000007A
:100544000000000060110020C33E000020000000F5
:1005540024B200007CAF00000DC30110B13D0000C7
:10056400B33D000099C801109BC8011000000000B1
:1005740080040000C8FD0100E0FD0100B0FD0100A1
:090584000800090001000000015B
:10059000000000000000000000000000000000005B
:1005A0005D3C0000B13C00003D3B0000DB3C000036
:1005B000A13B0000593B0000E53B00001D3D000051
:1005C000413E0000914000009540000008000000FE
:1005D0002400000018000000280000002000000097
:1005E0003C0000000C00000034000000DFF800F0C8
:1005F00049C70110DFF800F091A50110DFF800F005
:10060000D9C10110DFF800F025B10110DFF800F0CA
:1006100041AC0110DFF800F013C1011030B58FB00C
:1006200008233C2200216846FFF7E8FFDFF8DC489A
:10063000DFF8285D04F15000079040F28A2008900E
:100640000120069095F8660010B1C02002F0A5FBCD
:1006500000236A460FF6D1012046FFF7D3FF95F835
:10066000660010B1C12002F098FB0FB030BD000051
:100670002DE9FE430820ADF800000120DFF8E01C62
:10068000DFF8E05C0968DFF8D46CADF8020006F131
:10069000480468468847BDF8040068870298E86403
:1006A000A07F10B1C22002F078FB0020DFF8B81C58
:1006B0000854401C8028FBD3FFF7D0FCFFF7D3FC85
:1006C000410B69642864010E2176010C6176010AF0
:1006D000A176E0764FF49070284402F002FC286581
:1006E00000230020019000903222DFF8801C05F1E9
:1006F0006C0002F0ABFB00F01EF93222DFF8701C38
:1007000005F1900002F0A2FB00F015F94FF496629B
:10071000DFF8601C05F1B40002F098FB00F00BF963
:100720004FF4B07040F6B832DFF84C1C00F000F91E
:1007300000F001F94FF4E6703222DFF8141D00F0EA
:10074000F7F800F0F8F84FF4C2704FF4FA52DFF8FF
:10075000041D00F0EDF800F0EEF84FF4D47041F60F
:100760005832DFF8F41C00F0E3F800F0E4F84FF43E
:10077000F87044F62062DFF8E41C00F0D9F800F0CD
:10078000DAF848F6B802DFF8D81C05F1D80002F014
:100790005DFB00F0D0F842F21072DFF8C81C05F1E2
:1007A000FC0002F053FBDFF8C05CE86903F0D4FA08
:1007B000A869DFF8B81C884207D10020DFF8B01C18
:1007C000095C3154401C1028F8DBA888DFF8A46CC1
:1007D000DFF8A49C000A2072A88860726888000A6A
:1007E000A0726888E0722888000A20702888DFF8E4
:1007F0008C5C6070142003F026FC2860052003F058
:1008000022FC30600A2003F01EFCDFF8741C086034
:10081000052003F018FCC9F800000520DFF8641C6F
:1008200008702868002819BF306800280FF2F0000F
:10083000FFF7DCFE0020DFF8501CDFF8502CDFF85B
:10084000503CDFF850ECDFF8508C06E004285CD810
:10085000DFE800F00315263749002F68C7F800804D
:100860004FF0080C376887F800C04FF0010CD9F83A
:10087000007087F800C0E77847F0100731E02F6874
:1008800079604FF0030C376887F801C04FF0010C16
:10089000D9F8007087F801C0E77847F0200720E01A
:1008A0002F68BA604FF00E0C376887F802C04FF01F
:1008B000000CD9F8007087F802C0E77847F04007CD
:1008C0000FE02F68FB604FF0050C376887F803C016
:1008D0004FF0000CD9F8007087F803C0E77847F0B4
:1008E0008007E77011E02F68C7F810E04FF0050CA3
:1008F000376887F804C04FF0030CD9F8007087F808
:1009000004C0A77847F00107A770401C05289DDBAD
:10091000A07F10B1C32002F040FABDE8F7830000C9
:100920006D616C6C6F63206661696C6564000000CA
:10093000284402F08BBA00200190009000237047F9
:100940002DE9F047DFF8544B207F0228A4BFC420D4
:1009500002F023FA102003F076FB050004BF0FF22B
:100960009810FFF743FE0A20A8704FF6FA7000F0C7
:10097000D7F8284603F07EFBDFF8E85901F014F9B8
:100980004FF0FF3003F004FD012003F0E1FC04F020
:1009900099F86078E1780840000705D5FF2004F059
:1009A0009BF9FF2004F0CAF96078E178084040071D
:1009B00044BFFF2004F0F2F90427DFF8C06ADFF833
:1009C000B8AADFF8B08A4FF001096078E27800F049
:1009D00055F80CD100F043F810F8040C11F8041C81
:1009E00000F044F83A1F50F8100C04F0E7F97F1CAF
:1009F000082FEADB00272078A27800F03FF809D121
:100A000000F02DF80079097900F030F83A1D0069FE
:100A100004F0D4F97F1C072FEDDB4FF40A70284453
:100A200004F033FC4FF40570284404F0BFFE4FF48B
:100A30000870284403F050FC68790028607914BFDE
:100A400040F0010000F0FE006071207F022804DB0E
:100A5000BDE8F047C52002F0A0B9BDE8F087D8F89E
:100A60000000DAF80010C019C919704700EB400007
:100A70000818C1B2306800EB8700704709FA07F127
:100A8000104008408842704738B5DFF8D00890F829
:100A900066000228A4BFC72002F07FF9DFF8C4482F
:100AA0000120A070102003F0CEFA050004BF0FF261
:100AB0004800FFF79BFD0A20A8704FF6F87000F081
:100AC0002FF84FF6FA70288028461EF0F3FA4FF4FC
:100AD000B070204402F0DEF94FF4E670204402F0DA
:100AE000D9F90120607004F16C0002F0D3F92846B6
:100AF000BDE8324003F0BEBA6D616C6C6F636F6627
:100B0000504D5472616E736C6174696F6E546162A2
:100B10006C654D6573686661696C65640000000012
:100B200028800020E87028716871A871E871287227
:100B30006872A87228461EF0BDBAF0B589B00546A5
:100B400001F0ECF8132FA8BF00206CDADFF814488E
:100B500037B9208D00280CBF00214FF400415EE022
:100B6000022F04D13078717801EB002156E0022D7C
:100B7000DFF82C094CD1717A0278914202BFB17A28
:100B8000407881424ED13146684601F04EFF9DF8D3
:100B90000C00C00730D59DF81100802818BF4028F0
:100BA0002AD1202003F04FFA002860663AD031465F
:100BB00001F03BFF01202077607E98BB206C626CC7
:100BC000010410182064090E062091FBF0F00622A3
:100BD00002FB1010851CEDB2284601F079FE0120C1
:100BE00060654FF47A7000FB05F14FF4C27000F0BD
:100BF0005FFC0820607615E00021684602F048F8A6
:100C0000607E78B901202076012101F08DF809E09D
:100C1000017B407B0022A26400EB012189B22846BF
:100C200001F0F4FA012009B0F0BDF8B5144602460F
:100C3000202A01DB0020F2BDDFF8285728B9687EA2
:100C4000032818BF04283CD02BE00027DFF85468A5
:100C5000C85DF0557F1C9742FADB7079B179D428D2
:100C600024D1FE2926D008202873DFF8F00690F85A
:100C70004C1041F0800180F84C106F74687E03289E
:100C800018BF04281DD005F040F907281CD005F036
:100C90003CF9032818D0697C324640F2073004F052
:100CA0009BFB2146012001F0B1FA0DE04C2808BF62
:100CB0000029D8D10B202873288D04F049F8307210
:100CC000DBE7C4F30E0028850120F2BD10B5034612
:100CD000152B01DB002010BDDFF8CC27401C107065
:100CE00009205070022004E00C1814F8024C14542F
:100CF000401C9C1CA042F7DB05211154401CC0B2D3
:100D000012211154411CDFF85C06438CC9B200F07B
:100D100011F8838C00F00EF802235354491CC9B219
:100D20000A235354491CC9B200235354491C01746B
:100D3000012010BD5354491CC9B21B0A5354491C0D
:100D4000C9B2704730B5044683B0E079227AA37AFD
:100D5000DFF8105602EB002292B2901E83B15B1EA8
:100D600000F08F805B1E00F095805B1E00F0A1807C
:100D70000D3B00F0B5805B1E042B40F2BF80C2E04B
:100D80001C2A40F09880E07A217B00F0C1F8012015
:100D9000BDF8001001F03AFA04F10F02012140F20F
:100DA000053004F019FBE07B687104F110020120AA
:100DB000207401214FF4447004F00EFB1820ADF8AC
:100DC000000068846A4600F0D3FE2820ADF80000D9
:100DD000A8846A4600F0C7FE012000F0A0F840F2A7
:100DE000133004F0F9FAE07D217E00F096F84FF41C
:100DF000457004F0F1FA607EA17E00F089F81F20B2
:100E0000BDF8001003F0F1FBE07E217F00F085F8D3
:100E100040F2063004F0E0FA607FA17F00F078F83D
:100E200001AABDF800000004019094F82010E07FB2
:100E300000F06EF8BDF80010019808180190042128
:100E40004FF4816003F026FC04F1210201214FF4EC
:100E5000806003F01FFC04F12202012140F20240F5
:100E600003F018FC04F12302012140F2034003F0D7
:100E700011FC04F12402012140F2064003F00AFCB7
:100E800040E0232A17DA2A8D04F10B01C0B2FFF7E4
:100E9000CCFE37E0202A0EDA04F10B01C0B2FFF7D6
:100EA00015FF297CDFF800264FF4427004F094FA15
:100EB00028E0212A01DB61203EBDC0B22028DFF8F6
:100EC000782C08DA002103E06318DB7A5354491CBC
:100ED0008142F9DBA974A97C002003F05CFA11E0DF
:100EE000052A0DD1207B617B01EB0020DFF84C1C33
:100EF0000880E07ADFF8481C087003E02C2A01DB48
:100F0000612100E00121C8B23EBD00002012002096
:100F100001EB0020ADF80000704701EB0020ADF8B8
:100F200000006A46022170472DE9F04794B0FFF7B0
:100F30009FFBFF2000F030FA03F07AFD28B99DF8FE
:100F40000000FF2818BF002806D1012000F024FA75
:100F500003F083FD9DF80000DFF80844DFF8E45B50
:100F60000FF2184ADFF8F883E07540F2073989E09C
:100F7000022001F04BF9002100F0E7FDA08F0005F1
:100F800020D5E87D10B1E02001F007FFA08F4FF2DF
:100F9000FF710840A0872078A0B1E87D0228A4BF97
:100FA000E12001F0FAFE04F09FFF58B9E87D022825
:100FB000A4BFE22001F0F1FE00202070287800F0AC
:100FC000F7002870A08F400519D5E87D10B1E32007
:100FD00001F0E3FEA08F4FF6FF310840A087217893
:100FE000207A08430BD1E87D0228A4BFE42001F059
:100FF000D4FE0120E0710121608F01F069FAA08F19
:10100000410415D54BF6FF710840A087002200214E
:10101000032004F045FF58B9E87D0228A4BFE5206D
:1010200001F0BBFE01202070287840F008002870F5
:10103000A08F01040DD5C0F30E00A087207A40B127
:10104000AD2001F0AAFEDD2001F0A7FE208F03F005
:10105000C3FCA08F810607D54FF6DF710840A0873B
:101060000120618D01F0D2F8A08FC1050AD54FF69D
:10107000FF610840A087E17C207D012902D108B1F1
:1010800004F0ADFB0820ADF804000A20ADF806001E
:101090004FF0FF30029000F088F900283ED1082080
:1010A000ADF80C000920ADF80E0003A800F07EF9A1
:1010B000BDF81210059ED8B9BDF81000102804BF65
:1010C000608F81420DD130884FF6FF71884203D086
:1010D000304600F06EF904E0B078C00748BF01F078
:1010E000FFF92EB10820ADF80400032000F05AF9F2
:1010F000E87D10B1D02001F050FE206DFFF78AFA94
:1011000060B9206D01F023FF060007D000F0D3F98D
:101110000820ADF80400052000F044F9607E0100CD
:101120006DD001286CD106A8514614221EF034FA65
:10113000A66D5EB10BA8314620221EF02DFA06A93D
:101140000BA801F013FCB66A002EF3D1A66D0020A7
:10115000A077E07684F8200001E02766B66A002ECA
:1011600039D006F11107F87CB8B194F820000028B6
:1011700004BFB87C01280BD1787C617F084304D17F
:1011800001207874304601F0B0FB012084F8200083
:101190003878202804BF0020F8743878802812BFDF
:1011A00040280120E076F87B0028D7D0A07F401CA3
:1011B000A0772C2002F047FF07460020B862314696
:1011C000384628221EF0E8F9E06D00280EBFE765DA
:1011D000206E8762C1E7A06D07E090F820100A003A
:1011E0001CBF491E80F82010806A0028F5D1A07F1E
:1011F00018B102206076207604E0607620769DE0CB
:10120000022812D104F081FE062808BF04F0E7FA94
:10121000A17F4FF4FA6090FBF1F0A066002001F08E
:10122000EBFA0520E07703204EE0042838D106A829
:1012300014211EF0DDF9216E19B90120A0760020DD
:1012400022E00BA820221EF0A7F906A90BA801F0A6
:101250008DFB9DF82E2006A9102001F059FAA17DE2
:1012600001F02AF906BF4FF4A0702218DFF8302DE4
:10127000484604F0B1F8206E806AA16E20664FF4F3
:10128000E67000F015F9012003210028617655D1A0
:10129000E07FD8B1012001F0AFFAE07F401EE07797
:1012A000607E052826D10020606500F071F84FF4BB
:1012B000486100F04FFC002000F036FF4FF4C27090
:1012C000204401F0E7FD0620607637E0208D0028FD
:1012D00014BF4FF400410021022000F097FF03E00B
:1012E000816AE16502F0C6FEE06D0028F8D10520B4
:1012F0006076D8E7072821D100F02AFC207FC0B112
:10130000A16D0020207700E0896A71B1087BC007D9
:10131000FAD5606E427C802A04BF497C402904D003
:1013200002F0A8FE0020606603E0606E022101F07A
:10133000AFFC01206076E06CFFF768F9A08F8104B4
:101340007FF51CAE4DF6FF710840A087208D002868
:1013500014BF4FF4004100210AE60000540E0020A3
:1013600080110020200500205004002029210000C9
:10137000392100008D210000072700000000000037
:10138000000000000000000000000000000000005D
:101390003021112003F029B98DF800006A4601219F
:1013A00080207047ADF80600029601A8D8F800101A
:1013B000084770B506463D4C3078B0283BD0D02861
:1013C00045D1B078DFF87C5D012802D00D281ED011
:1013D00070BD4FF4F87044F6206100F069F8002009
:1013E000207095F8660010B1DD2001F0D6FC607821
:1013F00068B395F866000228A4BFDE2001F0CDFC9A
:10140000207A20BBBDE87040012000F08DBE95F829
:10141000660010B1DC2001F0C0FC327B31694FF670
:10142000F07000F0C7FB95F8660080B1BDE8704031
:10143000FC2001F0B2BC30797F2804BF3089E07213
:10144000317906F10800BDE8704003F092B970BD33
:101450007928000089280000A7280000B128000092
:101460004921000081210000E0070E400DA615DC97
:10147000E8070E403C1F0020441F0020381F0020BA
:10148000401F00205E1F002040060E4000000E405E
:101490004C0B002030040E40A0020E409E0E002097
:1014A000A60E0020C8100020A81000202005002053
:1014B000204401F0F1BC2DE9F04F044685B0666888
:1014C000F079317ADFF87C9C01EB00201FFA80FA7A
:1014D0007079B17901EB002009F14E071FFA80F80D
:1014E000387E10B1D12001F058FC2078DFF8E85C9C
:1014F000012806D0022808D0102835D0802837D0FF
:1015000017E3607800F02AFC13E36478387E18B1A2
:10151000A01FC0B201F041FC05F1D80001F0D8FCD9
:10152000204603F0A9FE064606F10B0002F08BFDF3
:101530000090092000F011FBB01D00F0DBFDE88EEB
:101540000099000A4871E88E01F00AFA701C0099AF
:10155000087200984472009800F10A01204603F0D6
:10156000E7FEDFF8780C93E06068FFF722FFE0E227
:101570006378A97A288FDFF868BC112B00F0DE8031
:10158000402B00F0E980422B00F05581432B00F006
:101590008580632B18D0802B00F08781862B00F08C
:1015A0008882882B00F007828C2B00F044828E2BDF
:1015B00000F04A82FC2B00F09E82FD2B00F0A682F8
:1015C000FE2B00F08382B1E2287A00284DD0DFF8AC
:1015D000145C2878441C002109E0DFF80C2C126808
:1015E000337832F811209A4238BF0C46491C8142A8
:1015F000F3DB387E032805DB302001F0CEFBE0B2C0
:1016000001F0CBFB2878E4B2401C84422CDA30781D
:10161000DFF8D81BDFF8D82B12680291FF21019167
:10162000DFF8D01B0968095D125D01EB410151181B
:1016300089B200910022DFF8C01B096851F82430FC
:10164000DFF8B81BDFF8B84B01EB400104EB80007A
:1016500050F8500C1DF0EAFF397E032904DB01F03D
:101660009CFB312001F099FB63E2387E10B13820F9
:1016700001F093FB00F095FA00F095FC00F0BBFC44
:101680006872387E10B1392001F087FBDFF8740BE7
:1016900000F082FA0028E7D1009848E26368002B46
:1016A0003AD00A290CBF0B210D217288002303F0C8
:1016B00051F848B3002172880988914224D300214F
:1016C00005E00BEB010212794254491C89B2728881
:1016D0009142F6DB0190ADF80020387E0328A4BFCC
:1016E000EE2001F05AFB387E0328A4BFEE2001F063
:1016F00054FBA97A288F0A29694602D102F0D3FE49
:1017000014E202F0D6FE11E204208DF80400A87A5B
:101710008DF80000288F04E004228DF804208DF855
:101720000010ADF80200387E0328A4BFEF2001F0BE
:1017300034FB288F694602F0B0FEF7E10422ADF8D1
:1017400002008DF804208DF80010387E032802DB9B
:10175000EF2001F022FB8EE0387E0328A4BF20207A
:1017600001F01BFB9BF800002A8D222805D10BF10C
:1017700004011F20FFF759FA36E09BF804000BF133
:101780000501FFF752FA71889BF80400491C884252
:101790002ADA5844DFF8A0A34679AE7406F01F0297
:1017A000012A03DB811D50461DF0E6FE52463146FC
:1017B000002002F0F0FD9BF80400A97CDFF808ADE2
:1017C00008185844C1794E1C2E74F6B206F01F0258
:1017D000012A03DBC11D50461DF0CEFE52463146A4
:1017E0004FF4427003F0F8FD00F0DBF9687A00284E
:1017F00020D1387E0328A4BF212001F0CEFA012099
:1018000068726879002815D0387E0328A4BF22208A
:1018100001F0C3FA298DA87B48B10020A87369851F
:1018200005F1FC0042F2107101F036FB202101208D
:1018300000F0ECFC7DE163681B781C0020D0992B44
:101840000CD1387E032805DBDE2001F0A6FAAD209E
:1018500001F0A3FA288F03F0BFF86AE10422ADF883
:1018600002008DF804208DF80010387E0328A4BFF4
:10187000AF2001F092FA288F694602F00EFE58E17F
:101880001229387E08D10328A4BFAD2001F085FAC3
:10189000288F02F014FE4CE10328A4BFAE2001F013
:1018A0007CFA288F02F011FE43E170780A283FD1BC
:1018B0004FF6F870804517D1387E10B1D22001F074
:1018C0006CFA3078FF280CBF0220102006F10902C4
:1018D0005FFA8AF1FFF731F908B900F035F9387E7F
:1018E000002824D0D32020E04FF6FA7080451ED186
:1018F00006EB0A00C179007A00EB0120ADF80C007C
:10190000387E10B1DB2001F048FABDF80C20AAF1B6
:10191000020006F10901C0B2FFF787F908B900F02B
:1019200013F9387E002802D0DF2001F036FAFDE0FE
:10193000387E10B1D42001F030FABAF1000F37D060
:10194000BAF1160F34DA707AFF2821D1F07A317BA0
:1019500000F01AF9688400F00BF9707BB17B00F09D
:1019600013F9A88400F0FFF8F07B317C00F005F952
:1019700040F2133003F030FD707CB17C00F0FDF8D4
:101980004FF4457003F028FD042004F0BDFACDE0CB
:10199000AAF1010106F10A02C9B203F07FFC002896
:1019A000F5D0387E10B1D52001F0F7F9412100E0E3
:1019B000612180203CE0707A0A2832D1B07A08B1E7
:1019C000602134E0F079317A01EB002080B20D28FB
:1019D000A8BF61212BDA307BA87100F0E5F8707B9D
:1019E000B17B01EB002081B2022002F0FEFDF07B12
:1019F000317C01EB002081B2032002F0F6FD00F003
:101A0000A7F8FFF7C5FC0021232002F0EEFD38788F
:101A1000C007787A00F0F00048BF40F0010078720B
:101A200084E03046FFF78EF90128F9D0014688207E
:101A300004F0A1FD7AE0707A0A2802D1FFF724F8B9
:101A400074E0FEF77DFF71E0707A0A28387E11D1CC
:101A50000228A4BFC82001F0A0F94FF6F8701DF0CD
:101A600094FB04F041FA00206870787800F0F700E9
:101A700078705BE00228A4BFC62001F08EF9E87BF5
:101A8000062814BF072803F0AAFEA88F40F40060C0
:101A9000A887E86CFEF7BAFD0021012000F0B6FB34
:101AA0000021022000F0B2FB0021042000F0AEFB78
:101AB0003CE000F076F804F028FA062803D004F0A1
:101AC00024FA072835D103F08AFE32E03078462820
:101AD00002D0472809D00CE0307902F06DFF20B920
:101AE0003178307909F8010003E04121FE2004F04B
:101AF00042FD00F056F8307802F093FDADF80C008E
:101B0000000A3875BDF80C0078750FE06368187826
:101B10000002ADF80C005978BDF80C000818ADF8BB
:101B20000C00BDF80C10307802F05FFD606802F028
:101B3000A1FA05B0BDE8F08FE810002016120020D1
:101B4000050D0020A30E00206121802004F013BDAC
:101B50004FF44851102002F048BD009908708120D0
:101B6000009948707047022140F2123003F034BCF3
:101B7000022140F2113003F02FBC01EB0020ADF840
:101B80000C0003AA0221704701EB0020ADF80C0005
:101B900003AABDF80C007047006800226946FEF7F2
:101BA00029BD606802F066BAAA1D01214FF4806069
:101BB00003F012BC2DE9F04190B000F0AFF8212EF7
:101BC000DFF880853CBF07F16040B0F5A04F08F119
:101BD00050046FD2A07D0228A4BFF82001F0DDF8E8
:101BE000002008AD03E017F8012B2A54401CC0B2B6
:101BF000B042F8DBA07D0228A4BFD82001F0CDF8C8
:101C00004FF6F8701DF01CFA0A2808D19DF82070D4
:101C1000A079A7F10F0011287CD26878FF2879D12C
:101C2000A8789DF8231000EB012080B2B0F5D66FA4
:101C300070D1DFF8940CDFF8941C006888420FD153
:101C4000132F67DB4246102109A804F0EDFE142F84
:101C500006DB08A83844424610210F3804F0E4FEA1
:101C6000207829796A7902EB0121627802EB002061
:101C700089B280B281424DD109A9684600F099FE2F
:101C80009DF80500A178884202BF9DF80600E17822
:101C900088423FD09DF817009DF81610A37899420E
:101CA00004BFE378984235D0DFF82C459DF8022038
:101CB000A36D09E0A07D02282CDBD72001F06DF890
:101CC00028E0012D26D09B6A5BB19D7D8D4204BF2B
:101CD000DD7D8542F7D19D78012AF2D09542F2D37D
:101CE00018E00121684600F0D3FF98B1607E00281B
:101CF00004BF207F00280DD1606D48B940F6CE406A
:101D000000F0E6FD012060654FF4FA6100F00CF888
:101D100001202076002010B0BDE8F0810F46164665
:101D2000202168461DF064BC4FF4B070204401F0DF
:101D3000B3B881780D2908D101694A78FF2A01BF1B
:101D40008A78B02AC978062903D1024600211020DA
:101D500022E270470146002201201DE22DE9F043F6
:101D600087B0044600208DF80A00DFF8D88398F881
:101D7000660000281CBF44F0600001F00EF8DFF898
:101D80005854DFF85864DFF87C7400BF611EA878EF
:101D9000062905F1D80925D8DFE811F0070025004C
:101DA000FE00B000B0005600AD00DFF8346D3146E3
:101DB0004FF4417003F06DFC307871788DF80C00B1
:101DC00003AA03A84170B178817000210171C1702C
:101DD0007179C17131798171F178417100200821E7
:101DE00002F078FED8E0287A0028FBD098F8660048
:101DF00010B1762000F0D1FF00F0D5F800F083F9A3
:101E00004520019948700020019900F0CBF800F0BE
:101E1000F2F80022386801A9FEF7ECFB10B901982E
:101E200002F028F93868FFF7B8FE08B900F068F941
:101E3000E88E1DF0AAF90E2002F005F900F0CAF8AC
:101E4000002200F0B3F8A0E018B104F04DF8002033
:101E500068700DF10A0200F03EFB0020687201205C
:101E60002872287B0B2804D148F6B801484601F0B7
:101E700013F803A940F2153003F00BFC0020ADF875
:101E80001400062203A90DF116001DF075FB02A92E
:101E900005A81DF0E2F8FE2802D103F0A0FC28E01E
:101EA000FF2821D14FF6FE77EF86102002F0CBF805
:101EB00006460920B07037800020F07030719DF820
:101EC0000C00707103A84178B1718178F171C1780B
:101ED0003172017971724079B07230461DF0EAF8C2
:101EE000304602F0C7F804E0092804BFBDF8080036
:101EF000E88600F08BF8012028724DE030B1012017
:101F0000687000202870012000F00EF9484600F0AB
:101F1000DFFFE87B062818BF07283DD198F8660048
:101F200010B1772000F039FF00F03DF8009001205B
:101F3000009908704520009948700020009900F031
:101F400031F800F0E0F84020019948700020019934
:101F50004880002238686946FEF74CFB08B900F05B
:101F6000CFF83868002201A9FEF744FB10B90198A8
:101F700002F080F80E2002F066F800F02BF800F076
:101F800015F8E88E1DF001F9002230686946FEF769
:101F900031FB08B900F0B4F8EC7307B0BDE8F0838A
:101FA000081100204880062002F04DB80099887181
:101FB0000099C8710320009908729920009948720D
:101FC000E88E0099000A8872E88E0099C872002095
:101FD00028727047009009200099087081200099AC
:101FE00048700820009948808120009908710020DD
:101FF00000994871704700900120009908704020B6
:1020000000994870002000994880704770B586B0EC
:10201000172002F018F80090092000996E4DFFF784
:102020009DFD112000F066F8002400994C710C20F1
:1020300000998C710099CC710099087290200099D8
:102040004872287B009908280CBF09200B20887251
:10205000287B08280CBF09200B20687302A8009970
:10206000CC72092600990C73E98E1DF06DF858B1F9
:1020700002A820440099C078F6B23144761C641C52
:10208000062C0871F4DB08E00099F6B23144761CA6
:10209000641CB520062C0871F6DB0099F6B23144B9
:1020A000FF20721C0871D2B200991144FE20087101
:1020B00000224A4800686946FEF79CFA08B900F019
:1020C0001FF8287B0B2813D1FFF76DFF00F01BF8DA
:1020D00046200199487068200199488000224948AB
:1020E000006801A9FEF786FA10B9019801F0C2FF55
:1020F00006B070BD00994880812000990871704732
:10210000009801F0B7BF0190012001990870704755
:102110000146002202203FE0DFF8680BC17402751F
:10212000818F41F4807103E02B48818F41F48061FD
:102130008187C06CFEF76ABADFF8480B818F41F4E3
:102140000051F5E7540E002010B5AA2000F025FE3E
:102150002D4C94F84C0000F020FEAA2000F01DFE4B
:10216000DFF8200B017A51B194F84C10090606D41F
:10217000818F41F400418187BDE81040D9E710BD4F
:10218000DFF8000B818F41F02001D1E7DFF8F40A7E
:10219000818F41F48041CBE770B584B004460820BC
:1021A000ADF800000D460420ADF802000820DFF86D
:1021B0007C1B0968019016466846884750B9029A08
:1021C00042B1147055705660DFF8B80AC16C006DEA
:1021D00000F08EFE7FBD000020050020FC1D0020C9
:1021E000500400205E1F0020401F0020534E0000BE
:1021F000441F00203C1F0020381F002048FC010025
:1022000020190020601E0020540E00202DE9F04708
:1022100082B081460020ADF800000C46DFF8645A19
:10222000DFF80C6B688F47F6FF776F862F86EF8598
:10223000002100F04DF90DF1010200F04CF940F2DF
:102240001B380DF101020121404603F0C5F84FEAA9
:10225000D43AB9F1010FC4F30E0406D0B9F1020F5C
:102260001FD0B9F1100F4ED060E0210012D0BAF1AA
:10227000000F05D000212971317801F0F90131708A
:102280000121112CB8BF102469712C85307840F0E1
:1022900001004AE0002068712885307800F0FE00D7
:1022A00043E0210014D0BAF1000F06D0002169717B
:1022B000E970317801F0FA0131700121112CB8BFB9
:1022C00010242971EC84307840F0020030702FE047
:1022D00005F1900000F0FCFD00202871E884BAF1BF
:1022E000000F307800F0FD00307023D001206871BD
:1022F000307840F001003070F079C00744BF012011
:10230000E870002019E0210009D0112CB8BF10247A
:102310000120E870AC85307840F0100005E0002026
:10232000A885E870307800F0EF003070287908B1A7
:10233000022000E00020697909B140F001008DF829
:10234000010040F207369DF801202C8DE88CE978D9
:10235000DFF8E099012A18BF022A01D0130037D113
:102360000B0035D1022A03D1010003D0044602E05C
:10237000200000D110242146082002F036F9214621
:10238000092002F032F921460A2002F02EF92146F6
:102390000B2002F02AF901208DF80000287950B1B5
:1023A00000F094F8A97D00F087F806BF4FF4A07004
:1023B0002A184A4673E06879002878D0287B0B28D1
:1023C00059D1288D02F0C4FCDFF86C19087252E074
:1023D00095F804E0BEF1000FBA46844602D0BC4531
:1023E000B8BF82466879020002D0544538BFA24681
:1023F000AA8D0B0002D0524538BF9246BEF1000FA5
:1024000014BF9CFBFAFC47F6FE7CA5F832C0B5F879
:1024100032C0BCF1000F08BF4FF0100C002814BFF1
:1024200094FBFAF038462886A5F832C0288E0400BE
:1024300008BF1020288609B192FBFAF7EF85E88DD6
:10244000010008BF1020E8855146082002F0CDF8B1
:102450005146092002F0C9F851460A2002F0C5F899
:1024600051460B2002F0C1F80020A88601208DF80B
:102470000000687950B1697CDFF8BC28304602F072
:10248000ABFF6A46012140F205300EE0287910B119
:10249000A97D4A4603E04FF496702A18122130466F
:1024A00002F09AFF6A460121404602F095FF00F0D3
:1024B0000DF80120BDE8F687DFF80C04DFF80C24E6
:1024C0000068904270470000A8100020688F01212A
:1024D000C0B202F089BA012140F2053002F07CBF9F
:1024E000DFF8580810B590F84F00DFF898470A2831
:1024F00003DA608F0021FFF7EBFFE07988B100205D
:10250000E071208D410001EBC0000004010D04F1D9
:10251000B400BDE810403D29B4BF01213C3900F0B2
:10252000BBBCA08E401C80B247F6FC71884208BF3D
:102530000020A086218EA08E90FBF1F201FB1201FB
:10254000628E491E90FBF2F3894102FB1302E38D78
:10255000002A90FBF3F40CBF0222002203FB1400BC
:1025600000280CBF0820002042EAD1710843DFF8A0
:10257000D017CA784B7809780B281ED8DFE800F00E
:10258000211E1E061D1D1D1D1E0B101599422CBF60
:102590000120022012E091422CBF012010200DE00A
:1025A00091422CBF0220102008E0934234BF10203B
:1025B0000220814202D3012000E01020BDE810403B
:1025C00000E010BD2DE9F84F0121DFF87087DFF83A
:1025D000B4768DF80010012808F15C0940F2073A42
:1025E00064D002287DD101F0B5FB0446B648DFF87F
:1025F00044574460220E797D69180A70220C4A7093
:10260000220A8A70CC70BE7D0068B04988423FD1F2
:10261000142EC6F1140B06DA5946A8191DF0FEF85F
:102620000BEB0600B87508F1100699F8000099F850
:10263000011001EB0020B96C611A48BF4942000447
:10264000800C884221D2B87DA0F1040B5A46291D86
:1026500008F114001CF090FFBBF1110F05DBB87DF1
:1026600042461021404404F0CEF94246102108F1C0
:10267000140004F0C8F9B87D401E3070687870709E
:10268000A878B070E878F070BC643246B97D01E09B
:102690002A463146504602F09FFE012000F023F802
:1026A00099F80A0003281CDB822018E0387BDFF849
:1026B00088460B2803D1388D02F04AFB207222464F
:1026C000797C504602F088FE6A46FFF704FF00203E
:1026D00000F009F899F80A00032802DB832000F0D3
:1026E0005CFBBDE8F18F10B5DFF854160A5C0023DF
:1026F000CC5C9442BCBF641CCC545B1C042BF7D351
:1027000000220A5410BDDFF87C05017E417610E5F9
:102710002DE9F0470446DFF81C66DFF820A6DFF855
:102720006455DFF8A491FF2070708846B020B07027
:102730000620F0700AF15000017831714178717112
:10274000B271296C0A0CF2710A0A32726A6C511861
:10275000296481787172C078B0720B20687501F0BD
:10276000F9FAC9F80400030E697D72180F1D137081
:10277000D070030C5370030A937005E07A1A424438
:1027800012F8042CF2557F1C6218FFB2121D9742FA
:10279000F4DBD9F800104D4CA14208D1142FC7F139
:1027A000140804DA4146F0191DF038F81427AF7503
:1027B000781E3070D9F80000A0421BD1AC7D4FF4D8
:1027C000A0702246314628181CF0D6FE201F112882
:1027D00007DB28194FF4987352461021184404F06F
:1027E00012F94FF4A27052462818BDE8F0471021A4
:1027F00004F009B9BDE8F08730B58DB005466846EC
:1028000014211CF0F5FEDFF87C44E16D00291CBFAB
:10281000A07E00282ED0886A2066202205A81CF001
:10282000BBFE694605A800F0A1F89DF81620694690
:102830001020FFF76DFF3DB903F056FB48F2100181
:102840000220FFF7E3FC0EE0A17D1F4A1F4B126838
:102850009A4240F2073006BF4FF4A072A218DFF888
:10286000D42402F0B9FD0020A0764FF4E670A16EEA
:10287000FEF71EFE0DB030BDDFF80804817E11B9F1
:102880000421417655E4704710B5DFF8F8434FF462
:10289000C270204400F01CFB07206076E06CBDE8AD
:1028A0001040FDF7B3BEDFF8DC1300204877704717
:1028B00080B50120FFF738FCBDE8044044F62061F4
:1028C000DFF8800400F0E8BAF8070E400DA615DC2A
:1028D00080B50146FEF75DFD03F006FBBDE808404C
:1028E00000220021032003F0DBBA70B50446DFF8B4
:1028F0005804006888B001A901F054FA03A80088C0
:102900001C282BD31C2001F09EFB00900A20FFF70F
:1029100024F91620FFF7EEFBFF2000994871F820FC
:1029200000F01EF810200099087204A9204600F05B
:102930001DF805250026102004A9F6B2009A895D2D
:10294000EDB22A44761C6D1C401E1171F4D1DFF8E3
:10295000FC03FFF721F908B9FFF7D2FB08B070BDFF
:102960000099887100200099C8717047027B0A7035
:10297000C289120A4A70C2898A70027CCA70427C7B
:102980000A71827C4A71C27C8A71027DCA71427D61
:102990000A72827D4A72C27D8A72028B120ACA72E0
:1029A000028B0A73827E4A73C27E8A73007FC87369
:1029B00070470A7802704A7842708A788270CA78C2
:1029C000C2700A7902714A7942718A7982710B7AEE
:1029D000CA791B0443EA02624B7A42EA03228B7AE9
:1029E0001A438260CA7A02734B7B0A7B43EA022253
:1029F000C2818A7B0274CA7B42740A7C82744A7CDC
:102A0000C2748A7C0275CA7C42750A7D82754A7DD1
:102A1000C275CB7D8A7D43EA022202830A7E8276DA
:102A20004A7EC276897E0177704780B50A78027344
:102A30008B784A7843EA0222C281CA7802740A7902
:102A400042744A7982748A79C274CA7902750A7AA0
:102A500042754A7A82758A7AC2750B7BCA7A43EAD2
:102A6000022202834A7B82768A7BC276C97B017707
:102A70008449CA7D8270501CC2B202B90120C87557
:102A80006A46C87D8DF800000121802001F0E5FF35
:102A900001BD38B504462C2001F0D5FA050001D15E
:102AA000002032BD28211CF0B9FE05F120000021D4
:102AB0008160817020221E2141700321017001215B
:102AC0000171284621461CF057FD284632BD10B53D
:102AD0006C4B9C6DA0420CBF9A658A62906210BDDF
:102AE000200400202DE9F041664E0446B06D4FF001
:102AF00000080027002503E0B16501F0BBFAB06DC6
:102B0000B0B100F0C1F802BFC17DE27D91420CD1AD
:102B1000417C802914BF40297F1C002D816AEBD0A5
:102B2000A96201F0A7FAA86AEAE70546806AE7E722
:102B300027B9204601F09EFA01202EE004F1220779
:102B4000787801280FD1B87868B1707F48B9012032
:102B500070774FF4D470304400F09CF92046FFF7B2
:102B6000C4FE01203870B06D08B9B46515E0427C30
:102B700000F120014AB90A7894F820309A4204D230
:102B800022464146FFF7A3FF06E0804688680028FA
:102B9000EDD108BFC8F828400020BDE8F08170B52D
:102BA000384D0446A86D002601E00646806AD8B17B
:102BB00000F06AF802BFC17DE27D9142F5D1417C0F
:102BC00080290CD0002E816A04D1A96501F052FA47
:102BD000A86DECE7B16201F04DFAB06AE7E7204674
:102BE00001F048FA012070BDA86D08B9AC6570BD50
:102BF00022460021FFF76BFF002070BDF8B5214E83
:102C00000446B06D0025002701E00746806AB0B198
:102C100000F03AF802BFC17DE27D9142F5D1417CDE
:102C200040290CD0002F816A04D1B16501F022FA4D
:102C3000B06DECE7B96201F01DFAB86AE7E7B06D74
:102C400008B9B465F2BD417C802915D1227C94F885
:102C5000203000F12001002A0A780BD19A4201D2DB
:102C6000027C4AB1054688680028ECD108BFAC62F6
:102C70000020F2BD9A42F5D222462946FFF727FFEF
:102C8000F6E7000020050020A27D817D914270477B
:102C900070B50D46FFF7FDFE04001FBF84F82350FA
:102CA0002B4DA86DA0423ED0617C31B1202908D0C7
:102CB00040292FD0802931D008E02046FFF712FFAD
:102CC0002FE0E97E21B1204601F0D4F9002070BD4B
:102CD000002603E0A96501F0CDF9A86D88B1FFF7E2
:102CE000D3FF02BFC17DE27D914207D1002E816AF0
:102CF000F0D0B16201F0BEF9B06AEFE70646806A33
:102D0000ECE7A86D08B9AC650DE022460021FFF79D
:102D1000DEFE08E02046FFF742FF02E02046FFF714
:102D20006DFF0028D2D1204670BD00008011002028
:102D3000A30E002008110020C8100020540E00200F
:102D4000081200201007002048050000FC1D00208C
:102D500020050020DFF800F049C10110DFF800F085
:102D600055C1011030B50FF280011A4DD1E9002391
:102D700085B00446CDE900231748204300906946FA
:102D800002A804F0ACF9686018B12C60AA2000F029
:102D900004F800F023F805B030BD70B50D4D0446C1
:102DA000FFF7D8FF296868680022C9B204F055FA15
:102DB00008262006C20F29686868C9B204F04DFAD7
:102DC0006400761EF5D100F009F8BDE87040FFF709
:102DD000C5BF00009011002000008080296868684D
:102DE0000122C9B204F039BA00000000FF0000005F
:102DF000DFF800F085C10110DFF800F025C20110F6
:102E0000DFF800F0C1C20110DFF800F0E3BF0110ED
:102E1000DFF800F079B50110DFF800F0F5B8011027
:102E2000DFF800F0B5C10110DFF800F0A9C1011012
:102E300000B583B00821ADF8001001900521ADF870
:102E40000210684650490968884707BDF0B589B047
:102E500004460D4616461F460823242200216846D4
:102E6000FFF7C6FF0F984949096806906B464FF473
:102E70007A70B0FBF1F101FB07F0059001FB06F25F
:102E80000E98ADF8100029462046FFF7C1FF2046F6
:102E900009B0F0BDFFF7B8BF38B504460D4600F0E5
:102EA00014F910B12046FFF7A7FF00F013F800FB5C
:102EB00005F12046FFF7A4FF2046BDE83240FFF7AA
:102EC000A3BF80B500F001F900B10120C0B202BD7E
:102ED000FFF792BF2D4909684FF47A70B0FBF1F00B
:102EE000704710B504460021FFF796FF204610BD3D
:102EF0002DE9F04184B004460820ADF800000D46ED
:102F00000420ADF802000C201F4909680190164604
:102F100068468847A0B9029F97B11D48006880475E
:102F20008046BE6039462046FFF77AFF1949096896
:102F30004046884715B12846FDF768FB012003E0AD
:102F40003046FFF775FF002004B0BDE8F081F8B50A
:102F500004460F480F4E0068804705462046FDF79F
:102F600059FB60B92046FFF75FFF04463168A76848
:102F7000284688472046FFF75BFF3846F2BD316898
:102F8000284688470020F2BD8011002074B200005E
:102F9000781100207C110020DFF800F0F5C001104E
:102FA000DFF800F049BA0110DFF800F0D5C00110D9
:102FB000DFF800F095C00110DFF800F00DA8011057
:102FC000DFF800F0BDBE0110DFF800F02DBF0110EA
:102FD000DFF800F0E1B50110DFF800F021C10110C9
:102FE000DFF800F0D5C20110DFF800F0D9C20110FF
:102FF000DFF8DC00007D7047DFF8E8000168EFF3E0
:10300000118081F31188704738B5FFF7F5FFDFF8BD
:10301000D8500446A8680021FFF7CAFF6969081A5A
:10302000A969814238BF002084F3118832BD0000B5
:103030002DE9F041FFF7E0FFDFF8AC500446A86847
:103040000121FFF7B5FF0121A9830021E9836E6902
:1030500029682A68871B801A711A884204D20020C6
:10306000A88384F311882EE084F311884FF00008C0
:1030700007E04644A7EB080731460120FFF79CFF15
:1030800080464745F5D2FFF7B7FF0446E88B012895
:1030900004D131460020FFF78FFF8046A96918F15F
:1030A000010F08BF084604D0A8EB0700814238BFD3
:1030B00008468119FFF784FF012028840020A88397
:1030C0002E6084F31188BDE8F081808A704700008B
:1030D000A401002003480168EFF3118081F31188F7
:1030E0007047000070B200007801002038B5044637
:1030F0000D46FFF7EFFF658180F3118831BD102881
:103100000ED3A0F11002DFF81C10520901EB82016E
:103110001038012200F01F0002FA00F0C1F880020E
:103120007047000000E000E004F038B9DFF8A80ABA
:103130000168EFF3118081F311887047B0FA80F0D5
:10314000C0F11F00704780B5002301223421DFF851
:10315000E0091CF0C1FB00B10120C0B202BDDFF8E4
:10316000EC1A0A68002812BF42F001005008400023
:10317000086070477047FEE710B582B0042004F085
:10318000ADFB022818BF03280DD1032000901C239B
:103190004FF040520021DFF898091CF07AFBBDE89F
:1031A0001640042068E0DFF88C19DFF8A40A0968EB
:1031B0000C18DFF88419DFF8B80A0968B0FBF1F1E0
:1031C0002046FFF71DFE2046BDE81640FFF71CBE57
:1031D00080B5DFF8B8090078DFF8B409016889081C
:1031E000890041F00101016004F085FB04F00FFC4F
:1031F0000020DFF8A01908600220DFF89C19096898
:10320000C9688847DFF894090168490849000160E6
:10321000DFF8600A0068042000F00AF900F0D9BC69
:10322000DFF8301A405C70470022012904D10128E0
:1032300007D1DFF8A80903E0012802D1DFF85C0A12
:10324000026810467047DFF8080A0079704704F0FA
:1032500067BB000038B50124FFF768FF0546DFF8BB
:10326000F009C088012802D1FFF76DFF044685F3FD
:103270001188204632BD0000F8B50546FFF756FF1D
:1032800004462846FFF75AFFDFF85469875D284651
:10329000FFF754FF791E815504D1DFF8B4090168A6
:1032A000A943016084F31188F1BD00002DE9F041CC
:1032B0000546FFF73BFF0446DFF89809295C4A1EE4
:1032C0002A5445D1DFF89009DFF8AC8900EB850678
:1032D00010F825507788280618D5D8F80010096A04
:1032E00038468847D8F80010896A38468847D8F8A1
:1032F0000010096B38468847DFF880190120086004
:10330000DFF87C0900688007FAD514E0680606D566
:10331000DFF8F81951F82710002088470BE0D8F89B
:103320000010896938468847D8F80010496B38463C
:1033300088470228F8D105F03F003F2818BFFFF763
:10334000B5FF707800F03F003F2818BFFFF7AEFFD1
:1033500084F31188BDE8F08110B508B1140001D1E3
:10336000032010BD8160C26003610146DFF830298F
:10337000DFF89C0912681018FFF726FE002010BD28
:103380002DE9F0410446FFF7D1FE05462646DFF859
:10339000C408315C4A1C3254002942D1DFF8B878A5
:1033A00017F8260000F03F003F2807EB860818BFFB
:1033B000FFF7E6FF98F8010000F03F003F2818BF34
:1033C000FFF7DEFF17F82600B8F80280DFF8A868DC
:1033D000010613D53168C969404688473168496A92
:1033E000404688473168C96A4046884700F01BF963
:1033F000DFF88C0800688007FAD512E0400606D591
:10340000DFF8081951F828100120884709E03168D1
:103410004969404688473168496B404688470128DA
:10342000F9D185F311882046BDE8F04100F0F8BDE0
:1034300038B50446FFF77AFE0546DFF81408016840
:10344000214301602046FFF779FEDFF89417425CC4
:10345000521C425485F3118831BD00002DE9F04F14
:103460004FF000080024C146012883B0CA4618BFA7
:1034700002240DD1FFF75AFEDFF89478397901293B
:1034800006BF02213971012480F311880CB1062492
:10349000C0E0FFF781FD0090012000F0E4F8040097
:1034A00002D001203871B2E0FFF77EFD01900120CB
:1034B000DFF86418C1F8009004F010FA012804D174
:1034C0004FF00108002000F08BFDDFF8484821682C
:1034D000896800208847DFF89C07DFF87857006884
:1034E000687C08B14FF00109287C08B149F0020955
:1034F000E87B08B149F00409E87ADFF85C6718B1A5
:10350000A16AF08D096B8847A87A18B1A16A708DFD
:10351000096B884700F087F849F02000A16A8969A3
:1035200088470120FFF71BFE3878C00748BF4FF0DF
:10353000010A12D4DFF8FC07FCF7B8FD8346BBF1A3
:10354000040FF7D000F069F88008800008600321BC
:10355000A26CDFF8E00752689047002004F08CFA74
:10356000DFF810070068A06A806B8047BAF1000F8F
:103570000AD1A26CDFF8BC0752685946904700F0A8
:103580004CF840F0030008600120216889688847F2
:10359000DFF8A40700688006FAD5B8F1000F1CBF59
:1035A000012000F01DFDA16A496948468847A16ACB
:1035B000496B484688470128F9D1E87A18B1A16AD1
:1035C000F08DC96A8847A87A18B1A16A708DC96A56
:1035D000884700F028F80020FFF7C1FD032038716C
:1035E000042000F040F8DFF8301701200860DFF811
:1035F00084060068FCF766FD082000F034F80446F5
:10360000012038710198FFF7E3FC04F0CEFA00982E
:10361000FFF7C6FC2046BDE8FE8FDFF82007DFF885
:103620001C1700687047DFF85416012008607047C7
:1036300038B5FFF77BFDDFF8D8560446E888012847
:1036400003D104F0C1F90020E88084F3118831BD72
:1036500038B50446FFF76AFD05462046FFF7BCFC77
:1036600085F3118831BD38B500F02AF80025081817
:10367000FCF7D0FF40B9204600F008F820B1DFF891
:10368000C406006880470225284632BD70B500F0A8
:1036900017F80D182846FFF7A3FC0646B06820422D
:1036A00006D03169F26820469047C0B2012806D0A2
:1036B0003046FFF799FC0646AE42EFD1002070BDC0
:1036C000DFF8DC1509680446DFF84406704700009F
:1036D00030BF704770B5FCF7F1FCDFF874552E6809
:1036E00006F00C000C284BD0700727D4FFF78CFC99
:1036F000044600210120FFF797FDA0421ED2DFF80B
:103700002C0400684519DFF830040668DFF830063D
:103710000068B0FBF6F0211A2846FFF771FB284637
:10372000FFF772FB4FF47A70B0FBF6F20021012034
:10373000FFF794FE2846FFF75FFB23E030071FD416
:10374000DFF85804DFF83045F10601685ABF490830
:10375000490041F001010160DFF8E005016841F036
:10376000030101602020216889698847DFF804553A
:1037700028682068806B804701202860286801E065
:10378000FFF7A6FFFCF79EFCBDE8704004F038BAD6
:1037900010B50C18FCF792FC401E8041C00FDFF8FA
:1037A000BC150A68002AFCD0246801220A6008B10E
:1037B000FCF788FC204610BD80B50420FFF738FEDA
:1037C0000820FFF735FE0E20FFF7DAFDDFF8780559
:1037D000DFF878150068C0F3815003280CBF012082
:1037E00000200880DFF8680502680AB1012002BDE8
:1037F000DFF8743540221A600122C261002048605F
:1038000002BD10B5DFF89013096882B00968202066
:103810008847DFF84C450F202060072341F61D50F4
:1038200060604FF4C0720220009000F0C7F8DFF82B
:1038300034050121016001688907FCD5012121615E
:10384000DFF808452188012907D100210161022004
:10385000202100F08FF8012004E00121002000F079
:1038600089F80220606013BD2DE9F041DFF8FC0407
:10387000DFF8D84482B0016842688A43426001613F
:103880006068002804BFBDE8F341FFF7BABF012814
:10389000DFF8DC141AD10220606008684BF2F521D1
:1038A00048436188000A11B10021618006E0DFF819
:1038B000C4140968090210EB11204008DFF8B8149D
:1038C0000860000C4860012088600CE002280FD1DD
:1038D0000868B0F5C06F02D10020606045E00321A8
:1038E000616000F06FF801210020BDE8FC4141E07B
:1038F00003283DD1002060600868A0F5C065A0687D
:1039000000F0B2F80646284600F0AEF886422CDAFF
:10391000A669284600F0ACF88019A061E5686069E6
:10392000834E85420ED0A769A7F1100000F09CF8E5
:1039300080462069103800F097F8804502DABFB25F
:1039400000970BE0ADB2009508234FF47F42302181
:1039500030461BF09EFF206980B2009012234FF486
:10396000F802042130461BF094FFBDE8F3418AE0E1
:10397000BDE8F38170B50D46DFF8004482B0032145
:1039800021600021DFF8F863316031688907FCD4D9
:1039900080B200900523602200F010F80120306012
:1039A00030688007FCD5A561002020600821DFF881
:1039B000B803C16001600120206073BD00215C4834
:1039C0001BF067BF70B50646594C82B030212046C7
:1039D000FFF7DEFEDFF87453C0F30720E860042130
:1039E0002046FFF7D5FEC0F384402861A6F5C060ED
:1039F0002E69A86000F03CF88019A861A969E86800
:103A0000022909DA401E6FF03F039842B8BF1846FA
:103A100010310BD5002109E01E2908DB401C40288D
:103A2000A8BF3F2010392029A8BF1F21A9616861C4
:103A3000082380B200904FF47F42302100F011F84B
:103A40000120009011234FF4003200F009F8A8691A
:103A500080B2009012234FF4F80200F001F873BD19
:103A6000042120461BF015BF002848BF4042704784
:103A700000284CBF6FF00101022101EB400003213F
:103A800090FBF1F0704780B5DFF8D80200210160AB
:103A900001688907FCD40021016041600120DFF842
:103AA000B01208600E20FFF701FC0820FFF7E4FBCE
:103AB000BDE802400420FFF7DFBB00004648016874
:103AC000EFF3118081F311887047000080B5FFF794
:103AD000F5FFDFF8B01209680091009ADFF8A8122C
:103AE0004B680968D21A8918009180F311880098F0
:103AF00002BD000010B50446FFF7E0FFDFF88422A6
:103B0000DFF8841212684A600C6080F3118810BDDF
:103B100031480168EFF3118081F311887047DFF8B5
:103B20006C02016841F080010160704754B20000EE
:103B300000A00C4058B2000074B2000010B504465A
:103B40000020D4E90A2347F6906104F09FF8012988
:103B500028BF4FF0FF3010BD10B50C4604F00EF931
:103B6000011D201AB0F1004F05D8081BB0F1004F1D
:103B700038BF8C4200D20C46DFF814221268526A19
:103B80002146BDE81040012010470000611F0020C1
:103B90000440034040100940A00100108C2108405F
:103BA0002DE9F04180460A46D8E90A01D8E90C45DA
:103BB000A0FB026701FB0277A6196F41340C0022BB
:103BC00044EA07414046FFF7C7FFC8E90E67BDE872
:103BD000F0814FF0FF3002BD70B2000064B200000F
:103BE000F804002070B50646FFF792FF0446FFF781
:103BF00096FFDFF8A451A968496801208847E96A5F
:103C0000096A142088473069AA68526AB0F5802F83
:103C100034BF0421010C012090472A681268232137
:103C200000209047A968C96901208847DFF85C0136
:103C3000016821F4E02141F480310160016841F024
:103C40000101016084F3118870BD00000C20084060
:103C5000E40D0020F81E0020F8FD0100DFF824012B
:103C60000368406800220021101859417047000085
:103C7000A08601002C200940B8010010282008600F
:103C80002820084010B500F00DF84468496801206C
:103C900088476069A169BDE81040084768B2000024
:103CA0005CB20000DFF8E810DFF8E8000968704750
:103CB000F8B504460D46FFF7D1FFD4E90A6732464E
:103CC0003B4603F0E3FF3DB1A6FB002306FB0133B7
:103CD00007FB0033C4E90C23F2BD38B5DFF8AC4074
:103CE0002068400840002060FFF719FF0120E062D3
:103CF000DFF8A850E06A2968496801208847696AA6
:103D0000096A14208847E06A31BD00008411002050
:103D1000E40D0020900100100C40094080B500F037
:103D200004F8000C40EA014002BDDFF874000068AE
:103D300094E700000040034014100940242208408A
:103D40006CB2000060B20000B43F0050441100208B
:103D500004800C4000F098B900F098B900800C4045
:103D60000C400C4034600C402C500C4028500C404F
:103D700008400C40102009403C600C4000400C40C2
:103D800038600C4008200940001200200020094043
:103D90008C010010E4010020840100108C0100104F
:103DA000EC01002010B9DFF81400006800F002B840
:103DB000FEE770470268526910470000480500009E
:103DC000DFF800F019C20110DFF800F00DC3011098
:103DD000DFF800F081C60110DFF800F095B70110A0
:103DE000DFF800F08DC20110DFF800F03DC20110D5
:103DF000DFF800F009C30110DFF800F045C0011042
:103E0000DFF800F0D1C70110DFF800F067BE011045
:103E1000DFF800F021B30110DFF800F041C8011015
:103E2000DFF800F089C40110DFF800F001C80110CC
:103E3000DFF800F011C80110DFF800F021C8011010
:103E40000C2811D0192814D01D2817D020281AD0DA
:103E500021281DD0252820D02B2823D02C2826D05F
:103E60002D2829D000207047DFF82C020068006858
:103E70007047DFF82402006840687047DFF81802D6
:103E8000006880687047DFF810020068C0687047FB
:103E9000DFF80402006800697047DFF8FC01006881
:103EA00040697047DFF8F0010068C0697047DFF8CB
:103EB000E8010068006A7047DFF8DC010068406ACA
:103EC000704700B58BB00A216846FFF77DFF0BB045
:103ED00000BD00B581B0FFF727F9DFF8C001DFF8BA
:103EE000C0110068884218BF00F034F8DFF8B40150
:103EF000B0F5B26F03D001B05DF804EB2BE001B078
:103F000000BD00B581B00FF22100FFF761FFFFF7A0
:103F100063FFFFF765FFFFF767FF01B05DF804EB94
:103F2000FFF766BF0000000000B581B0FFF73CF866
:103F3000FFF732F801B05DF804EB0320FFF75CBF38
:103F400010B504460320FFF757FF2046BDE8104098
:103F5000FFF756BFFEE7FEE700B581B0FFF754FF5D
:103F6000DFF84401C06801B05DF804EBFFF750BF13
:103F7000DFF83811DFF8380188617047DFF8341155
:103F800001280CBF40F2FF7000200860002070473D
:103F900030B581B0FEF7DEFEDFF81C510446E8883C
:103FA00020B103F011FD60B10020E880FFF704FCB0
:103FB00005461020FFF757FB012D0BD1FFF721FC21
:103FC00008E0052105F13000FEF71AFF05F1300089
:103FD000FEF71AFF204601B0BDE83040FFF7F0BE03
:103FE00010B5012818D103F079FC012816D003F090
:103FF000D3FCDFF8C4400120E08004F13000FEF77C
:10400000FBFE052104F13000FEF7FAFE04F130005A
:10401000FEF7FAFE002010BD03F0F9FC002010BDF1
:1040200010B501240E2805D1012003F057FC01280A
:1040300005D003E0DFF88410085C00B900242046B6
:1040400010BD0020704710B58CB004466846FFF7DD
:10405000E3FE14B900200CB010BD08346B460022FA
:1040600021460020FFF7DCFE10B1006044600830FC
:104070000CB010BD38B150F8081D42688018421AC3
:104080000020FFF7D1BE7047FFF720BDFFF732BD1C
:10409000FFF7CEBEFFF7D0BEF001002098CA011096
:1040A000704728209005000078010020440100207E
:1040B0000002000000000460E40D0020F81E002053
:1040C000E0B50821ADF800100190022100F00FF8D2
:1040D00008B100200EBD02980EBD00B583B00821C6
:1040E000ADF800100190032100F001F807BDADF814
:1040F00002106846DFF84813096808471FB5ADF895
:104100000610ADF804000824DFF834138DF80820F9
:104110000393ADF80040ADF802406846096888474F
:1041200004B010BD30B585B0144608220291ADF838
:1041300000201922DFF8081309680190ADF8022069
:104140001D466846884714B1BDF80C10218015B192
:10415000BDF80E102980089A0499116005B030BD91
:1041600000B583B00820ADF800001A2000F014F864
:1041700010B9BDF804000EBDFF200EBDE0B5ADF8CE
:104180000000ADF80610002000F006F810B99DF808
:1041900008000EBDFF200EBDDFF8A4120968ADF8BF
:1041A00002006846084750B110F1040F01D1042005
:1041B000704710F1030F01D10220704701207047B2
:1041C0008123037042EAC111002341F47C41C37092
:1041D000818070478223037081800023C3708271C5
:1041E00070473EB504460820ADF800000D4620207B
:1041F000ADF802001020DFF848120968ADF804009D
:104200006846884720B9029810B16FF004003EBD9F
:1042100000950023002221464FF0FF30FFF782FF78
:104220003EBD10B582B01446CA78012A03D18A88EF
:10423000DFF850351A8000F010F858B90090694640
:104240002046FFF7CEFF28B900984478FFF745FFD6
:10425000204616BDFFF7A7FF16BD0B460222102110
:104260004CE738B51C461546FFF7F7FFC0B900907C
:1042700069462846FFF7B5FF90B9009845782800B1
:1042800002BF0098C079A04205D1009881680498C7
:1042900022461BF071F90098FFF71FFF284632BD38
:1042A000FFF781FF32BDF8B500F078FA00F0D4F9DD
:1042B00007000DD032462946FFF78CFF00F059F970
:1042C0003872FFF74DFF3B4601B0BDE8F0403AE0E1
:1042D000F1BD10220121E6E738B500F014FA05001F
:1042E00004D0042200F032F8AC6026E031BD3C81FD
:1042F000BD72FE6034E72DE9F04100F06FF9070070
:104300000FD0142200F022F83C72FD603E8287F844
:104310001280FFF725FF3946BDE8F041DFF8682439
:104320007FE72FE038B500F030F8050001D0152206
:1043300000E031BD00F00AF82C81FFF711FF2B4699
:1043400001B0BDE8304002221021D7E6012141E74B
:10435000002204215FE02DE9F04100F03FF9070061
:1043600010D002220421FFF735FFBC60BD81BE736F
:10437000C7F81080FFF7F4FE3946BDE8F041DFF8DA
:104380000C244EE70420BDE8F08104460A2097E69D
:10439000002203213FE000B583B00FF249030193EF
:1043A00006230093032300F04DF80EBD10788028FB
:1043B00002BF508840F27F61884208D190889842BD
:1043C00002BF91790098814201D1012070470020FD
:1043D000704710B582B00624FFE70094FFF7E6FFB0
:1043E00016BD00000323F4E71078802802BF508830
:1043F00040F27F6188420CD19088032818BF0428BE
:1044000007D1907901001CBF1028112801D101208B
:10441000704700207047F8B500F08FFA07000CD005
:1044200032462946FFF7D6FEBC60FFF799FE3946B3
:10443000BDE8F840DFF85823F3E60420F2BD0000A1
:10444000801100202DE9F04100F052F807000AD059
:10445000069A4146FFF7BEFE3C817D81FFF749FF8A
:10446000079A00F091BA8DE742460321A8E670B59D
:1044700082B000F093F9FFF773FE1B210091C3B2E5
:1044800032462946204600F04BF976BD10B582B081
:104490001D24009400F044F916BD0A4601460FF2AF
:1044A0006143012017E00A4601460FF259430B20F1
:1044B00011E00A4601460FF251430D200BE0014680
:1044C0000FF249430022132005E001460FF2414359
:1044D00000221920FFE72DE9F04100F009F807005C
:1044E00005D022460221FFF76BFE00F048BA49E7EB
:1044F00004460D46164698461020FFF7E1BD2DE90B
:10450000F04180460D4616461F461820FFF7D8FD9D
:10451000040014D0002200F05EF800F079FA207256
:104520006572A672E7600698206107986061FFF7E0
:1045300017FE2146BDE8F0410FF2D92271E621E7CE
:1045400000212FE1F8B500F0E5F807000FD00A22AE
:1045500000F041F800F00DF838727D813E73FFF7EE
:10456000FFFD3946BDE8F8400FF2AD2259E60420C0
:10457000F2BD21465020FFF701BE0FF2A123042215
:10458000DEE70FF29D23052223E00FF29923062296
:1045900019E12DE9F04180460D4616461F461020D0
:1045A000FFF78EFD040010D0072200F014F800F091
:1045B0002FFA20726572A672E760FFF7D1FD2146DF
:1045C000BDE8F0410FF261222BE6DBE60FF25D233E
:1045D00008220021F7E00421FFF7F2BD04460D4652
:1045E000164698461420FFF76BBD70B500F014F81E
:1045F00006000BD03022FFF7EEFF00F009F831463D
:10460000BDE870400FF22922FFF70BBE042070BDF9
:1046100034817581FFF7A4BD04460D460C20FFF7D9
:104620004FBD30B583B004460020ADF8040000F063
:1046300013F805000DD03122FFF7CDFF2C81FFF7D5
:104640008FFD01A9009102230FF2E9122946FFF71D
:1046500008FEBDF804003EBD0A20FFF731BD1CB5C1
:1046600000208DF8040000F012F804000CD0122293
:10467000FFF76CFEFFF774FD01A9009101230FF213
:10468000B9122146FFF7EDFD9DF8040016BD082084
:10469000FFF716BDF8B500F012F807000DD036226E
:1046A000FFF799FF3C817D81FFF723FE3946BDE886
:1046B000F8400FF29512FFF7B4BD0420F2BD044696
:1046C0000D4616461020FFF7FBBCF8B500F066F863
:1046D0001420FFF7F5FC070010D0122200F017F8A5
:1046E0003C81FD60314600F094F900F009F839464C
:1046F000BDE8F8400FF28512FFF793BD0420F2BD2C
:104700003874FFF72DBD04460C20FFF7D9BC0121FA
:10471000FFF756BD04460D4616460E20FFF7D0BCE7
:104720002DE9F041FFF75AFF070011D0069AFFF775
:104730009CFE3C813E74FD6000F06AF97874FFF7DE
:104740000FFD3946BDE8F0410FF26512FFF769BD74
:10475000FFF718BE38B514460E4A15682A0006D071
:10476000009302460B4621460120A84732BD002097
:1047700032BD094A13681A0003D00A4601460120D7
:104780001847704714120020154900001B4900000B
:10479000E9430000481F00204C1F002004460D463E
:1047A000164670472DE9F041FFF7A2FE070004D03E
:1047B00000F005F8BC60FD60E3E0FFF7E3BD3246C2
:1047C0000421FFF7FDBC2DE9F041FFF791FE070042
:1047D00006D0FFF7F4FFFFF7CCFE3872FD60D0E0A3
:1047E000FFF7D0BD1078802802BF508840F27F616B
:1047F00088420CD190884FF680710140B1F57E4F10
:1048000004BF00F07F00984201D1012070470020D2
:10481000704700000023E5E70A23E3E70423E1E70C
:104820000523DFE70623DDE70723DBE70823D9E7D6
:104830003023D7E73123D5E780B512230093012336
:10484000FFF7B4FD02BD00003623CBE710788028C7
:1048500002BF508840F27F6188420DD190884FF6A8
:10486000807101404FF68042914204BF00F07F000A
:10487000984201D101207047002070471223E5E7DC
:104880001078802802BF508840F27F6188420DD1A5
:1048900090884FF6807101404FF68052914204BFDC
:1048A00000F07F00984201D101207047002070473E
:1048B00070B5FFF773FF1D23FFF7E2FF30B93246F3
:1048C00029462046BDE870401B23D9E7012070BD72
:1048D0001078802802BF508840F27F6188420CD156
:1048E00090884FF680710140B1F57D4F04BF00F014
:1048F0007F00984201D101207047002070470000DE
:104900000123E5E70B23E3E70D23E1E71323DFE7CB
:104910001923DDE780B5142390E780B502230093C7
:1049200004238DE700F00FF802BD80B50FF281017E
:1049300000F04DF841F20540F4E704460D461646F6
:104940000C20FFF7BDBB2DE9F041FFF727FF98468C
:104950000E20FFF7B5FB070009D000F00AF83D81F3
:104960007E81A7F80C80FFF7FBFB069A0CE0FFF7AF
:1049700009BD812038700120F870BC8070473D81EE
:10498000FE60FFF7EDFB42463946BDE8F041FFF718
:1049900048BC1078802802BF508840F27F6188426E
:1049A00004BF9088984201D10120704700207047D1
:1049B00041F20543EDE7000080B50FF25D0100F024
:1049C00006F84FF60140FFE7FFF7BDFF02BD00917B
:1049D000002301460022704780B50FF24501FFF722
:1049E000F6FF4FF61340EFE710B50C46014682B0D4
:1049F00000F00FF80FF2310100910023C1B22246FE
:104A00004FF61740FFF79FFF16BD3C817D81BE81A9
:104A100041465020FFF7B2BB4FF60143B9E7000013
:104A20004FF61343B5E700004FF61743B1E7000018
:104A3000F8B5FFF744FE07000DD0012200F022F880
:104A40003C727D72FFF755FC3946BDE8F8400FF225
:104A50006D02FFF7E6BB0420F2BDF8B5FFF72FFEAD
:104A600007000DD0022200F00DF83C727D72FFF7B6
:104A700040FC3946BDE8F8400FF24502FFF7D1BBD4
:104A80000420F2BD0521FFF79BBB1078802802BFF0
:104A9000508840F27F6188420DD190884FF6807136
:104AA00001404FF68062914204BF00F07F009842BF
:104AB00001D1012070470020704700000123E4E786
:104AC0000223E2E70FF204237D4810221321FFF7AF
:104AD00042BC00002DE9F0430024082885B00E46B2
:104AE0009146784F00F28A80DFE800F0050C182428
:104AF000303C48537D00082E76D13246494607F1B6
:104B0000080076E0152E77DA152107F110001AF06B
:104B10006FFD3246494607F110006AE0152E6BDA48
:104B2000152107F128001AF063FD3246494607F1C6
:104B300028005EE0152E5FDA152107F140001AF01B
:104B400057FD3246494607F1400052E0152E53DA30
:104B5000152107F158001AF04BFD3246494607F17E
:104B6000580046E0152E47DA152107F170001AF0BB
:104B70003FFD3246494607F170003AE0152E3BDA18
:104B80008837152138461AF033FD324649463846F3
:104B90002FE00820ADF808000420ADF80A000396C5
:104BA00002A8DFF82481D8F800108847C8B9049D0E
:104BB000BDB1786807F1A00188420AD00821ADF89C
:104BC000001001900521ADF802106846D8F80010D9
:104BD00088473246494628461AF0CEFC7D603E7032
:104BE0000DE013240BE0072E06D13246494607F1AB
:104BF000B0001AF0C1FC02E0182400E002242046B4
:104C000005B0BDE8F08300002DE9FE4990464A68F2
:104C10000A9C107852780B9D00EB02201F4600265C
:104C200080B242F62322274B801A03EB040C07D0F4
:104C3000401E052810D9801F1ED0263829D03AE002
:104C4000092C28D2C4F10800854228BFC4F1080508
:104C50003D800CF1080129E0D1F80CB0584603F072
:104C60009FF880B2A04216DB011B8D42A8BF051B36
:104C70003D800BEB040119E018780146A1420AD3EC
:104C8000001B8542A8BF0D1B3D8058683A8801195A
:104C90000DE0082C01D307260FE0C4F10700854280
:104CA00028BFC4F107053D800CF1B0013A884046A9
:104CB0001AF062FC01E03E800A263046BDE8FE891B
:104CC0001C0A00203C0C002080110020094C000030
:104CD0000000000000000000E0B50820ADF8000072
:104CE0000420ADF802000E490E48007809688000E3
:104CF00001906846884700280B4914BF002002989D
:104D0000486701001CBF4FF6FF701AF075FC0FF2E8
:104D10002003064810221921FFF71DFB0EBD0000DD
:104D200080110020DC080020201900204C07002002
:104D3000534E0000194F0000000000000FF2500316
:104D4000024810220621FFF706BB0000E0060E40D5
:104D5000C0F30E00292801DA2D207047A12801DABE
:104D60004D207047B0F5F07F01DC6D207047B0F545
:104D7000487F01DC8D207047B0F5FA6F01DCAD2073
:104D80007047B0F57A6F01DCCD207047ED20704799
:104D9000534E0000194F0000000000000FF21003F6
:104DA000024810220F21FFF7D6BA000050050E402E
:104DB000534E0000194F0000000000002DE9FE4F87
:104DC00081468A46164600F026FADFF80814DFF816
:104DD00008B40968DFF8048421F81600471CBFB244
:104DE0004C460025DFF8F8630DE0DFF8F81301EB1F
:104DF000870141F8500C01001CBF4FF6FF701AF0FC
:104E0000FBFB10346D1C5146E8B2884219D2606831
:104E1000404504BF7F1CBFB25845F2D10821ADF810
:104E2000001004213078ADF802108000DFF8B813CC
:104E30000968019068468847002814BF002002983E
:104E4000D3E70FF2184310224846FFF784FABDE873
:104E5000FE8F2DE9F041DFF8948382B0044698F884
:104E600066000D4616461F460328A4BFEA20FDF73C
:104E700094FF287AC00648BF08204BD448F6B801F2
:104E8000DB48FEF709F8DB48DB4904800A98087024
:104E9000D249686888421CBF0FF2CC3188420FD1DA
:104EA00002203880E868017831704178717098F894
:104EB00066000328A4BF4420FDF76FFF002029E00F
:104EC0002520FFF7C0F8009018B90FF28030FBF7EB
:104ED0008DFB0099432000F062F920200099488062
:104EE000284600F09DF9009A010A1174009948744F
:104EF00098F866000328A4BF4520FDF74EFFBF4881
:104F0000006800226946FBF775FB10B90098FFF7AF
:104F1000B1F81620BDE8F6812DE9F14FDFF8CC821B
:104F200084B098F8660000260F4615469946032877
:104F3000A4BFC920FDF731FF387A800648BF08209A
:104F400000F1238148F6B801A948DFF8B0A20FF2BA
:104F5000FC2BFDF7A1FFBDF81000A6490E9C0880B0
:104F6000A5499DF83C0008703878022840F09080F0
:104F700078680178407801EB002080B242F6021197
:104F8000884240F0F68057F8140C0078C1063AD5F4
:104F9000012000F009F9064698F86600032809DBAD
:104FA00000F0F6F82878FDF7F8FE6878FDF7F5FED2
:104FB00000F0EEF80820FFF746F8009010B95846C8
:104FC000FBF714FB0099622000F0E9F80320009938
:104FD00000F0E1F8009A010A11710022009948716D
:104FE0000099287888716946DAF80000FBF702FB1F
:104FF000002847D198F866000328A4BFCE20FDF70B
:10500000CCFE00983CE0800640D5022000F0CCF8B1
:10501000064698F86600032809DB00F0B9F82878FE
:10502000FDF7BBFE6878FDF7B8FE00F0B1F8082088
:10503000FFF709F8029010B95846FBF7D7FA029922
:10504000622048700120029908700320029900F044
:10505000A2F8029A010A117100220299487102997C
:105060002878887102A9DAF80000FBF7C3FA48B97A
:1050700098F866000328A4BFCE20FDF78EFE0298A4
:10508000FEF7F8FF284600F0BDF872E0152670E044
:105090009DF83C0012281AD0162804D018280FD0EA
:1050A00052281BD065E098F866000328A4BFCA20E8
:1050B000FDF773FE00F081F8284600F0A3F857E0F2
:1050C00098F866000328A4BFCB20FDF766FE98F889
:1050D00066000328A4BFCC20FDF75FFE98F86600A9
:1050E0000328A4BFCD20FDF758FE00F066F8272066
:1050F000FEF7A9FF009010B95846FBF777FA009920
:10510000442000F04CF8222000994880384600F0F6
:1051100087F8009A010A11740099487409EB040099
:105120000099001281F8240009EB0400009981F82D
:10513000250098F866000328A4BFAA20FDF72DFEDD
:10514000DAF8000000226946FBF754FA48B998F8EB
:1051500066000328A4BFCE20FDF71FFE0098FEF7CF
:1051600089FF284600F04EF89DF83C00522800D0F8
:10517000162698F86600032806DB00F009F830468A
:10518000FDF70BFE00F004F8304605B0BDE8F08FE7
:10519000CF20FDF702BE4880A7F1200040E0487014
:1051A0000120009908707047019000944B46BDF8AB
:1051B00010002A4639461AF09CBA002007E002196E
:1051C0000F49C2F3080211442A5C0A71401C484589
:1051D000F5DB7047401F002050B20000D0FE0100F8
:1051E000DC0800202019002080110020540E00202F
:1051F000F8050020580500202A050020601E002028
:105200005004002000B587B0122101906846FFF7D6
:10521000B0FA07B000BD81B00FF24C0106E000000B
:1052200081B01030004901E0D0FE010000E01030F4
:1052300042688A42FBD1C0680178407801EB0020C7
:10524000ADF80000BDF8000001B070476D616C6CF6
:105250006F63206661696C6564000000534E000056
:10526000194F000000000000D1A0835000AAD3878E
:10527000174859A75DE904E6042803DA52490844AF
:10528000007D704700207047000018B14E498866C5
:1052900000207047112070470000000070B5002505
:1052A0000446042C84B0104638DA474E3219127D79
:1052B0008A4233D30A4601461420604330441830F2
:1052C0001AF05AF9B07C0121A140084227D0307C65
:1052D0000FF28D01032C22D8DFE804F00209101729
:1052E00000F020F8F06E002206F1180113E000F043
:1052F00019F8306F002206F12C010CE000F012F8D2
:10530000706F002206F1400105E000F00BF8B06F6D
:10531000002206F154011AF089F900E01825284608
:1053200004B070BD02910090FF2101913346704797
:1053300030B500220428A8BF02220FDA0023224C35
:1053400007E0142505FB003525442D7ECD545B1C5C
:10535000DBB204F114052D5CAB42F2DB104630BD2C
:1053600070B50C461546207AC0061E4601D50820A9
:1053700070BD049808B10B2070BD2078022811D1AF
:1053800060680178407801EB002080B200F00EF8F0
:105390000D490844027D32802846E1681AF0ECF895
:1053A000002070BD00203080012070BD0021074A20
:1053B00032F81130834201D108467047491CC9B206
:1053C0000429F5DB04207047F40C0020A011002014
:1053D00002000000A80000002DE9F04EDFF8305B6D
:1053E0009246002440F2013B0E46AA786B7995F86C
:1053F00004C0B5F81090B0EB0B0740F67B4138D0F5
:105400007F1E3DD07F1E43D0BF1E47D07F1E00F0C1
:1054100081807F1E00F084807F1E00F090807F1EC0
:1054200000F0A1807F1E00F0A6807F1E00F0AB8000
:105430007F1E00F0B2807F1E00F0B780BF1E00F01C
:10544000BC807F1E00F0C7807F1E00F0CC807F1ED6
:1054500000F0D1807F1E00F0D6807F1E00F0DB8040
:105460007F1F00F0E380BF1E30D0E53F00F0F280E8
:10547000F8E0102E05D11022514605F1C80089E050
:10548000102E40F0ED801022514605F1D80081E049
:10549000042E69D1DAF80000E862EEE0012E63D153
:1054A000012B35D09AF800002871BCF1000F06D00E
:1054B0000028F2D1022A19D0052AEED116E00028E0
:1054C000EBD0012A20D0042A1CD11DE0012E4BD1A3
:1054D000BCF1010F1CD09AF8000068715BB1002884
:1054E00008D1032A1CBF072A052A03D15FFA89F0D5
:1054F000FFF76CF8C1E00028FCD0012A1CBF042A89
:10550000062A01D0052A02D1012000F0F3FCB4E004
:105510001224B2E0022E27D1BAF80000A882ACE033
:10552000202E25DA05F1F0041F2120461AF076F925
:1055300000F0AAF8AE712346324601210EE0202E7B
:1055400016DA4FF488702C181F2120461AF066F9DD
:1055500000F09AF82E722346324600215FFA89F055
:10556000FFF717F886E0012E7AD19AF80000052897
:1055700076DA687281E0012E72D19AF80000042870
:105580006EDAA87279E0062E6AD14FF4987006227E
:105590005146284419F0F0FF6FE0012E60D19AF8CF
:1055A000000008285CDAE87267E0012E58D19AF80A
:1055B0000000042854DA28735FE0022E50D1BAF8B4
:1055C00000102983080058D0062A56D105F15C0046
:1055D000FDF762FC51E0012E42D19AF8000002284A
:1055E0003EDA687349E000F04BF839D1821F8A42F5
:1055F00036D2688341E000F043F831D1821F8A42FD
:105600002ED2A88339E000F03BF829D1B0F5FA7F1B
:1056100026DAE88331E000F033F821D1A0F10A0165
:1056200041F2F77291421BD2288426E0012E04BF7A
:105630009AF80000012813D105F1A400FDF741FC00
:1056400030B900F0D7FB05F18000FDF741FC14E014
:10565000162412E0012E03D19AF80000E8710CE044
:1056600018240AE0272807DA022E05D1BAF800101C
:10567000FEF7BBFF044600E002242046BDE8F08EA2
:10568000BAF80000022E704732465146204619F003
:1056900073BF38B500244FF440730D46C21ADFF8CB
:1056A000701834D0521E34D0521E35D0521E36D00F
:1056B000521E37D0521E38D0521E3AD0521E3AD007
:1056C000521E3BD0521E3DD0521E3DD0521E3DD0E8
:1056D000521E3FD0521E3FD0521E3FD0521E3FD0CE
:1056E000521E3FD0521E3FD0521E3FD0521E3FD0BE
:1056F000521E3FD0521E3FD0521E45D0521E45D0A2
:10570000521E45D0921E45D0521E10D045E0C8789A
:1057100041E01022C83133E01022D83130E0C86AAD
:10572000286041E00622E8312AE0087933E0487930
:1057300031E0888A35E08A79F03121E00A7A4FF445
:1057400088701CE0487A26E0887A24E006224FF42C
:10575000987014E0C87A1EE0087B1CE0C88A20E03C
:10576000088B1EE0487B1CE0488B1AE0888B18E011
:10577000C88B16E0088C14E006224FF49C7001449C
:10578000284619F0F9FE0FE0488C0AE0888C08E002
:10579000C88C06E08878287006E0272803DAFEF730
:1057A00040FF288000E00224204632BD1CB5DFF80F
:1057B0006047A17889B900B1206304F12C00019001
:1057C00004F1D800009004F1C803208AE279E1785E
:1057D000C0B2FEF794FE002016BD112016BDDFF802
:1057E00030078178062905D1C18A008A1322C0B208
:1057F000FEF7A8BE1220704710B590B004460823EB
:105800003C2200216846FAF7F9FEDFF80807069403
:1058100000F15001079100234FF4DC7108916A46B2
:105820000FF2E501FAF7EEFE10B010BD70B584B0CE
:1058300000F06DF90120DFF8E016DFF8D4460968C2
:105840000FF2C565ADF80200002668468847BDF82E
:10585000040020820298A0620020A0704FF6FF7022
:10586000E082FEF7FCFE2070002301200190002260
:1058700000200090294604F13800FDF7E7FA0220E5
:1058800000F03AF804F15C00FDF7E0FA042000F0C3
:1058900033F804F18000FDF7D9FA082000F02CF865
:1058A00004F1A400FDF7D2FA208AC0B2FEF711FD80
:1058B0000620E07004F1C80200200021002300252A
:1058C0002BC204F1D805103A4BC5E0626072A07299
:1058D00021730720E07210210220FFF7A9F8103D84
:1058E0002A4610210320FFF7A3F804F12C0204211B
:1058F0000420FFF79DF87FBD019000230020009059
:1059000000222946704700002DE9FE43FFF78EFF75
:10591000DFF8FC75DFF80446DFF80486DFF8F86589
:1059200007F1A40900F0F3F80A20ADF802004FF0E7
:10593000FF300190684631688847002866D100F042
:10594000E6F80920ADF80200684631688847BDF8DE
:105950000610029D002859D1BDF80400102804BF8C
:10596000388A814248D128884FF6FF71884209D190
:105970006888400440D507F12C0204210420FFF779
:105980006CF839E0287891281FD0A22802D0D028BE
:1059900017D031E0687913282ED12889012804BF57
:1059A000B87B022805D14846FDF792FAFFF717FFAA
:1059B00022E00520FEF735FE01464846FDF76CFA69
:1059C0001AE0284600F0A8F816E068780E2802BF12
:1059D000A88841F20541884201BFA86890F90300F8
:1059E000B978062908D17F281CBF396B002903D05C
:1059F00049680A0018BF884745B100F088F80320BD
:105A0000ADF802000195684631688847788AC10779
:105A100048D54FF6FE71084078823979787901438C
:105A200040D018B103208DF800000DE0787A8DF891
:105A300000000622B87A8DF801004FF498703918EA
:105A40000DF1020019F098FDF87A8DF8080069460A
:105A5000387B8DF80900388AC0B2FEF796FD010048
:105A600018BF112878701DD098F86600022810DB46
:105A70009820FDF792F97878000900F0B7F9787866
:105A800000F0B2F92088000AFDF787F9208800F0BD
:105A9000AEF90820B870386B20B1016808001CBF4F
:105AA00008208847788A810710D54FF6FD71084095
:105AB0007882B878062809D1F88AFEF736FF398B44
:105AC00008001CBF07F15C00FDF7E6F9788A410782
:105AD00006D54FF6FB7108407882002000F08AF965
